:100000008131432980343E34803120007F08F6005E
:100010002100111C1A282000111C1A28111005306B
:1000200040020318162841088D05182841088C0540
:10003000200018108B190B1CB0281508C5002700CC
:1000400016082000700503193628950124004F0872
:10005000203E8600023087004F082D3C0318CF0A4F
:100060002000450881007009270096052700160822
:1000700015050319B0282000C6002000C61D54280D
:10008000270096112000F11D54282300E00AF21DDC
:100090005028F2116608A4006708A500E601E701F0
:1000A000E70A0319E60A20002000C61C6B28270077
:1000B00096102000711E6B282300E10A721E67282B
:1000C00072126808AA006908AB00E801E901E90AB0
:1000D0000319E80A20002000461E82282700161275
:1000E0002000F11E82282300E20AF21E7E28F2126E
:1000F0006A08B0006B08B100EA01EB01EB0A0319D2
:10010000EA0A20002000461F992827001613200025
:10011000711F99282300E30A721F952872136C0837
:10012000B6006D08B700EC01ED01ED0A0319EC0A09
:1001300020002000C61FB028270096132000F11FC2
:10014000B0282300E40AF21FAC28F2136E08BC00AA
:100150006F08BD00EE01EF01EF0A0319EE0A20005F
:100160002100111CC2282000111CC22811100530CA
:1001700040020318BE2841088D05C02841088C059F
:10018000200018102000911CF9289110F31FCF288F
:10019000F3167108F5007508F2002000F313013022
:1001A0002000AA070030AB3D0130A8020030A93B77
:1001B00029082804031DF9286430A8000030A9008C
:1001C000741CEA281508C50020009E138B127410B9
:1001D0007315F128F41CF128F41095010B118B16FE
:1001E00074140130C202C208031DF9280A30C2008B
:1001F000F3172100111E1A292000111E1A29360892
:100200003A06031914293A08403E86000130870057
:10021000010823009A002000BA0A203020003A0288
:10022000031C1A29BA011A293A083606031D1A298D
:10023000210011128B1A0B1D29290B11731F25295F
:100240002000AC0A031DAD0A29298B123230200090
:10025000B2002100911E3F292000911E3F2920005D
:100260003B08BB0A203E86000130870023001908A6
:100270008100200020003B08203A0319BB017608CA
:100280002000FF00090081314529F301F4012030ED
:100290008400003085002D3088314B208131A03022
:1002A000840000308500493088314B208131203076
:1002B000840001308500403088314B20813180310D
:1002C00002208131EB0080310320EC0020008131DD
:1002D000692902302100950023008C018D01203016
:1002E00020008C003F3024008C008B011D30210049
:1002F0009700F3106400D4302000E4006408E700A5
:10030000E9010B30690203189C29690889316321CE
:1003100081312000E40067088600870164088100BD
:100320000130E4006408E7070130E4006408E907ED
:100330000B306902031C85293F3021008C00DE3020
:100340008D0020000D10803022009D0001309E00A5
:10035000823023009E009D011E159F151E128A30BB
:100360009B009C019E169D171D1621001112200056
:100370009112111223001F121F102000B601BA01A2
:10038000BB01BC018B170B172100911627009401AC
:10039000950196018B152000F001F101F311073052
:1003A0009C007D309B009A0191106430A8000030C1
:1003B000A9000A30E4006408C200210091140B1760
:1003C0008B17E3309E0001309D0023008C018D01CE
:1003D0002100111320001113C230220097002000C9
:1003E000EA010A306A020318032A73146A08823188
:1003F000BC22813101302000E4006408EA070A30A1
:100400006A02031CF5297310073028009700553045
:1004100025009E00FF3028009600950121009310D2
:10042000200093108831452081312000B701CB3066
:10043000E600ED30E5004C30E400E40B1D2AE50B4E
:100440001D2AE60B1D2A242A8B31C5238131200069
:10045000EA010A306A0203183C2A6A35A03E860087
:1004600087010030C03FC13F0130E4006408EA0763
:100470000A306A02031C2D2A0A30E4006408C00016
:10048000303098009913111021001110200018101D
:10049000F31C6400F3194E2A20000D10F31D612A8D
:1004A0002100111AB22A04302000E500A130E40036
:1004B000E40B582AE50B582A5D2A20000D10F31191
:1004C000B22A883151208131003A0319B22A893188
:1004D000AD2181312000E4003708DF3E860087012E
:1004E000640881000130E4006408B707083037026F
:1004F000031CB22A0830E4006408B700DF308D31F5
:10050000252581312000E4006408E8006808013AEC
:10051000031D8F2A8E31642681312000932A6808BA
:10052000023A031D952AB701B22AEA01EA0A083005
:100530006A020318B02A6A08DF3E860087010108B4
:10054000E4006A08FF3EDF3E860087016408810000
:100550000130E4006408EA0708306A02031C9B2AA1
:100560000130B7028431952481318F314F27813199
:10057000863177268131482A2000D2005208D43EA5
:10058000860087010108D0005008D1008B31C523B7
:10059000823106302000D0005008F7005208883120
:1005A000C8208231A03E8600013087000030C03F65
:1005B0000030C13FC23FC33F06302000D00050088A
:1005C000F70052088831C8208231043EA03E8600E0
:1005D000013087000030C03FC13F0530200052028B
:1005E0000318FA2A52080C3E88310A008231D000E2
:1005F0005008F105D208031DFF2A250093012000B1
:100600005208033A031D062B25009A0120005208C8
:10061000083A031D0D2B2600930120005208093AC9
:10062000031D142B26009A010530200052020318E6
:10063000252BF701F70A52088A3171228231F7011E
:10064000200052088A31D622823120005235A03E45
:10065000860087010030C03FC13F043051020318BB
:100660003F2B0530520203183A2BF70152088A310A
:1006700071228231200052088731C5270800511BA2
:10068000452B5108063A031D492B52088B31722322
:10069000080020005108073A031D562B0030F700D0
:1006A0000030F80052088631E8260800D11F7F2B61
:1006B000F70152088A3171228231200052088B31B1
:1006C000EF238231F701F70A200052088A31D6223F
:1006D00082312000D2080319F1155208013A03199A
:1006E00071165208023A0319F1165208033A031917
:1006F00071175208043A031D0800F1170800D119B8
:10070000852B5108043A031D9C2BD11D8E2B0530DF
:100710005202031C8E2BAE01AE0A080005305202B5
:100720000318972BF70152088A3171228231200079
:1007300052088B31EF230800511EA52B05305202C1
:10074000031C0800AE01AE0A080052088B31EF23EB
:100750000800103020002306031DB02B02302206B3
:10076000031DB52B8A31FA22080001302000230630
:10077000031DBC2BFF302206031DCC2B5630270651
:10078000031DC42B78302606031DC82B7314C92BF8
:10079000731089314C210800AA3020002306031D64
:1007A000D32B55302206031DE82B12302706031DDC
:1007B000DB2B34302606031DE42BF314113021000B
:1007C000970089314C210800023089313621080018
:1007D000013020002302003003192202031C312CB7
:1007E000013023020A30031922020318312C731C32
:1007F0002E2C2208D9005908DB00AE015B08D43E3C
:10080000860087010108D9005908DA002608D900B6
:100810005B08D43E86008701590881005B0882315D
:10082000BC22833120002E080319272C5A08D90036
:100830005B08D43E86008701590881005B0882313D
:10084000BC22833102308931362183312C2C89310D
:100850004C2183318A3152227314080089314C2192
:1008600008000030200023020A3003192202031876
:100870007E2C2208D43E860087010108D900590841
:10088000DA002708F801F8072608F701F707220819
:100890008631E82683310038031D7B2C20005A085E
:1008A000803A031D6A2C27082604031D7B2C063082
:1008B000D9005908F70022088831C8208331A03EAA
:1008C0008600013087000030C03F0030C13FC23F8A
:1008D000C33F7B2C20005A08403A031D782C223558
:1008E000A03E860087012608C03F2708C13F7B2C19
:1008F0008931FC21080089314C210800A0302000FA
:1009000022062304031D912C731C8E2C2608D9006B
:1009100059082100DE008A315222833189314C216D
:100920000800023089313621080020003208633A7D
:10093000031D542DB508031DA02C8831742084316B
:1009400006302000D2005208F70033088831C82052
:100950008431A03E2000D5000130D6003508FF3A92
:10096000031DBB2C5508860056088700FF30C03F8A
:10097000FF30C13FCE2C5508860056088700810104
:100980003508D2005508013ED3000030563DD40052
:100990005308860054088700520881003408103A32
:1009A000031DFB2C4708D2005508033ED30000303E
:1009B000563DD40053088600540887005208810031
:1009C0004908D2005508053ED3000030563DD400FA
:1009D0005308860054088700520881005508860095
:1009E0005608870042318101550886005608870065
:1009F00044318101112D3408113A031D112D550880
:100A000086005608870042314708C03F4808C13F6A
:100A1000550886005608870044314908C03F4A08F7
:100A2000C13FB41E432D4808D2005508023ED300F2
:100A30000030563DD4005308860054088700520801
:100A400081004708D2005508033ED3000030563DD0
:100A5000D4005308860054088700520881005508C6
:100A6000860056088700443181014B08D2005508A2
:100A7000053ED3000030563DD4005308860054088C
:100A8000870052088100B41D512D55088600560874
:100A900087004708C03F4808C13F4908C23F4A088D
:100AA000C33F8B3120230800341E592D8931E121A9
:100AB0000800B41E5E2D853166250800B41D632D27
:100AC0008B31492308008B3120230800C92D883140
:100AD0005820080009302000D1005108B2008831A8
:100AE00099208531F92D2000931D0800F92D8A31B8
:100AF000342285310038031DF92DFF302000D1004C
:100B00005108B5006330D1005108B2000800CC3064
:100B10008D3161258531F92D44308D316125853147
:100B200058302000A0000230A100FA308831602047
:100B30008531F92D931D08000130A0020030A13B42
:100B4000210820040319F92DFA30883160200800AB
:100B5000BE308D31612585312000B001F92D8E31F7
:100B6000A92685312000D1003008473E8600870144
:100B7000510881000130D1005108B0070630300221
:100B8000031C08006330D1005108B200B501B50A5A
:100B9000080020003208003A0319672D013A0319B2
:100BA0006A2D0B3A0319732D013A0319772D073A71
:100BB0000319732D013A0319872D033A03198C2D5C
:100BC000013A03199A2D1F3A03196F2D013A03199F
:100BD000732D033A0319772D013A0319732D073A40
:100BE0000319872D013A0319A82D033A0319AF2DD4
:100BF000F92D01302000D1005108B2070800200073
:100C0000E001E101AE0100302302A030031922020D
:100C100003182E2E2308DE002208DD000430DE3605
:100C2000DD0C890B0F2E5D08DF005F08E200620813
:100C300088318C208531003A0319232E2000620868
:100C40008E31FA260800200062088C31B3248531E9
:100C500020005108E101E1075008602E1030230602
:100C6000031D342E00302206031D3F2E8831FC2048
:100C7000853120005108E101E1075008602E103055
:100C80002306031D452E01302206031D502E8831F8
:100C9000D920853120005108E101E1075008602E7C
:100CA00010302306031D562E02302206031D632E2C
:100CB0008B319B2385317B082000E101E1077A0815
:100CC000E001E007652EAE01AE0A20002E080319F0
:100CD0006D2E023089313621080020006108D601CE
:100CE000D6076008D501D5078931222108008B136A
:100CF0002000F21D832EF21123006608A40067086D
:100D0000A600E601E7018B178B132000721E902EC0
:100D1000721223006808AA006908AB00E801E90123
:100D20008B178B132000F21E9D2EF21223006A08EF
:100D3000B0006B08B100EA01EB018B178B132000A8
:100D4000721FAA2E721323006C08B6006D08B7003C
:100D5000EC01ED018B138B172000F21FB72EF2135D
:100D600023006E08BC006F08BD00EE01EF018B1779
:100D700023008B136008E0018B17A3070030A23D0E
:100D8000A13DA03D8B136108E1018B17A90700303D
:100D9000A83DA73DA63D8B136208E2018B17AF0764
:100DA0000030AE3DAD3DAC3D8B136308E3018B17C6
:100DB000B5070030B43DB33DB23D8B136408E40188
:100DC0008B17BB070030BA3DB93DB83D2000080085
:100DD0002000CF007808FA007708F900FA36F90CFD
:100DE000FA36F90C7908FB007B08CD007708033947
:100DF000F9007908CE00CE0EF030CE050C30F900A7
:100E00007908CE044F08D43E860087010108073ACE
:100E100003190C2F00300800CF08031D192F2100E3
:100E20008D1120004E082500930020004D0825005C
:100E3000362F20004F08033A031D282F21000D13E1
:100E400020004E0825009A0020004D082500462F5E
:100E500020004F08083A031D382F21008C11200074
:100E60004E082600930020004D08260091004C2FCC
:100E700020004F08093A031D482F21000C122000C2
:100E80004E0826009A0020004D08260098004C2F9E
:100E90002000AE010030080020004F35A03E860043
:100EA00087017708C03F7808C13F013008008B12E6
:100EB000F701200033088A31D6228731FF30FB004A
:100EC0007B082000B5002A3024004F02031CB42FF9
:100ED0002000C4010230FB007B08AF00B101CE014D
:100EE00005304E020318A92FCD0108304D0203181A
:100EF000912F0310C40D2F08AF0A203E8600023048
:100F000087006F300102031C892F0130FB007B0832
:100F1000C4070130FB007B08CD0708304D02031CDD
:100F20007A2F04304E020318A12F4408FB007B08DF
:100F3000B1074408FB004E08473E860087017B0846
:100F400081000130FB007B08CE0705304E02031CF8
:100F5000742F31084406031DB42FB501B50A633060
:100F6000FB007B08B20008002000BE08031DC02F54
:100F70000130FB007B08BE07AA01AB01B2010800EB
:100F80006330FB007B08B2000800F9007908D43E0A
:100F9000860087010108F7007708F8007908013E0C
:100FA00088310A008731F7007708FA0005307902A6
:100FB0000318E52F7A08F700770821008D047A08D6
:100FC000F700770823008D04EF2F7A08F7007708E1
:100FD00021008C047A08F700770823008C04220093
:100FE00017087806FC3978069700F808031DFC2FCF
:100FF000FC3021009E050800033021009E040800FB
:101000000034083402341034403480340134023463
:101010000434083410340034F734FD34EF34BF3472
:101020007F34FE34FD34FB34F734EF34FF340934BD
:101030000B340834053406340034013402340334EC
:02104000043476
:10108A008B132000BB01BC018B1708006400800190
:10109A000131890B4C28003420003B083C06003003
:1010AA00031D013008002000330889317B2120000C
:1010BA00B201B20A0800F700073028009E0077083C
:1010CA009D009C01200093110800F70005302800BC
:1010DA009E0077089D009C012000931108008B1246
:1010EA000B11FF302000CB00FF30CC00341E08006B
:1010FA008831A820080021005E08F7007708B400AC
:10110A0020003808F70077082100B5000800F7002A
:10111A007708D43E860087010108B8390319972851
:10112A0001300800003008002000330889317B2193
:10113A008831F701200033088C31EA2488313F30A6
:10114A008831602008008B12F701200033088A31A9
:10115A00D62288316330FB007B082000B2003308B6
:10116A008931942108002000F500883180208831D7
:10117A0001302100B600200075082100B7000430B4
:10118A008C314A240800FA00F9017A1CD028770821
:10119A00F8007808F9070310F70D0310FA0CFA089B
:1011AA00031DCA2879080800220097161712FC3076
:1011BA0021009E051D308D319E2578082000D10121
:1011CA00D1077708D001D00708002000CF004F08C8
:1011DA00D43E860087010108063A031D08004D081F
:1011EA00CE004E08F7004F088C31EA24080022008E
:1011FA001708FC3902389700FC3021009E051F3081
:10120A008D319E2578082000D101D1077708D001B9
:10121A00D00708000030200023020A3003192202F6
:10122A0003181E2922088931C72189318831B8203B
:10123A00080002308931362108002000D5008831A3
:10124A008020893102302100B60020005608210092
:10125A00B700200055082100B80005308C314A2417
:10126A0008002000D6008831802089312000380803
:10127A008038D50055082100B50020005608D50051
:10128A0055082100B60003308C314A240800883101
:10129A0080208931200023082100B600200022087E
:1012AA002100B700200027082100B80020002608E6
:1012BA002100B90006308C314A240800FA00640083
:1012CA002300951864297A08F700F8017708910035
:1012DA00780892003F30F900790895051514031033
:1012EA00151803140030093D13080800F80078089F
:1012FA000C3E88310A008931F7007708F900053079
:10130A00780203188E297908F700770821008D05DD
:10131A0008007908F700770821008C050800F80012
:10132A007808013E88310A008931F7007708F90008
:10133A00053078020318A7297908F70077082100F1
:10134A008D0408007908F700770821008C0408004A
:10135A00883151208931003A0319AD2920003C080F
:10136A00203E8600013087000108F7007708F80060
:10137A000130F7007708BC0720303C020318BC0193
:10138A0078080800F900053079020318CF292000EF
:10139A000D08D12920000C08F7007708F800790811
:1013AA00013E88310A008931F7007708F8050030D4
:1013BA00F808031D0130080020003208623A0319B8
:1013CA0008003208323A031DED29873157270800F1
:1013DA0020003208633A031908003208013A031D53
:1013EA00F9298D31DE2508008C317C240800003073
:1013FA00200023020A30031922020318132A27089D
:10140A0026040030031D0130D7005708CD002208FA
:10141A008831EA20893189314C210800023089312A
:10142A0036210800F9007908013E88310A008A311C
:10143A00F7007708FA00053079020318272A2000F6
:10144A000D08292A20000C087A05F7007708F80009
:10145A00F808031D322A0030080001300800200075
:10146A003308893194218A31B43088316A208A312B
:10147A002000931D3D2A33088A3117228A31FB0046
:10148A007B0C731203187316731E4D2A0030080062
:10149A0033308831602001300800D430FB007B08EB
:1014AA002000CD00CE010B304E02031808004D0873
:1014BA00860087010108FB007B08F7004E088A3185
:1014CA00B3228A310130FB007B082000CD070130AE
:1014DA00FB007B08CE07582AF90005307902031869
:1014EA008D2A77080319832A7908013E88310A0070
:1014FA008A31F800780824008D04080079080C3E27
:10150A0088310A008A31F800780824008D0508001D
:10151A002000AE01AE0A0800F8007808F700770844
:10152A002000BF07360AF7007708F9002030790251
:10153A000318F90179083A0603199F2A7808F7006F
:10154A003608403E86000130870077088100790816
:10155A00F7007708B600210011160800FA002300E8
:10156A009518B42A7A08F800F901780891007908E0
:10157A009200770893003F30F8007808950520001C
:10158A0003108B1B03148B1323001515553096007B
:10159A00AA309600951415112000031C08008B1719
:1015AA000800FA0005307A0203180800F708031D3C
:1015BA00EC2A7A080C3E88310A008A31F800780849
:1015CA00F9008B137908270095058B1708007A080C
:1015DA00013E88310A008A31F8007808F9008B1335
:1015EA007908270095048B17080020002708D701DF
:1015FA00D7072608D601D607D8010A305802031899
:10160A001D2B56080139D5005508CD0058088831D8
:10161A00EA208A3101302000D736D60C890B112BEB
:10162A000130D5005508D8070A305802031C062B8A
:10163A0089314C2108002000BE010130F7007708EB
:10164A00B3070A3033020318B3013308D43E8600C5
:10165A0087010108F7007708B400B201B501AA01B1
:10166A00AB018B127313B4197317F80106307802A1
:10167A00031808007808473E860087018101013077
:10168A00F7007708F8073B2B2000B208031D502B00
:10169A008C311A24080020003208013A031D080080
:1016AA00731D0800C7012D08F7007708C8002C0829
:1016BA00F7007708C9004508F7007708CA00AC01A7
:1016CA00AD01C5016330F7007708B200B501B50A6C
:1016DA009E13210095128B120800FA007A08D43E54
:1016EA00860087010108F7007708F8007A080C3E9F
:1016FA0088310A008B31F7007708F90005307A0241
:10170A000318912B7908F700770820008D0521002E
:10171A008D0523008D0508007908F7007708200059
:10172A008C0521008C0523008C0508002000CF01C0
:10173A00D001D1010A3051020318BE2B0130CF3536
:10174A00D00D890BA42B510AFF3A013E0A3E89317A
:10175A00C7218B312000CD00CE014D08CF044E08A1
:10176A00D0040130CD004D08D1070A305102031CC4
:10177A00A32B5008FB01FB074F08FA01FA070800E0
:10178A002000CD010A304D02031808004D08D43E4E
:10179A00860087010108103A0319DB2B4D08D43E55
:1017AA00860087010108113A031DE02BF7014D0855
:1017BA008A31D6228B312000B20121005408FB0065
:1017CA007B082000B400B301F0010130FB007B0864
:1017DA00CD07C72BFA007A08013E88310A008B31FF
:1017EA00F7007708F8007A080C3E88310A008B3136
:1017FA00F7007708F90005307A0203180F2C7808E9
:10180A00F700770821008D047908F700770823008C
:10181A008D0508007808F700770821008C047908FC
:10182A00F700770823008C0508002000B501B50AE7
:10183A00B201B20A3308173E88310A008C319F0080
:10184A009E138B12AC01AD019501F4107410731143
:10185A003408083A031D332C8130402C3408093AE5
:10186A00031D392C8530402C34080A3A031D3F2CBD
:10187A008930402C8D309E0020302100950095162D
:10188A008B127317F414731108002000D100B908E1
:10189A00031908005108FB007B08F700B4308E31A9
:1018AA001F268C3178082000D301D3077708D2018C
:1018BA00D207F3150D14D401510854020318732CDE
:1018CA005408B43E8600870101088A3191228C317E
:1018DA000130FB007B082000D407612C52088A31B2
:1018EA0091228C31200053088A319122080003305A
:1018FA0020002B02E93003192A02031C0800AA015E
:10190A00AB0133080C3E88310A008C31F7007708A6
:10191A00F8008B137808F7007708270095057808F0
:10192A00F700770896058B178B137808F700770866
:10193A0021008D057808F700770820008D058B17A0
:10194A00B201B20A2830F7007708AF00C401B0012B
:10195A000230210095002000950108002000D500E2
:10196A00AE015508D43E860087010108D20052080C
:10197A00D400043054020318D62C55088731C527E1
:10198A008C3120005508173E88310A008C318D3180
:10199A009E2578082000D101D1077708D001D00709
:1019AA000800073054020318E52C55088A3117221B
:1019BA002000D200D3015208D0005308D1000800F9
:1019CA00FF30D000FF30D1000800FB007B08013E49
:1019DA0088310A008C31F8007808F9007B080C3E3F
:1019EA0088310A008C31F8007808FA0005307B0249
:1019FA000318122DF708031D0A2D8B137A08F80015
:101A0A00780820008D058B1708008B137908F800D9
:101A1A00780820008D048B170800F708031D1D2D78
:101A2A008B137A08F800780820008C058B170800B9
:101A3A008B137908F800780820008C048B170800AB
:101A4A00860087011600B9001600B8001600A30028
:101A5A001600A2001600A7001600A6001600A40091
:101A6A001600A5000630FB007B08F700DF308E3138
:101A7A001F268D3178082000D201D2077708D101BC
:101A8A00D10725085206031D4C2D240851060319B7
:101A9A00502DD3015F2D21005E0820003906031D59
:101AAA00B908031D5B2DD301D30A5F2D0230FB0059
:101ABA007B08D300530808002000CE00D001D00ACA
:101ACA000830CD004D08CF00CF08031908008B134A
:101ADA00330889317B218D31F701200033088C319D
:101AEA00EA248D3120004E0850050319802D00008C
:101AFA0000008B17882D8B17783088316A208D313A
:101B0A002000931D852D20003308893194218D31C1
:101B1A0020004E0850050319992D783088316A2023
:101B2A008D312000931D962D0310D00D0130CF0268
:101B3A00692D2000CD00210011132000111321006E
:101B4A001D141D1420004D08F900F90DF90D21008E
:101B5A001D087906833979069D000B30FA00623038
:101B6A00F900F90BB62DFA0BB62D000021009D14D1
:101B7A009D18BD2D0B30FA006230F900F90BC32D08
:101B8A00FA0BC32D000021009D149D18CA2D1C08B4
:101B9A00F90079082000CF0021001B08F900790814
:101BAA002000CE004F08F801F8074E08F701F707A2
:101BBA00080020003308013E88310A008D31F70001
:101BCA007708F9007909F7007708F800B5010030BD
:101BDA002B02153003192A02031C08006230F70091
:101BEA007708B2008B137808F70077082700960564
:101BFA007908F700770895048B177908F7007708B2
:101C0A002000F0002400CF018B15200095010B1154
:101C1A008B168B1395017908F700770821008D043C
:101C2A008B17000000000000000000000000000008
:101C3A00000008002000CD00FF30CF00FF30D000A8
:101C4A00F70803195D2E4D08860087014F08010623
:101C5A00CF005008D0000130F9007908CD070830CC
:101C6A00F9007908CE00CE080319582E4F1C492EC8
:101C7A005008FA004F08F900FA36F90C01307906D3
:101C8A00CF00A0307A06522E5008FA004F08F90009
:101C9A00FA36F90C7908CF007A08D0000130CE0262
:101CAA00CE08031D3B2E0130F702F708031D282E2C
:101CBA005008F801F8074F08F701F7070800200055
:101CCA00390803196E2E21005E0820003906031D0B
:101CDA000800C730E3000000E30B702E742E0000EA
:101CEA0020003808013A031D7D2E89310F21080092
:101CFA0020003808023A031D852E89310F21080079
:101D0A0020003808033A031D8D2E8F31A7270800BB
:101D1A0020003808043A031D952E8531FF25080056
:101D2A0020003808053A031D9D2E8931FC21080040
:101D3A0020003808063A031DA52E8331A92308007E
:101D4A0001308931362108002000CE01CE0ACF01A8
:101D5A000830CD004D08D000D0080319F82E3308FA
:101D6A0089317B218E31F701200033088C31EA2436
:101D7A008E318B13000000000000000000000000FC
:101D8A000000000020003308893194218E310000C0
:101D9A000000000000000000000000000000013008
:101DAA0088316A208E312000931DD82E33088A315B
:101DBA0017228E31003A0319E92E8B1720004E089C
:101DCA00CD004D08CF04EA2E8B17783088316A206F
:101DDA008E312000931DEE2E0310CE0D0130D0025D
:101DEA00D008031DB42E4F0808002000DA00D901DC
:101DFA00DC015A08D43E860087010108D70057083B
:101E0A00DB0008305B02031C1A2F10305B02031838
:101E1A00102F0430172F5B08403A031D162FDC01E0
:101E2A001A2F0630D7005708DC00DC08031D212FC3
:101E3A000230893136210800883180208E31200015
:101E4A005C08D70057082100B60006302000D700EA
:101E5A005708F7005A088831C8208E312000D80068
:101E6A005808DB0001308500A0305B078400003091
:101E7A008700B73086005C08D9008B1300081E0063
:101E8A00840AD90B432F8B1720005C08033E8C3140
:101E9A004A2408002000181808000130F7007708C3
:101EAA00C0070B304002031C5F2FC0012030EB003B
:101EBA004E30EC0040080C3E88310A008F31F700A2
:101ECA007708C10040080A3A031D712FEC1B08006D
:101EDA006B09F7006C09842F4035A03E8600870104
:101EEA00403FFA00413FFB007A08EB027B08EC3BDB
:101EFA007B087A04031908007A09F7007B09F800BD
:101F0A00F70A0319F80A770896007808970011105B
:101F1A002100111420004008013E88310A008F3147
:101F2A00F7007708F900053040020318A02F8B1339
:101F3A0079088D04A32F8B1379088C0420001814B8
:101F4A008B1708002000D901013023020030031941
:101F5A002202031CBD2F013023020B300319220277
:101F6A000318BD2F2208D43E860087010108C52F19
:101F7A00A03022062304031DCB2F21005E08200077
:101F8A00D700D8015708DA005808EB2FFA30220692
:101F9A002304031DD42F0530DA000130EB2FFB3068
:101FAA0022062304031DDD2F3A30DA006530EB2FB9
:101FBA00003023020A30031922020318ED2F2235BA
:101FCA00A03E86008701403FDA00413FDB00EF2F49
:101FDA00D901D90A59080319F62F02308931362155
:101FEA00080020005B08D601D6075A08D501D50794
:061FFA00893122210800DC
:020000040001F9
:04000E00FAEFFFFF07
:10E0000006000600060006000600060006000600E0
:10E01000040004007F00FF00FF00FF00FF00FF007E
:00000001FF
