:0400000081314229DF
:10000800803120007F08F6002100111C1A282000EA
:10001800111C1A281110053040020318162841082F
:100028008D05182841088C05200018108B190B1C09
:10003800B0281508C5002700160820007005031908
:100048003628950124004F08203E8600023087009C
:100058004F082D3C0318CF0A20004508810070097D
:10006800270096052700160815050319B028200053
:10007800C6002000C61D5428270096112000F11D37
:1000880054282300E00AF21D5028F2116608A40043
:100098006708A500E601E701E70A0319E60A200058
:1000A8002000461E6B28270016122000711E6B28A0
:1000B8002300E10A721E672872126808AA006908FC
:1000C800AB00E801E901E90A0319E80A2000200069
:1000D800C61E8228270096122000F11E82282300BF
:1000E800E20AF21E7E28F2126A08B0006B08B1001C
:1000F800EA01EB01EB0A0319EA0A20002000461F77
:100108009928270016132000711F99282300E30A55
:10011800721F952872136C08B6006D08B700EC01C1
:10012800ED01ED0A0319EC0A20002000C61FB028D3
:10013800270096132000F11FB0282300E40AF21FBD
:10014800AC28F2136E08BC006F08BD00EE01EF0189
:10015800EF0A0319EE0A20002100111CC228200012
:10016800111CC2281110053040020318BE2841088E
:100178008D05C02841088C05200018102000911C0E
:10018800F9289110F31FCF28F3167108F5007508A8
:10019800F2002000F31301302000AA070030AB3D25
:1001A8000130A8020030A93B29082804031DF928BA
:1001B8006430A8000030A900741CEA281508C5009E
:1001C80020009E138B1274107315F128F41CF1286B
:1001D800F41095010B118B1674140130C202C20879
:1001E800031DF9280A30C200F3172100111E19292E
:1001F8002000111E192936083A06031913293A084E
:10020800A03E86008701010823009A002000BA0A50
:10021800203020003A02031C1929BA0119293A088A
:100228003606031D1929210011128B1A0B1D2829C6
:100238000B11731F24292000AC0A031DAD0A2829BD
:100248008B1232302000B2002100911E3E2920007E
:10025800911E3E2920003B08BB0A203E8600013043
:100268008700230019088100200020003B08203A5D
:100278000319BB0176082000FF00090081314429D9
:10028800F301F40120308400003085002D308831DE
:100298002E208131A030840000308500493088311B
:1002A8002E208131203084000130850020308831B3
:1002B8002E2081318731FC278131EC008731FD27E1
:1002C800ED002000813168290230210095002300CB
:1002D8008C018D01203020008C003F3024008C00E0
:1002E8008B011D3021009700F3106400D4302000EA
:1002F800E5006508E800EA010B306A0203189B294B
:100308006A088831FB2081312000E50068088600F2
:100318008701650881000130E5006508E8070130BC
:10032800E5006508EA070B306A02031C84293F30A0
:1003380021008C00DE308D0020000D10803022005E
:100348009D0001309E00823023009E009D011E15F5
:100358009F151E128A309B009C019E169D171D1624
:100368002100111220009112111223001F121F10D8
:100378002000B601BA01BB01BC018B170B17210085
:10038800911627009401950196018B152000F00124
:10039800F101F31107309C007D309B009A01911008
:1003A8006430A8000030A9000A30E5006508C200E2
:1003B800210091140B178B17E3309E0001309D002C
:1003C80023008C018D012100111320001113C2306C
:1003D800220097002000EB010A306B020318022A62
:1003E80073146B088231BA22813101302000E50094
:1003F8006508EB070A306B02031CF42973100730F9
:1004080028009700553025009E00FF3028009600F0
:100418009501210093102000931088312820813104
:100428002000B701CB30E700ED30E6004C30E500A6
:10043800E50B1C2AE60B1C2AE70B1C2A232A8B3106
:10044800452381312000EB010A306B0203183B2A57
:100458006B35C03E860087010030C03FC13F013088
:10046800E5006508EB070A306B02031C2C2A0A30EA
:10047800E5006508C000303098009913111021007C
:10048800111020001810F31C6400F3194D2A2000E5
:100498000D10F31D5F2A2100111AB02AE430200044
:1004A800E500562A572AE50B552A5A2A000020004B
:1004B8000D10F311B02A883134208131003A031924
:1004C800B02A8931452181312000E5003708DF3E17
:1004D80086008701650881000130E5006508B707D7
:1004E80008303702031CB02A0830E5006508B70059
:1004F800DF308531EF2581312000E5006508E9000E
:100508006908013A031D8D2A8D31B92581312000F2
:10051800912A6908023A031D932AB701B02AEB0110
:10052800EB0A08306B020318AE2A6B08DF3E860020
:1005380087010108E5006B08FF3EDF3E8600870162
:10054800650881000130E5006508EB0708306B029B
:10055800031C992A0130B7028431852481318E31F8
:10056800E8268131863183268131472A2000D2004E
:100578005208D43E860087010108D0005008D100F7
:100588008B314523823106302000D0005008F70017
:10059800520888319A208231A03E860001308700B7
:1005A8000030C03F0030C13FC23FC33F063020008B
:1005B800D0005008F700520888319A208231043E52
:1005C800A03E8600013087000030C03FC13F0530A3
:1005D800200052020318F82A52080C3E88310A00FB
:1005E8008231D0005008F105D208031DFD2A2500EC
:1005F800930120005208033A031D042B25009A0199
:1006080020005208083A031D0B2B260093012000F6
:100618005208093A031D122B26009A0105302000C2
:1006280052020318232BF701F70A52088931F121E6
:100638008231F701200052088A3155228231200088
:100648005235C03E860087010030C03FC13F0430AC
:10065800510203183D2B053052020318382BF701BD
:1006680052088931F1218231200052088C317F24CF
:100678000800511B432B5108063A031D472B52080B
:100688008A31F322080020005108073A031D542B31
:100698000030F7000030F80052088631F4260800D0
:1006A800D11F7D2BF70152088931F12182312000B9
:1006B80052088731D1278231F701F70A2000520802
:1006C8008A31552282312000D2080319F1155208C7
:1006D800013A031971165208023A0319F116520821
:1006E800033A031971175208043A031D0800F11759
:1006F8000800D119832B5108043A031D9A2BD11DE8
:100708008C2B05305202031C8C2BAE01AE0A08005C
:10071800053052020318952BF70152088931F1214F
:100728008231200052088731D1270800511EA32B9F
:1007380005305202031C0800AE01AE0A0800520838
:100748008731D1270800013020002306031DAE2B76
:10075800FF302206031DBC2B56302706031DB62B7F
:1007680078302606031DBA2B73140800731008008E
:10077800AA3020002306031DC32B55302206031D73
:10078800D82B12302706031DCB2B34302606031D29
:10079800D42BF3141130210097008B311C2308004F
:1007A80002308831E32008000130200023020030A5
:1007B80003192202031C212C013023020A300319D9
:1007C80022020318212C731C1E2C2208DA005A0856
:1007D800DC00AE015C08D43E860087010108DA001F
:1007E8005A08DB002608DA005C08D43E8600870138
:1007F8005A0881005C088231BA22833120002E0811
:100808000319172C5B08DA005C08D43E86008701C0
:100818005A0881005C088231BA228331023088315B
:10082800E32083311C2C8B311C2383318931D22165
:10083800731408008B311C230800003020002302A9
:100848000A300319220203186E2C2208D43E8600AF
:1008580087010108DA005A08DB002708F801F807C1
:100868002608F701F70722088631F4268331003875
:10087800031D6B2C20005B08803A031D5A2C2708A7
:100888002604031D6B2C0630DA005A08F7002208EC
:1008980088319A208331A03E8600013087000030DD
:1008A800C03F0030C13FC23FC33F6B2C20005B08F4
:1008B800403A031D682C2235C03E86008701260871
:1008C800C03F2708C13F6B2C8D31782508008B313C
:1008D8001C230800A030200022062304031D812CBD
:1008E800731C7E2C2608DA005A082100DE008931A4
:1008F800D22183318B311C23080002308831E32058
:10090800080020003208633A031D442DB508031D72
:10091800902C88316220843106302000D2005208A1
:10092800F700330888319A208431A03E2000D50092
:100938000130D6003508FF3A031DAB2C5508860058
:1009480056088700FF30C03FFF30C13FBE2C550816
:1009580086005608870081013508D2005508013EF7
:10096800D3000030563DD400530886005408870051
:10097800520881003408103A031DEB2C4708D200B6
:100988005508033ED3000030563DD4005308860076
:1009980054088700520881004908D2005508053ECE
:1009A800D3000030563DD400530886005408870011
:1009B8005208810055088600560887004231810197
:1009C800550886005608870044318101012D3408F6
:1009D800113A031D012D550886005608870042313B
:1009E8004708C03F4808C13F550886005608870099
:1009F80044314908C03F4A08C13FB41E332D480856
:100A0800D2005508023ED3000030563DD4005308AA
:100A1800860054088700520881004708D20055080C
:100A2800033ED3000030563DD400530886005408D6
:100A3800870052088100550886005608870044310F
:100A480081014B08D2005508053ED3000030563DC1
:100A5800D400530886005408870052088100B41D4A
:100A6800412D55088600560887004708C03F4808AA
:100A7800C13F4908C23F4A08C33F8A31CA22080019
:100A8800341E492D89315F210800B41E4E2D853151
:100A980056250800B41D532D8A31A12208008A3139
:100AA800CA220800B92D88313B20080009302000EF
:100AB800D1005108B20088317B208531E92D200012
:100AC800931D0800E92D8931B42185310038031DB3
:100AD800E92DFF302000D1005108B5006330D10066
:100AE8005108B2000800CC308C31BA248531E92D88
:100AF80044308C31BA24853158302000A0000230AF
:100B0800A100FA30883143208531E92D931D080072
:100B18000130A0020030A13B210820040319E92D6F
:100B2800FA30883143200800BE308C31BA24853130
:100B38002000B001E92D8E313F2685312000D100FB
:100B48003008473E86008701510881000130D100F6
:100B58005108B00706303002031C08006330D1008A
:100B68005108B200B501B50A080020003208003A61
:100B78000319572D013A03195A2D0B3A0319632DFE
:100B8800013A0319672D073A0319632D013A03192E
:100B9800772D033A03197C2D013A03198A2D1F3A40
:100BA80003195F2D013A0319632D033A0319672DC1
:100BB800013A0319632D073A0319772D013A0319EE
:100BC800982D033A03199F2DE92D01302000D100FB
:100BD8005108B20708002000D6005608D000500877
:100BE800D8005808860087010108D0005008B900CD
:100BF8000130D0005008D80758088600870101083E
:100C0800D0005008B8000130D0005008D807580A62
:100C1800860087010108D000D101580886008701A5
:100C28000108D200D3015208D300D201500852045F
:100C3800A20051085304A3000230D0005008D8077E
:100C4800580A860087010108D000D101580886009B
:100C580087010108D200D3015208D300D2015008FD
:100C68005204A60051085304A7000230D0005008CF
:100C7800D8075808860087010108D000D10150081C
:100C8800A4005108A5000130D0005008D807580822
:100C9800860087010108D000D1015008D100D00199
:100CA8005008A4045108A504DF30F7000030F8000C
:100CB8000630D0005008F9008D31FA2585317808C2
:100CC8002000D501D5077708D401D4072508550693
:100CD800031D702E240854060319742ED701812E83
:100CE80021005E0820003906031D7D2ED701D70A92
:100CF800812E0230D0005008D700570808008B1307
:100D08002000F21D8F2EF21123006608A400670848
:100D1800A600E601E7018B178B132000721E9C2E9C
:100D2800721223006808AA006908AB00E801E9010B
:100D38008B178B132000F21EA92EF21223006A08CB
:100D4800B0006B08B100EA01EB018B178B13200090
:100D5800721FB62E721323006C08B6006D08B70018
:100D6800EC01ED018B138B172000F21FC32EF21339
:100D780023006E08BC006F08BD00EE01EF018B1761
:100D880023008B136008E0018B17A3070030A23DF6
:100D9800A13DA03D8B136108E1018B17A907003025
:100DA800A83DA73DA63D8B136208E2018B17AF074C
:100DB8000030AE3DAD3DAC3D8B136308E3018B17AE
:100DC800B5070030B43DB33DB23D8B136408E40170
:100DD8008B17BB070030BA3DB93DB83D200008006D
:100DE8002000CF007808FA007708F900FA36F90CE5
:100DF800FA36F90C7908FB007B08CD00770803392F
:100E0800F9007908CE00CE0EF030CE050C30F9008E
:100E18007908CE044F08D43E860087010108073AB6
:100E28000319182F00300800CF08031D252F2100B3
:100E38008D1120004E082500930020004D08250044
:100E4800422F20004F08033A031D342F21000D13B1
:100E580020004E0825009A0020004D082500522F3A
:100E680020004F08083A031D442F21008C11200050
:100E78004E082600930020004D0826009100582FA8
:100E880020004F08093A031D542F21000C1220009E
:100E98004E0826009A0020004D0826009800582F7A
:100EA8002000AE010030080020004F35C03E86000B
:100EB80087017708C03F7808C13F013008008B12CE
:100EC800F701200033088A3155228731FF30FB00B3
:100ED8007B082000B5002A3024004F02031CC02FD5
:100EE8002000C4010230FB007B08AF00B101CE0135
:100EF80005304E020318B52FCD0108304D020318F6
:100F08009D2F0310C40D2F08AF0A203E8600023023
:100F180087006F300102031C952F0130FB007B080E
:100F2800C4070130FB007B08CD0708304D02031CC5
:100F3800862F04304E020318AD2F4408FB007B08AF
:100F4800B1074408FB004E08473E860087017B082E
:100F580081000130FB007B08CE0705304E02031CE0
:100F6800802F31084406031DC02FB501B50A633030
:100F7800FB007B08B20008002000BE08031DCC2F30
:100F88000130FB007B08BE07AA01AB01B2010800D3
:100F98006330FB007B08B2000800FA007A08013EC3
:100FA80088310A008731F7007708F8007A080C3E84
:100FB80088310A008731F7007708F90005307A028E
:100FC8000318F12F7808F700770821008D047908B5
:100FD800F700770823008D0508007808F7007708E0
:100FE80021008C047908F700770823008C05080095
:040FF80080343E34CF
:101000000034083402341034403480340134023463
:101010000434083410340034F734FD34EF34BF3472
:101020007F34FE34FD34FB34F734EF34FF340934BD
:101030000B340834053406340034013402340334EC
:02104000043476
:101050008B132000BB01BC018B17080064008001CA
:101060000131890B2F28003420003B083C0600305A
:10107000031D0130080020003308893113212000AE
:10108000B201B20A0800F700073028009E00770876
:101090009D009C01200093110800F70005302800F6
:1010A0009E0077089D009C012000931108002100FC
:1010B0005E08F70077082400A0002000380824000C
:1010C000A10008008B120B11FF302000CB00FF3075
:1010D000CC00341E080088318A200800F700770809
:1010E000D43E860087010108B839031979280130F8
:1010F00008000030080020003308893113218831AE
:10110000F701200033088C31442488313F30883186
:10111000432008008B12F701200033088A31552242
:1011200088316330FB007B082000B200330889312E
:101130002C210800FA00F9017A1CA2287708F8008F
:101140007808F9070310F70D0310FA0CFA08031DCD
:101150009C2879080800220097161712FC302100FD
:101160009E051D308C31F72478082000D101D1076D
:101170007708D001D007080022001708FC39023890
:101180009700FC3021009E051F308C31F724780831
:101190002000D101D1077708D001D0070800200036
:1011A000D60088315720883101302400A200200069
:1011B00056082400A30004302000D0000030D100E5
:1011C0008C310B2408002000D7008831572088314B
:1011D000803020003804D60056082400A1002000EA
:1011E00057082400A20003302000D0000030D100B6
:1011F0008C310B240800FA00640023009518FC28A9
:101200007A08F700F80177089100780892003F30DB
:10121000F90079089505151403101518031400300A
:10122000093D13080800F80078080C3E88310A00D0
:101230008931F7007708F90005307802031826296C
:101240007908F700770821008D0508007908F70074
:10125000770821008C050800F8007808013E8831E5
:101260000A008931F7007708F90005307802031881
:101270003F297908F700770821008D0408007908D4
:10128000F700770821008C04080088313420893168
:10129000003A0319452920003C08203E8600013011
:1012A00087000108F7007708F8000130F700770899
:1012B000BC0720303C020318BC017808080020005D
:1012C0003208623A031908003208323A031D6B29CA
:1012D00087316327080020003208633A03190800A9
:1012E0003208013A031D77298D31372508008B31EB
:1012F0009F230800F9007908013E88310A008931EE
:10130000F7007708FA000530790203188A292000CF
:101310000D088C2920000C087A05F7007708F800E2
:10132000F808031D952900300800013008008831B5
:101330005720893102302400A20020005708D9002C
:101340005608D8005908D800D90158082400A3002D
:10135000200056082400A40005302000D0000030F2
:10136000D1008C310B2408002000330889312C2156
:101370008931B43088314D2089312000931DBD2939
:10138000330889317A218931FB007B0C73120318F1
:101390007316731ECD290030080033308831432086
:1013A00001300800D430FB007B082000CD00CE01C6
:1013B0000B304E02031808004D0886008701010813
:1013C000FB007B08F7004E088A3132228931013058
:1013D000FB007B082000CD070130FB007B08CE0717
:1013E000D829F9000530790203180D2A7708031966
:1013F000032A7908013E88310A008931F80078080B
:1014000024008D04080079080C3E88310A008A31D6
:10141000F800780824008D0508002000AE01AE0A0F
:101420000800F8007808F70077082000BF07360AA0
:10143000F7007708F900203079020318F9017908DC
:101440003A0603191F2A7808F7003608A03E8600DE
:101450008701770881007908F7007708B600210036
:1014600011160800FA0023009518332A7A08F800AC
:10147000F9017808910079089200770893003F30CD
:10148000F80078089505200003108B1B03148B13BC
:101490002300151555309600AA30960095141511A5
:1014A0002000031C08008B170800FA0005307A02A0
:1014B00003180800F708031D6B2A7A080C3E8831D0
:1014C0000A008A31F8007808F9008B1379082700A0
:1014D00095058B1708007A08013E88310A008A3189
:1014E000F8007808F9008B137908270095048B170A
:1014F00008000030200023020A30031922020318DA
:101500009D2A0030230205300319220203188A2A7B
:101510000D088B2A0C08D8005808D9002208013E73
:1015200088310A008A31D8005808D9050030D90816
:10153000031D01308831CF20080002308831E320BC
:1015400008002000B208031DA82A8B316F23080071
:1015500020003208013A031D0800731D0800C7016E
:101560002D08F7007708C8002C08F7007708C90095
:101570004508F7007708CA00AC01AD01C50163302A
:10158000F7007708B200B501B50A9E132100951245
:101590008B1208002000BE010130F7007708B30766
:1015A0000A3033020318B3013308D43E86008701A2
:1015B0000108F7007708B400B201B501AA01AB0138
:1015C0008B127313B4197317F801063078020318DD
:1015D00008007808473E8600870181010130F70046
:1015E0007708F807E52AFA007A08D43E86008701D2
:1015F0000108F7007708F8007A080C3E88310A00E5
:101600008B31F7007708F90005307A020318122BA6
:101610007908F700770820008D0521008D0523004B
:101620008D0508007908F700770820008C05210057
:101630008C0523008C050800883157208B31200051
:101640002308D7002208D6005708D600D70156082D
:101650002400A200200022082400A3002000270864
:10166000D7002608D6005708D600D7015608240010
:10167000A400200026082400A50006302000D00089
:101680000030D1008C310B2408002000CD010A303D
:101690004D02031808004D08D43E8600870101085A
:1016A000103A03195B2B4D08D43E860087010108D0
:1016B000113A031D602BF7014D088A3155228B31F9
:1016C0002000B20121005408FB007B082000B40078
:1016D000B301F0010130FB007B08CD07472B200050
:1016E000B501B50AB201B20A3308173E88310A00C3
:1016F0008B319F009E138B12AC01AD019501F4104C
:10170000741073113408083A031D882B8130952B0F
:101710003408093A031D8E2B8530952B34080A3A7C
:10172000031D942B8930952B8D309E002030210095
:10173000950095168B127317F4147311080003307B
:1017400020002B02E93003192A02031C0800330889
:101750000C3E88310A008B31F7007708F8008B13B4
:101760007808F7007708270095057808F7007708CC
:1017700096058B178B137808F700770821008D05E5
:101780007808F700770820008D058B17B201B20AA0
:101790002830F7007708AF00C401B0010230210003
:1017A00095002000950108002000D500AE015508E5
:1017B000D43E860087010108D2005208D4000430CC
:1017C00054020318F72B55088C317F248B312000ED
:1017D0005508173E88310A008B318C31F724780880
:1017E0002000D101D1077708D001D00708000730C9
:1017F00054020318062C550889317A212000D200A2
:10180000D3015208D0005308D1000800FF30D000A7
:10181000FF30D10008002030F7000230F80020002F
:101820005008D2005208F9008D31FA258C31780821
:101830002000D401D4077708D301D307F3150D1482
:10184000D5015108803A803C031D282C50085502D0
:1018500003183A2C20005508203E860002308700ED
:1018600001088A3111228C3101302000D200520847
:10187000D507212C200053088A3111228C312000F9
:1018800054088A3111220800FB007B08013E883190
:101890000A008C31F8007808F9007B080C3E88318A
:1018A0000A008C31F8007808FA0005307B02031832
:1018B0006C2CF708031D642C8B137A08F800780849
:1018C00020008D058B1708008B137908F800780825
:1018D00020008D048B170800F708031D772C8B134D
:1018E0007A08F800780820008C058B1708008B1305
:1018F0007908F800780820008C048B170800F9009C
:101900007908D43E860087010108F7007708F800BF
:101910007908013E88310A008C31F7007708FA0017
:101920000530790203189F2C7A08F7007708210008
:101930008D047A08F700770823008D04A92C7A0813
:10194000F700770821008C047A08F7007708230055
:101950008C04220017087806FC3978069700F808EE
:10196000031DB62CFC3021009E0508000330210029
:101970009E0408002000CE00D001D00A0830CD001F
:101980004D08CF00CF08031908008B1333088931A5
:1019900013218C31F701200033088C3144248C3121
:1019A00020004E0850050319D92C000000008B17A9
:1019B000E12C8B17783088314D208C312000931D1D
:1019C000DE2C2000330889312C218C3120004E0878
:1019D00050050319F22C783088314D208C312000CD
:1019E000931DEF2C0310D00D0130CF02C22C20002C
:1019F000CD00210011132000111321001D141D140E
:101A000020004D08F900F90DF90D21001D08790697
:101A1000833979069D000B30FA006230F900F90B2A
:101A20000F2DFA0B0F2D000021009D149D18162D6F
:101A30000B30FA006230F900F90B1C2DFA0B1C2D4B
:101A4000000021009D149D18232D1C08F900790821
:101A50002000CF0021001B08F90079082000CE00EB
:101A60004F08F801F8074E08F701F70708002000B3
:101A70003308013E88310A008D31F7007708F900FC
:101A80007909F7007708F800B5016230F7007708A8
:101A9000B20000302B02043003192A02031C080094
:101AA0008B137808F7007708270096057908F70068
:101AB000770895048B177908F70077082000F00065
:101AC0002400CF018B15200095010B118B168B1371
:101AD00095017908F700770821008D048B17000025
:101AE00000000000000000000000000000000800EE
:101AF0000030200023020A30031922020318B52DFA
:101B00002208D43E860087010108063A031DB52D40
:101B10002208013E88310A008D31D8005808D900CA
:101B2000003023020530031922020318A52D2708CF
:101B30002604031DA02D5909D80058088D05B22D83
:101B40005908D80058088D04B22D27082604031D13
:101B5000AE2D5909D80058088C05B22D5908D80067
:101B600058088C048B311C23080002308831E32094
:101B7000080021005E0820003906031D0800C73058
:101B8000E4000000E40BC12DC52D00002000380842
:101B9000013A031DCE2D8A31792208002000380831
:101BA000023A031DD62D8A31792208002000380818
:101BB000033A031DDE2D8F3140270800200038082E
:101BC000043A031DE62D8F319927080020003808BC
:101BD000053A031DEE2D8D317825080020003808C8
:101BE000063A031DF62D8331A72308000130883102
:101BF000E3200800FF302000CE00FF30CF00F908BE
:101C00000319382E77088600780887004E080106E9
:101C1000CE004F08CF000130F7070030F83D083004
:101C2000FA007A08CD00CD080319332E4E1C242E5D
:101C30004F08FB004E08FA00FB36FA0C01307A061A
:101C4000CE00A0307B062D2E4F08FB004E08FA0078
:101C5000FB36FA0C7A08CE007B08CF000130CD02AB
:101C6000CD08031D162E0130F902F908031D022EBE
:101C70004F08F801F8074E08F701F70708002000A1
:101C8000CE01CE0ACF010830CD004D08D000D008DB
:101C900003198E2E3308893113218E31F70120006C
:101CA00033088C3144248E318B1300000000000077
:101CB000000000000000000000002000330889310F
:101CC0002C218E3100000000000000000000000008
:101CD00000000000013088314D208E312000931D1E
:101CE0006E2E330889317A218E31003A03197F2E06
:101CF0008B1720004E08CD004D08CF04802E8B1787
:101D0000783088314D208E312000931D842E0310B1
:101D1000CE0D0130D002D008031D4A2E4F08080016
:101D20002000DB00DA01DD015B08D43E860087017C
:101D30000108D8005808DC0008305C02031CB02EF3
:101D400010305C020318A62E0430AD2E5C08403A19
:101D5000031DAC2EDD01B02E0630D8005808DD0082
:101D6000DD08031DB72E02308831E32008008831DA
:101D700057208E3120005D082400A200063020008C
:101D8000D8005808F7005B0888319A208E3120006F
:101D9000D9005908DC0001308500A0305C078400C0
:101DA00002308700233086005D08DA008B130008BC
:101DB0001E00840ADA0BD72E8B1720005D08033E25
:101DC000D000003003180130D1008C310B24080002
:101DD0002000181808000130F7007708C0070B3002
:101DE0004002031CF82EC0012030EC004E30ED0004
:101DF00040080C3E88310A008E31F7007708C10098
:101E000040080A3A031D0A2FED1B08006C09F70071
:101E10006D091D2F4035C03E86008701403FFA0006
:101E2000413FFB007A08EC027B08ED3B7B087A041B
:101E3000031908007A09F7007B09F800F70A03196B
:101E4000F80A7708960078089700111021001114FD
:101E500020004008013E88310A008F31F7007708E2
:101E6000F900053040020318392F8B1379088D04CF
:101E70003C2F8B1379088C04200018148B17080052
:101E80002000DC0101302302003003192202031C70
:101E9000562F013023020B30031922020318562F4C
:101EA0002208D43E8600870101085E2FA03022065A
:101EB0002304031D642F21005E082000DA00DB01EB
:101EC0005A08DD005B08842FFA3022062304031D24
:101ED0006D2F0130DD000130842FFB3022062304FA
:101EE000031D762F3A30DD006530842F0030230249
:101EF0000A30031922020318862F2235C03E8600BD
:101F00008701403FDD00413FDE00882FDC01DC0A15
:101F10005C0803198F2F02308831E320080020006D
:101F20005E08D701D7075D08D601D607893197210A
:101F300008002000E101E201AE0100302302A030E0
:101F4000031922020318C82F2308DF002208DE002D
:101F50000430DF36DE0C890BA92F5E08E000600834
:101F6000E300630888316E208F31003A0319BD2FDA
:101F7000200063088E3190260800200063088B3112
:101F8000D4238F3120005108E201E2075008E92FE5
:101F900010302306031DCE2F00302206031DD92F3B
:101FA0008831BC208F3120005108E201E20750083F
:101FB000E92F10302306031DDF2F01302206031DF9
:101FC000EC2F8831AB208F3120005108E201E2076D
:101FD0005008E101E107EE2FAE01AE0A20002E0805
:101FE0000319F62F02308831E32008002000620830
:101FF000D701D7076108D601D60789319721080094
:020000040001F9
:04000E00FAEFFFFF07
:10E0000004000400040004000400040004000400F0
:10E01000040004007F00FF00FF00FF00FF00FF007E
:00000001FF
