:0400000081314229DF
:10000800803120007F08F6002100111C1A282000EA
:10001800111C1A281110053040020318162841082F
:100028008D05182841088C05200018108B190B1C09
:10003800B0281508C5002700160820007005031908
:100048003628950124004F08203E8600023087009C
:100058004F082D3C0318CF0A20004508810070097D
:10006800270096052700160815050319B028200053
:10007800C6002000C61D5428270096112000F11D37
:1000880054282300E00AF21D5028F2116608A40043
:100098006708A500E601E701E70A0319E60A200058
:1000A8002000C61C6B28270096102000711E6B28A4
:1000B8002300E10A721E672872126808AA006908FC
:1000C800AB00E801E901E90A0319E80A2000200069
:1000D800461E8228270016122000F11E82282300BF
:1000E800E20AF21E7E28F2126A08B0006B08B1001C
:1000F800EA01EB01EB0A0319EA0A20002000461F77
:100108009928270016132000711F99282300E30A55
:10011800721F952872136C08B6006D08B700EC01C1
:10012800ED01ED0A0319EC0A20002000C61FB028D3
:10013800270096132000F11FB0282300E40AF21FBD
:10014800AC28F2136E08BC006F08BD00EE01EF0189
:10015800EF0A0319EE0A20002100111CC228200012
:10016800111CC2281110053040020318BE2841088E
:100178008D05C02841088C05200018102000911C0E
:10018800F9289110F31FCF28F3167108F5007508A8
:10019800F2002000F31301302000AA070030AB3D25
:1001A8000130A8020030A93B29082804031DF928BA
:1001B8006430A8000030A900741CEA281508C5009E
:1001C80020009E138B1274107315F128F41CF1286B
:1001D800F41095010B118B1674140130C202C20879
:1001E800031DF9280A30C200F3172100111E19292E
:1001F8002000111E192936083A06031913293A084E
:10020800A03E86008701010823009A002000BA0A50
:10021800203020003A02031C1929BA0119293A088A
:100228003606031D1929210011128B1A0B1D2829C6
:100238000B11731F24292000AC0A031DAD0A2829BD
:100248008B1232302000B2002100911E3E2920007E
:10025800911E3E2920003B08BB0A203E8600013043
:100268008700230019088100200020003B08203A5D
:100278000319BB0176082000FF00090081314429D9
:10028800F301F40120308400003085002D308831DE
:100298002A208131A030840000308500493088311F
:1002A8002A208131203084000130850020308831B7
:1002B8002A2081318731FD278131ED008731FE27E2
:1002C800EE00200081316829F030210099000230C9
:1002D800950023008C018D01203020008C003F30D8
:1002E80024008C008B011D3021009700F31064005E
:1002F800D4302000E6006608E900EB010B306B0201
:1003080003189D296B088931342181312000E600CA
:10031800690886008701660881000130E6006608E2
:10032800E9070130E6006608EB070B306B02031C97
:1003380086293F3021008C00DE308D0020000D1012
:10034800803022009D0001309E00823023009E00F4
:100358009D011E119F151E12CF309B009C019E16F9
:100368009D171D1621001112200091121112230051
:100378001F121F102000B601BA01BB01BC018B1768
:100388000B172100911627009401950196018B15F2
:100398002000F001F101F31107309C007D309B0033
:1003A8009A0191106430A8000030A9000A30E600D4
:1003B8006608C200210091140B178B17E3309E00CA
:1003C80001309D0023008C018D01210011132000B4
:1003D8001113C230220097002000EC010A306C0291
:1003E8000318042A73146C088231BD22813101304C
:1003F8002000E6006608EC070A306C02031CF629A8
:100408007310073028009700553025009E00FF30F4
:100418002800960095012100931020009310883140
:10042800242081312000B701CB30E800ED30E7000F
:100438004C30E600E60B1E2AE70B1E2AE80B1E2AA4
:10044800252A8B31B02381312000EC010A306C025F
:1004580003183D2A6C35C03E860087010030C03F36
:10046800C13F0130E6006608EC070A306C02031C45
:100478002E2A0A30E6006608C0003030980099132A
:1004880011102100111020001810F31C6400F3193A
:100498004F2A20000D10F31D622A2100111AB32AD9
:1004A80009302000E7004E30E600E60B592AE70B3A
:1004B800592A000020000D10F311B32A883130208A
:1004C8008131003A0319B32A89317E218131200014
:1004D800E6003708DF3E86008701660881000130A4
:1004E800E6006608B70708303702031CB32A08304D
:1004F800E6006608B700DF308D31592581312000CC
:10050800E6006608EA006A08013A031D902A8E315F
:100518005F2681312000942A6A08023A031D962A30
:10052800B701B32AEC01EC0A08306C020318B12AAF
:100538006C08DF3E860087010108E6006C08FF3E74
:10054800DF3E86008701660881000130E600660804
:10055800EC0708306C02031C9C2A0130B702843176
:10056800962481318F314F27813186317826813128
:10057800492A2000D2005208D43E8600870101088B
:10058800D0005008D1008B31B023823106302000D2
:10059800D0005008F7005208883196208231A03EDA
:1005A8008600013087000030C03F0030C13FC23FA5
:1005B800C33F06302000D0005008F70052088831A9
:1005C80096208231043EA03E86000130870000302C
:1005D800C03FC13F0530200052020318FB2A5208D1
:1005E8000C3E88310A008231D0005008F105D2084B
:1005F800031D002B2500930120005208033A031D18
:10060800072B25009A0120005208083A031D0E2BDB
:100618002600930120005208093A031D152B2600D5
:100628009A010530200052020318262BF701F70A19
:1006380052088A315D228231F701200052088A313E
:10064800C122823120005235C03E86008701003029
:10065800C03FC13F043051020318402B05305202FD
:1006680003183B2BF70152088A315D2282312000A2
:1006780052088C31A5240800511B462B5108063A14
:10068800031D4A2B52088B315D23080020005108B6
:10069800073A031D572B0030F7000030F8005208C6
:1006A8008631E9260800D11F802BF70152088A31CC
:1006B8005D228231200052088B31DA238231F70122
:1006C800F70A200052088A31C12282312000D2085C
:1006D8000319F1155208013A031971165208023A22
:1006E8000319F1165208033A031971175208043A0C
:1006F800031D0800F1170800D119862B5108043A88
:10070800031D9D2BD11D8F2B05305202031C8F2BEF
:10071800AE01AE0A0800053052020318982BF70103
:1007280052088A315D228231200052088B31DA2347
:100738000800511EA62B05305202031C0800AE010A
:10074800AE0A080052088B31DA2308001030200066
:100758002306031DB12B02302206031DB62B8A3156
:10076800E5220800013020002306031DBD2BFF30C1
:100778002206031DCD2B56302706031DC52B7830C6
:100788002606031DC92B7314CA2B73108931CD217A
:100798000800AA3020002306031DD42B553022065A
:1007A800031DE92B12302706031DDC2B34302606E7
:1007B800031DE52BF3141130210097008931CD2159
:1007C800080002308931042108000130200023028A
:1007D800003003192202031C322C013023020A3094
:1007E800031922020318322C731C2F2C2208DA005A
:1007F8005A08DC00AE015C08D43E86008701010877
:10080800DA005A08DB002608DA005C08D43E8600C5
:1008180087015A0881005C088231BD22833120009B
:100828002E080319282C5B08DA005C08D43E8600E1
:1008380087015A0881005C088231BD228331023069
:100848008931042183312D2C8931CD2183318A319D
:100858003E22731408008931CD21080000302000A1
:1008680023020A300319220203187F2C2208D43EDF
:10087800860087010108DA005A08DB002708F8011A
:10088800F8072608F701F70722088631E926833199
:100898000038031D7C2C20005B08803A031D6B2C5C
:1008A80027082604031D7C2C0630DA005A08F700B6
:1008B8002208883196208331A03E860001308700C7
:1008C8000030C03F0030C13FC23FC33F7C2C2000F6
:1008D8005B08403A031D792C2235C03E860087010B
:1008E8002608C03F2708C13F7C2C8931E821080031
:1008F8008931CD210800A030200022062304031DE1
:10090800922C731C8F2C2608DA005A082100DE006E
:100918008A313E2283318931CD2108000230893164
:100928000421080020003208633A031D552DB5083C
:10093800031DA12C88315E20843106302000D200AE
:100948005208F7003308883196208431A03E2000F1
:10095800D5000130D6003508FF3A031DBC2C5508D8
:10096800860056088700FF30C03FFF30C13FCF2CBC
:10097800550886005608870081013508D2005508B9
:10098800013ED3000030563DD40053088600540879
:100998008700520881003408103A031DFC2C4708D0
:1009A800D2005508033ED3000030563DD40053080A
:1009B800860054088700520881004908D20055086B
:1009C800053ED3000030563DD40053088600540835
:1009D8008700520881005508860056088700423172
:1009E8008101550886005608870044318101122D7F
:1009F8003408113A031D122D550886005608870041
:100A080042314708C03F4808C13F5508860056088C
:100A1800870044314908C03F4A08C13FB41E442DED
:100A28004808D2005508023ED3000030563DD40095
:100A38005308860054088700520881004708D200EE
:100A48005508033ED3000030563DD40053088600B5
:100A58005408870052088100550886005608870008
:100A6800443181014B08D2005508053ED3000030BF
:100A7800563DD40053088600540887005208810068
:100A8800B41D522D55088600560887004708C03FF8
:100A98004808C13F4908C23F4A08C33F8B31342345
:100AA8000800341E5A2D8931B2210800B41E5F2D6A
:100AB800853167250800B41D642D8B310B23080090
:100AC8008B3134230800CA2D8831372008000930BB
:100AD8002000D1005108B200883177208531FA2DE5
:100AE8002000931D0800FA2D8A3120228531003814
:100AF800031DFA2DFF302000D1005108B5006330E6
:100B0800D1005108B2000800CC308D311C25853148
:100B1800FA2D44308D311C25853158302000A00035
:100B28000230A100FA3088313F208531FA2D931D1B
:100B380008000130A0020030A13B2108200403195D
:100B4800FA2DFA3088313F200800BE308D311C253F
:100B580085312000B001FA2D8E31A626853120007E
:100B6800D1003008473E86008701510881000130D6
:100B7800D1005108B00706303002031C080063306A
:100B8800D1005108B200B501B50A080020003208AA
:100B9800003A0319682D013A03196B2D0B3A031912
:100BA800742D013A0319782D073A0319742D013A67
:100BB8000319882D033A03198D2D013A03199B2D2A
:100BC8001F3A0319702D013A0319742D033A0319BA
:100BD800782D013A0319742D073A0319882D013A23
:100BE8000319A92D033A0319B02DFA2D013020005D
:100BF800D1005108B20708002000E101E201AE016E
:100C080000302302A0300319220203182F2E2308D4
:100C1800DF002208DE000430DF36DE0C890B102EE0
:100C28005E08E0006008E300630888316A208631C6
:100C3800003A0319242E200063088E31F726080095
:100C4800200063088731C627863120005108E20159
:100C5800E2075008612E10302306031D352E0030A0
:100C68002206031D402E8831CA20863120005108F3
:100C7800E201E2075008612E10302306031D462EBC
:100C880001302206031D512E8831A720863120000D
:100C98005108E201E2075008612E10302306031DB7
:100CA800572E02302206031D642E8B31862386318F
:100CB8007B082000E201E2077A08E101E107662EDD
:100CC800AE01AE0A20002E0803196E2E02308931BB
:100CD8000421080020006208D701D7076108D6015F
:100CE800D60789311C2108008B132000F21D842EA1
:100CF800F21123006608A4006708A600E601E701D0
:100D08008B178B132000721E912E72122300680815
:100D1800AA006908AB00E801E9018B178B132000D2
:100D2800F21E9E2EF21223006A08B0006B08B10072
:100D3800EA01EB018B178B132000721FAB2E721385
:100D480023006C08B6006D08B700EC01ED018B13A9
:100D58008B172000F21FB82EF21323006E08BC0078
:100D68006F08BD00EE01EF018B1723008B1360089D
:100D7800E0018B17A3070030A23DA13DA03D8B13D6
:100D88006108E1018B17A9070030A83DA73DA63DE2
:100D98008B136208E2018B17AF070030AE3DAD3D03
:100DA800AC3D8B136308E3018B17B5070030B43DE6
:100DB800B33DB23D8B136408E4018B17BB070030C9
:100DC800BA3DB93DB83D200008002000CF007808A2
:100DD800FA007708F900FA36F90CFA36F90C7908AE
:100DE800FB007B08CD0077080339F9007908CE00AD
:100DF800CE0EF030CE050C30F9007908CE044F083D
:100E0800D43E860087010108073A03190D2F0030E8
:100E18000800CF08031D1A2F21008D1120004E084D
:100E28002500930020004D082500372F20004F088B
:100E3800033A031D292F21000D1320004E08250019
:100E48009A0020004D082500472F20004F08083A37
:100E5800031D392F21008C1120004E082600930015
:100E680020004D08260091004D2F20004F08093A18
:100E7800031D492F21000C1220004E0826009A005D
:100E880020004D08260098004D2F2000AE010030AC
:100E9800080020004F35C03E860087017708C03F14
:100EA8007808C13F013008008B12F7012000330891
:100EB8008A31C1228731FF30FB007B082000B50052
:100EC8002A3024004F02031CB52F2000C401023031
:100ED800FB007B08AF00B101CE0105304E020318BC
:100EE800AA2FCD0108304D020318922F0310C40D0C
:100EF8002F08AF0A203E8600023087006F300102BB
:100F0800031C8A2F0130FB007B08C4070130FB005B
:100F18007B08CD0708304D02031C7B2F04304E029E
:100F28000318A22F4408FB007B08B1074408FB0004
:100F38004E08473E860087017B0881000130FB0090
:100F48007B08CE0705304E02031C752F3108440676
:100F5800031DB52FB501B50A6330FB007B08B2004D
:100F680008002000BE08031DC12F0130FB007B08CC
:100F7800BE07AA01AB01B20108006330FB007B0881
:100F8800B20008002000D500AE015508D43E860006
:100F980087010108D2005208D40004305402031813
:100FA800E92F55088C31A524873120005508173EB4
:100FB80088310A0087318D31992578082000D101C0
:100FC800D1077708D001D00708000730540203186A
:100FD800F82F55088A3103222000D200D301520885
:100FE800D0005308D1000800FF30D000FF30D100F6
:060FF800080080343E34C5
:101000000034083402341034403480340134023463
:101010000434083410340034F734FD34EF34BF3472
:101020007F34FE34FD34FB34F734EF34FF340934BD
:101030000B340834053406340034013402340334EC
:02104000043476
:101048008B132000BB01BC018B17080064008001D2
:101058000131890B2B28003420003B083C06003066
:10106800031D013008002000330889314C2120007D
:10107800B201B20A0800F700073028009E0077087E
:101088009D009C01200093110800F70005302800FE
:101098009E0077089D009C01200093110800210004
:1010A8005E08F70077082400A00020003808240014
:1010B800A10008008B120B11FF302000CB00FF307D
:1010C800CC00341E0800883186200800F700770815
:1010D800D43E860087010108B83903197528013004
:1010E8000800003008002000330889314C2188317D
:1010F800F701200033088C316A2488313F30883169
:101108003F2008008B12F701200033088A31C122E2
:1011180088316330FB007B082000B2003308893136
:1011280065210800FA00F9017A1C9E287708F80062
:101138007808F9070310F70D0310FA0CFA08031DD5
:10114800982879080800220097161712FC30210009
:101158009E051D308D31992578082000D101D107D1
:101168007708D001D00708002000CF004F08D43EF0
:10117800860087010108063A031D08004D08CE00C5
:101188004E08F7004F088C316A240800220017081F
:10119800FC3902389700FC3021009E051F308D3144
:1011A800992578082000D101D1077708D001D00708
:1011B80008000030200023020A3003192202031815
:1011C800EC2822088931982188318831F0200800DC
:1011D80002308931042108002000F50088315320AD
:1011E800883101302400A200200075082400A300E3
:1011F80004302000D0000030D1008C31E0240800F9
:101208002000D700883153208931803020003804ED
:10121800D60056082400A100200057082400A20088
:1012280003302000D0000030D1008C31E0240800C9
:101238002000D60088315320893102302400A200D2
:10124800200057082400A300200056082400A4000A
:1012580005302000D0000030D1008C31E024080097
:10126800FA0064002300951835297A08F700F80178
:1012780077089100780892003F30F90079089505C1
:1012880015140310151803140030093D130808003D
:10129800F80078080C3E88310A008931F700770891
:1012A800F9000530780203185F297908F7007708F4
:1012B80021008D0508007908F700770821008C05C2
:1012C8000800F8007808013E88310A008931F700E3
:1012D8007708F90005307802031878297908F700AB
:1012E800770821008D0408007908F70077082100A5
:1012F8008C040800883130208931003A03197E298E
:1013080020003C08203E8600013087000108F700D5
:101318007708F8000130F7007708BC0720303C0256
:101328000318BC0178080800F90005307902031891
:10133800A02920000D08A22920000C08F700770832
:10134800F8007908013E88310A008931F7007708EA
:10135800F8050030F808031D0130080020003208A5
:10136800623A031908003208323A031DBE29873150
:101378005827080020003208633A03190800320889
:10138800013A031DCA298D31D92508008C3135242D
:101398000800883153208931200023082400A20046
:1013A800200022082400A300200027082400A4000D
:1013B800200026082400A50006302000D0000030B8
:1013C800D1008C31E02408000030200023020A30CC
:1013D800031922020318FF29270826040030031DD9
:1013E8000130D8005808CD0022088831B82089314A
:1013F8008931CD2108000230893104210800F90023
:101408007908013E88310A008A31F7007708FA0026
:10141800053079020318132A20000D08152A200028
:101428000C087A05F7007708F800F808031D1E2A4B
:101438000030080001300800200033088931652198
:101448008A31B430883149208A312000931D292AF5
:1014580033088A3103228A31FB007B0C731203188C
:101468007316731E392A00300800333088313F2044
:1014780001300800D430FB007B082000CD00CE01ED
:101488000B304E02031808004D088600870101083A
:10149800FB007B08F7004E088A319E228A31013012
:1014A800FB007B082000CD070130FB007B08CE073E
:1014B800442AF900053079020318792A77080319B4
:1014C8006F2A7908013E88310A008A31F8007808C5
:1014D80024008D04080079080C3E88310A008A31FE
:1014E800F800780824008D0508002000AE01AE0A37
:1014F8000800F8007808F70077082000BF07360AC8
:10150800F7007708F900203079020318F901790803
:101518003A0603198B2A7808F7003608A03E860099
:101528008701770881007908F7007708B60021005D
:1015380011160800FA00230095189F2A7A08F80067
:10154800F9017808910079089200770893003F30F4
:10155800F80078089505200003108B1B03148B13E3
:101568002300151555309600AA30960095141511CC
:101578002000031C08008B170800FA0005307A02C7
:1015880003180800F708031DD72A7A080C3E88318B
:101598000A008A31F8007808F9008B1379082700C7
:1015A80095058B1708007A08013E88310A008A31B0
:1015B800F8007808F9008B137908270095048B1731
:1015C800080020002708D801D8072608D701D70720
:1015D800D9010A3059020318082B57080139D600D7
:1015E8005608CD0059088831B8208A3101302000CA
:1015F800D836D70C890BFC2A0130D6005608D907F3
:101608000A305902031CF12A8931CD210800200033
:10161800B208031D122B8C31052408002000320863
:10162800013A031D0800731D0800C7012D08F700C3
:101638007708C8002C08F7007708C9004508F700A4
:101648007708CA00AC01AD01C5016330F70077081F
:10165800B200B501B50A9E13210095128B1208003D
:101668002000BE010130F7007708B3070A303302C3
:101678000318B3013308D43E860087010108F70038
:101688007708B400B201B501AA01AB018B1273133C
:10169800B4197317F801063078020318080078089F
:1016A800473E8600870181010130F7007708F80777
:1016B8004F2BFA007A08D43E860087010108F7000C
:1016C8007708F8007A080C3E88310A008B31F70059
:1016D8007708F90005307A0203187C2B7908F7009F
:1016E800770820008D0521008D0523008D05080051
:1016F8007908F700770820008C0521008C05230065
:101708008C0508002000CF01D001D1010A30510218
:101718000318A92B0130CF35D00D890B8F2B510A17
:10172800FF3A013E0A3E893198218B312000CD00D5
:10173800CE014D08CF044E08D0040130CD004D082D
:10174800D1070A305102031C8E2B5008FB01FB07FE
:101758004F08FA01FA0708002000CD010A304D02AF
:10176800031808004D08D43E860087010108103A86
:101778000319C62B4D08D43E860087010108113A8B
:10178800031DCB2BF7014D088A31C1228B31200074
:10179800B20121005408FB007B082000B400B3010B
:1017A800F0010130FB007B08CD07B22BFA007A0864
:1017B800013E88310A008B31F7007708F8007A0873
:1017C8000C3E88310A008B31F7007708F9000530A4
:1017D8007A020318FA2B7808F700770821008D049D
:1017E8007908F700770823008D0508007808F700C6
:1017F800770821008C047908F700770823008C0506
:1018080008002000B501B50AB201B20A3308173E34
:1018180088310A008C319F009E138B12AC01AD01F8
:101828009501F410741073113408083A031D1E2C26
:1018380081302B2C3408093A031D242C85302B2C9D
:1018480034080A3A031D2A2C89302B2C8D309E002F
:1018580020302100950095168B127317F41473111C
:101868000800033020002B02E93003192A02031C68
:10187800080033080C3E88310A008C31F7007708DD
:10188800F8008B137808F700770827009505780883
:10189800F700770896058B178B137808F7007708F9
:1018A80021008D057808F700770820008D058B1733
:1018B800B201B20A2830F7007708AF00C401B001BE
:1018C800023021009500200095010800FB007B08EC
:1018D800013E88310A008C31F8007808F9007B084D
:1018E8000C3E88310A008C31F8007808FA0005307F
:1018F8007B020318922CF708031D8A2C8B137A0895
:10190800F800780820008D058B1708008B137908DC
:10191800F800780820008D048B170800F708031DCD
:101928009D2C8B137A08F800780820008C058B17FB
:1019380008008B137908F800780820008C048B17AE
:101948000800F9007908D43E860087010108F700ED
:101958007708F8007908013E88310A008C31F700D1
:101968007708FA00053079020318C52C7A08F700C1
:10197800770821008D047A08F700770823008D0482
:10198800CF2C7A08F700770821008C047A08F70032
:10199800770823008C04220017087806FC3978069B
:1019A8009700F808031DDC2CFC3021009E05080078
:1019B800033021009E0408002000B908031908001C
:1019C8002030F7000230F8005008D2005208F90021
:1019D8008E311A268C3178082000D401D407770874
:1019E800D301D307F3150D14D5015108803A803C73
:1019F800031D002D500855020318122D200055080C
:101A0800203E86000230870001088A317D228C3111
:101A180001302000D2005208D507F92C20005308C5
:101A28008A317D228C31200054088A317D220800B9
:101A38002000CE00D001D00A0830CD004D08CF00DC
:101A4800CF08031908008B13330889314C218D31D5
:101A5800F701200033088C316A248D3120004E08AC
:101A6800500503193B2D000000008B17432D8B17E1
:101A78007830883149208D312000931D402D200079
:101A88003308893165218D3120004E08500503192E
:101A9800542D7830883149208D312000931D512DE7
:101AA8000310D00D0130CF02242D860087011600C7
:101AB800B9001600B8001600A3001600A200160010
:101AC800A7001600A6001600A4001600A500DF3027
:101AD800F7000030F80006302000D0005008F90068
:101AE8008E311A268D3178082000D201D207770866
:101AF800D101D10725085206031D842D240851065B
:101B08000319882DD301972D21005E08200039067E
:101B1800031DB908031D932DD301D30A972D023055
:101B2800D0005008D300530808002000CD00210041
:101B380011132000111321001D141D1420004D083D
:101B4800F900F90DF90D21001D0879068339790688
:101B58009D000B30FA006230F900F90BB12DFA0B39
:101B6800B12D000021009D149D18B82D0B30FA00EE
:101B78006230F900F90BBE2DFA0BBE2D00002100D2
:101B88009D149D18C52D1C08F90079082000CF0068
:101B980021001B08F90079082000CE004F08F80141
:101BA800F8074E08F701F707080020003308013E40
:101BB80088310A008D31F7007708F9007909F700B4
:101BC8007708F800B5016230F7007708B2000030F6
:101BD8002B02043003192A02031C08008B1378080F
:101BE800F7007708270096057908F7007708950425
:101BF8008B177908F70077082000F0002400CF0140
:101C08008B15200095010B118B168B139501790804
:101C1800F700770821008D048B17000000000000F2
:101C2800000000000000000000000800FF30200055
:101C3800CE00FF30CF00F9080319582E7708860028
:101C4800780887004E080106CE004F08CF00013003
:101C5800F7070030F83D0830FA007A08CD00CD08C3
:101C68000319532E4E1C442E4F08FB004E08FA0051
:101C7800FB36FA0C01307A06CE00A0307B064D2EDA
:101C88004F08FB004E08FA00FB36FA0C7A08CE0023
:101C98007B08CF000130CD02CD08031D362E013060
:101CA800F902F908031D222E4F08F801F8074E081B
:101CB800F701F7070800200039080319692E2100E9
:101CC8005E0820003906031D08000530E5002630AF
:101CD800E400E40B6D2EE50B6D2E000020003808A3
:101CE800013A031D7A2E8831DD20080020003808CB
:101CF800023A031D822E8831DD20080020003808B2
:101D0800033A031D8A2E8F31A727080020003808C0
:101D1800043A031D922E8631002608002000380858
:101D2800053A031D9A2E8931E82108002000380859
:101D3800063A031DA22E8331AA23080001308931F7
:101D4800042108002000CE01CE0ACF010830CD00C2
:101D58004D08D000D0080319F52E330889314C21DD
:101D68008E31F701200033088C316A248E318B13B1
:101D7800000000000000000000000000000000005B
:101D880020003308893165218E31000000000000F1
:101D980000000000000000000000013088314920E8
:101DA8008E312000931DD52E33088A3103228E31BF
:101DB800003A0319E62E8B1720004E08CD004D0877
:101DC800CF04E72E8B177830883149208E312000D8
:101DD800931DEB2E0310CE0D0130D002D008031D49
:101DE800B12E4F0808002000DB00DA01DD015B0896
:101DF800D43E860087010108D8005808DC00083066
:101E08005C02031C172F10305C0203180D2F0430DE
:101E1800142F5C08403A031D132FDD01172F0630DD
:101E2800D8005808DD00DD08031D1E2F0230893157
:101E380004210800883153208E3120005D082400D9
:101E4800A20006302000D8005808F7005B08883147
:101E580096208E312000D9005908DC000130850019
:101E6800A0305C07840002308700233086005D08BC
:101E7800DA008B1300081E00840ADA0B3E2F8B173A
:101E880020005D08033ED000003003180130D10067
:101E98008C31E02408002000181808000130F700F1
:101EA8007708C0070B304002031C5F2FC0012030A9
:101EB800ED004E30EE0040080C3E88310A008F31AC
:101EC800F7007708C10040080A3A031D712FEE1B7E
:101ED80008006D09F7006E09842F4035C03E860062
:101EE8008701403FFA00413FFB007A08ED027B087A
:101EF800EE3B7B087A04031908007A09F7007B098E
:101F0800F800F70A0319F80A770896007808970086
:101F180011102100111420004008013E88310A00E8
:101F28008F31F7007708F900053040020318A02F19
:101F38008B1379088D04A32F8B1379088C04200048
:101F480018148B1708002000DA0101302302003032
:101F580003192202031CBD2F013023020B30031981
:101F680022020318BD2F2208D43E860087010108EB
:101F7800C52FA03022062304031DCB2F21005E08A5
:101F88002000D800D9015808DB005908EB2FFA3097
:101F980022062304031DD42F0330DB000130EB2F6E
:101FA800FB3022062304031DDD2F3A30DB006530A9
:101FB800EB2F003023020A30031922020318ED2FF9
:101FC8002235C03E86008701403FDB00413FDC00F0
:101FD800EF2FDA01DA0A5A080319F62F023089318D
:101FE8000421080020005C08D701D7075B08D60148
:081FF800D60789311C21080005
:020000040001F9
:04000E00FCEFFFFE06
:10E0000006000600060006000600060006000600E0
:10E01000040004007F00FF00FF00FF00FF00FF007E
:00000001FF
