:100000008131452980343E347E14803120007F08C0
:10001000F6002100111C1B282000111C1B281110A8
:10002000053046020318172847088D051928470888
:100030008C05200018108B190B1CB1281508CB005B
:1000400027001608200070050319372895012400A1
:100050004F08203E8600023087004F082D3C0318D1
:10006000CF0A20004B088100700927009605270061
:10007000160815050319B1282000CC002000CC1D5E
:100080005528270096112000F11D55282300E00A6D
:10009000F21D5128F2116608A4006708A500E601C8
:1000A000E701E70A0319E60A20002000CC1C6C28AF
:1000B000270096102000711E6C282300E10A721E92
:1000C000682872126808AA006908AB00E801E90113
:1000D000E90A0319E80A200020004C1E83282700A3
:1000E00016122000F11E83282300E20AF21E7F2848
:1000F000F2126A08B0006B08B100EA01EB01EB0AEA
:100100000319EA0A200020004C1F9A282700161322
:100110002000711F9A282300E30A721F9628721389
:100120006C08B6006D08B700EC01ED01ED0A03198B
:10013000EC0A20002000CC1FB128270096132000D5
:10014000F11FB1282300E40AF21FAD28F2136E0854
:10015000BC006F08BD00EE01EF01EF0A0319EE0AC3
:1001600020002100111CC3282000111CC3281110DD
:10017000053046020318BF2847088D05C1284708E7
:100180008C05200018102000911CFA289110F31FF4
:10019000D028F3167108F5007508F2002000F3135B
:1001A00001302000B0070030B13D0130AE02003018
:1001B000AF3B2E082F04031DFA286430AE00003038
:1001C000AF00741CEB281508CB0020009E138B1287
:1001D00074107315F228F41CF228F41095010B1119
:1001E0008B1674140130C8024808031DFA280A301F
:1001F000C800F3172100111E1B292000111E1B2906
:100200003C084006031915294008403E860001308D
:100210008700010823009A002000C00A2030200037
:100220004002031C1B29C0011B2940083C06031D7A
:100230001B29210011128B1A0B1D2A290B11731F68
:1002400026292000B20A031DB30A2A298B12323054
:100250002000B8002100911E40292000911E402955
:1002600020004108C10A203E86000130870023009B
:100270001908810020002030200041060319C10127
:1002800076082000FF007E10090081314729F30124
:10029000F40120308400003085002D308831482062
:1002A0008131A030840000308500493088314820F9
:1002B0008131203084000130850040308831482071
:1002C0008131803102208131EB0080310320EC004C
:1002D0007E10200081316C2902302100950023001E
:1002E0008C018D01203020008C003F3024008C00D8
:1002F0008B011D3021009700F3106400D4302000E2
:10030000E4006408E700E9010B30690203189F2943
:10031000690889315E2181312000E4006708860088
:100320008701640881000130E4006408E7070130B8
:10033000E4006408E9070B306902031C88293F3098
:1003400021008C00DE308D0020000D108030220056
:100350009D0001309E00823023009E009D011E15ED
:100360009F151E128A309B009C019E169D171D161C
:100370002100111220009112111223001F121F10D0
:100380002000BC01C001C101C2018B170B17210065
:10039000911627009401950196018B152000F0011C
:1003A000F101F31107309C007D309B009A01911000
:1003B0006430AE000030AF000A30E4006408C800CA
:1003C000210091140B178B17E3309E0001309D0024
:1003D00023008C018D012100111320001113C23064
:1003E000220097002000EA010A306A020318062A58
:1003F00073146A088231BD22813101302000E4008B
:100400006408EA070A306A02031CF82973100730EF
:1004100028009700553025009E00FF3028009600E8
:1004200095012100931020009310883142208131E2
:100430002000BD01CB30E600ED30E5004C30E4009B
:10044000E40B202AE50B202AE60B202A00328B3110
:10045000AF2381312000EA010A306A0203183F2AE3
:100460006A35A03E860087010030C03FC13F0130A1
:10047000E4006408EA070A306A02031C302A0A30E2
:10048000E4006408C6003030980099131110210070
:10049000111020001810F31C6400F319512A2000D9
:1004A0000D10F31D632A2100111AB32AE430200035
:1004B000E40000320032E40B592A00320000200030
:1004C0000D10F311B32A883156208131003A0319F7
:1004D000B32A8931902181312000E4003D08DF3EBC
:1004E00086008701640881000130E4006408BD07CC
:1004F00008303D02031CB32A0830E4006408BD0044
:10050000DF308C31D12481312000E4006408E80020
:100510006803031D902A8E31C62681312000942A5B
:1005200002306806031D962ABD01B32AEA01EA0AD1
:1005300008306A020318B12A6A08DF3E8600870184
:100540000108E4006A08FF3EDF3E86008701640878
:1005500081000130E4006408EA0708306A02031CE5
:100560009C2A0130BD02843195248131873198273E
:1005700081318531DF2581314B2A2000D20052089C
:10058000D43E860087010108D0005008D1008B318D
:10059000AF23823106302000D0005008F700520807
:1005A0008831D6208231A03E86000130870000309D
:1005B000C03F0030C13FC23FC33F06302000D000E3
:1005C0005008F70052088831D6208231043EA03E00
:1005D0008600013087000030C03FC13F0530200059
:1005E00052020318FE2A5208013E84008830031884
:1005F000013E85000008D0005008F1055208031D97
:10060000032B25009301033020005206031D0A2B03
:1006100025009A01083020005206031D112B2600E8
:100620009301093020005206031D182B26009A0161
:100630000530200052020318292BF701F70A52084F
:100640008A31E5228231F701200052088B3185235F
:10065000823120005235A03E860087010030C03F25
:10066000C13F043051020318432B053052020318D6
:100670003E2BF70152088A31E522823120005208D0
:100680008D3182250800511B492B06305106031D70
:100690004D2B52088B31D92308000730200051061A
:1006A000031D592B0030F700F80052088631502600
:1006B0000800D11F832B5118622BF70152088A3191
:1006C000E5228231200052088C3135248231F70135
:1006D000F70A200052088B3185238231200052080E
:1006E0000319F1155203031971160230520603194A
:1006F000F116033052060319711704305206031D18
:100700000800F1170800D119892B04305106031D88
:10071000A02BD11D922B05305202031C922BB40149
:10072000B40A08000530520203189B2BF701520847
:100730008A31E5228231200052088C3135240800AC
:10074000511EA92B05305202031C0800B401B40A43
:10075000080052088C313524080002302000280699
:10076000103003192906031DB82B8A31C122080055
:100770002000280A031DCC2B2903031DCC2B783025
:100780002C06563003192D06031DC82B7314C92BD4
:100790007310893147210800553020002806AA30FF
:1007A00003192906031DE62B34302C0612300319D9
:1007B0002D06031DE22BF31411302100970089311F
:1007C0004721080002308931312108000130200022
:1007D0002902003003192802031C2F2C01302902A2
:1007E0000A300319280203182F2C731C2C2C2808FC
:1007F000D9005908DB00B4015B08D43E86008701AC
:100800000108D9005908DA002C08D9005B08D43E49
:1008100086008701590881005B088231BD2283313F
:10082000200034080319252C5A08D9005B08D43E4F
:1008300086008701590881005B088231BD2283311F
:1008400002308931312183312A2C8931472183318A
:100850008A311D22731408008931472108000030B5
:10086000200029020A300319280203187E2C2808C8
:10087000D43E860087010108D9005908DA002D0806
:10088000F8002C08F7002808863150268331003AFA
:10089000031D7B2C803020005A060319532C813015
:1008A0005A06031D6A2C2C082D04031D7B2C0630D0
:1008B000D9005908F70028088831D6208331A03E96
:1008C0008600013087000030C03F0030C13FC23F8A
:1008D000C33F7B2C403020005A06031D782C28355E
:1008E000A03E860087012C08C03F2D08C13F7B2C0D
:1008F0008931E2210800893147210800A030200019
:1009000028062904031D912C731C8E2C2C08D90059
:1009100059082100DE008A311D22833189314721A7
:100920000800023089313121080063302000380688
:10093000031D342D3B08031DA02C88317320843106
:1009400006302000D2005208F70039088831D6203E
:100950008431A03E2000D3005308D4003B0A031D7D
:10096000BA2C5408860001308700FF30C03FFF30AA
:10097000C13FC72C540886000130870081013B0825
:10098000D200540A860001308700520881001030DE
:100990003A06031DEA2C2008D2005408033E8600C4
:1009A00001308700520881002208D2005408053E19
:1009B000860001308700520881005408023E8600FC
:1009C0000130870081015408043E86000130870011
:1009D0008101002D11303A06031D002D5408023EFE
:1009E0008600013087002008C03F2108C13F54081D
:1009F000043E8600013087002208C03F2308C13F23
:100A0000BA1E232D2108D2005408023E8600013070
:100A10008700520881002008D2005408033E860057
:100A200001308700520881005408043E86000130DE
:100A3000870081012408D2005408053E8600013059
:100A4000870052088100BA1D312D540886000130FC
:100A500087002008C03F2108C13F2208C23F230869
:100A6000C33F8B31332308003A1E392D893176215B
:100A70000800BA1E3E2D853146250800BA1D432DBB
:100A80008B310B2308008B3133230800A92D8831CB
:100A90004E20080009302000D1005108B8008831EC
:100AA00098208531D92D2000931D0800D92D89313A
:100AB000FF218531003A031DD92DFF302000D100E0
:100AC0005108BB006330D1005108B8000800CC3099
:100AD0008D3145258531D92D44308D3145258531E0
:100AE00058302000A6000230A700FA308831692073
:100AF0008531D92D931D08000130A6020030A73B97
:100B0000260827040319D92DFA30883169200800F6
:100B1000BE308D31452585312000B601D92D8F316C
:100B20000A2785312000D1003608203E8600870143
:100B3000510881000130D1005108B6070630360255
:100B4000031C08006330D1005108B800BB01BB0A88
:100B5000080020003808003A0319472D013A03190C
:100B60004A2D0B3A0319532D013A0319572D073A11
:100B70000319532D013A0319672D033A03196C2DFC
:100B8000013A03197A2D1F3A03194F2D013A03191F
:100B9000532D033A0319572D013A0319532D073AE0
:100BA0000319672D013A0319882D033A03198F2D74
:100BB000D92D01302000D1005108B80708008B134F
:100BC0002000F21DEB2DF21123006608A400670837
:100BD000A600E601E7018B178B132000721EF82D8B
:100BE000721223006808AA006908AB00E801E90155
:100BF0008B178B132000F21E052EF21223006A08B9
:100C0000B0006B08B100EA01EB018B178B132000D9
:100C1000721F122E721323006C08B6006D08B70005
:100C2000EC01ED018B138B172000F21F1F2EF21326
:100C300023006E08BC006F08BD00EE01EF018B17AA
:100C400023008B136008E0018B17A3070030A23D3F
:100C5000A13DA03D8B136108E1018B17A90700306E
:100C6000A83DA73DA63D8B136208E2018B17AF0795
:100C70000030AE3DAD3DAC3D8B136308E3018B17F7
:100C8000B5070030B43DB33DB23D8B136408E401B9
:100C90008B17BB070030BA3DB93DB83D20000800B6
:100CA0002000CF007808FA007708F900FA36F90C2E
:100CB000FA36F90C7908FB007B08CD007708033978
:100CC000F9007908CE00CE0EF030CE050C30F900D8
:100CD0007908CE044F08D43E86008701073001060C
:100CE0000319742E003008004F08031D812E2100C7
:100CF0008D1120004E082500930020004D0825008E
:100D00009E2E033020004F06031D902E21000D1350
:100D100020004E0825009A0020004D082500AE2E28
:100D2000083020004F06031DA02E21008C1120004A
:100D30004E082600930020004D0826009100B42E96
:100D4000093020004F06031DB02E21000C12200098
:100D50004E0826009A0020004D0826009800B42E68
:100D60002000B4010030080020004F35A03E86006E
:100D700087017708C03F7808C13F013008008B1217
:100D8000F701200039088B3185238631FF30FB00C5
:100D90007B082000BB002A3024004F02031C1C2FBC
:100DA0002000CA010230FB007B08B500B701CE016C
:100DB00005304E020318112FCD0108304D020318E3
:100DC000F92E0310CA0D3508B50A203E8600023000
:100DD00087006F300102031CF12E0130FB007B08FD
:100DE000CA070130FB007B08CD0708304D02031C09
:100DF000E22E04304E020318092F4A08FB007B083C
:100E0000B7074A08FB004E08203E860087017B0892
:100E100081000130FB007B08CE0705304E02031C29
:100E2000DC2E37084A06031D1C2FBB01BB0A6330AA
:100E3000FB007B08B800080020004408031D282F91
:100E40000130FB007B08C407B001B101B801080004
:100E50006330FB007B08B80008002000E001E101DE
:100E6000B40100302902A0300319280203185B2FB7
:100E70002908DE002808DD000430DE36DD0C890B91
:100E80003D2F5D08DF005F08E200620888318B209B
:100E90008731003A0319512F200062088F315427FF
:100EA0000800200062088C31992487312000510805
:100EB000E1005008842F103029062804031D682FF4
:100EC0008831E720873120005108E1005008842F45
:100ED0002803103003192906031D762F8831A72017
:100EE000873120005108E1005008842F0230280685
:100EF000103003192906031D862F8B315C2387319F
:100F00007B082000E1007A08E000882FB401B40AD1
:100F1000200034080319902F023089313121080054
:100F200020006108D6006008D50089311D21080025
:100F30002000181808000130F7007708C6070B30AA
:100F40004602031CA82FC6012030EB004E30EC00F7
:100F50004608013E840088300318013E85000008E1
:100F6000F7007708C7000A304606031DBD2FEC1BAB
:100F700008006B09F7006C09D02F4635A03E8600AB
:100F80008701403FFA00413FFB007A08EB027B08F3
:100F9000EC3B7A087B04031908007A09F7007B0907
:100FA000F800F70A0319F80A7708960078089700FE
:100FB00011102100111420004608F63E84008730ED
:100FC0000318013E85000008F7007708F900053096
:100FD00046020318EF2F8B1379088D04F22F8B1321
:100FE00079088C04200018148B1708000834023488
:100FF0001034403480340134023404340834103462
:101000000034F734FD34EF34BF347F34FE34FD3424
:10101000FB34F734EF34FF3409340B34083405342F
:0C1020000634003401340234033404347C
:101084008B132000C101C2018B170800640080018A
:101094000131890B49280034200039088931C621DF
:1010A4002000B801B80A08002000410842060319CC
:1010B4005D280130080000300800F70005302800E2
:1010C4009E0077089D009C01200093110800F70002
:1010D400073028009E0077089D009C012000931192
:1010E40008008B120B11FF302000A400FF30A50074
:1010F4003A1E08008831B620080021005E08F70077
:101104007708B40020003E08F70077082100B500F6
:101114000800F7007708D43E860087010108B83933
:10112400031996280130080000300800200039080F
:101134008931C6218831F701200039088D31FE2517
:1011440088313F3088316920080022009716171231
:10115400FC3021009E051D308D31C025780820000B
:10116400D1007708D00008008B12F701200039085D
:101174008B31852388316330FB007B082000B80065
:1011840039088931AA2108002000F50088317F2020
:10119400883101302100B600200075082100B70015
:1011A40004308C3105240800FA00F9017A1CDE2889
:1011B4007708F8007808F9070310F70D0310FA0C04
:1011C4007A08031DD8287908080022001708FC397A
:1011D40002389700FC3021009E051F308D31C02558
:1011E40078082000D1007708D00008002000CF0044
:1011F4004F08D43E8600870106300106031D08000F
:101204004D08CE004E08F7004F088D31FE2508002A
:101214000030200029020A30031928020318192972
:1012240028088A313C2289318831C62008000230DE
:101234008931312108002000D50088317F2089318F
:1012440002302100B600200056082100B70020001B
:1012540055082100B80005308C3105240800200011
:10126400D60088317F20893120003E088038D5009F
:1012740055082100B50020005608D5005508210066
:10128400B60003308C310524080088317F20893171
:10129400200029082100B600200028082100B700FA
:1012A40020002D082100B80020002C082100B900DE
:1012B40006308C3105240800FA00640023009518D8
:1012C4005F297A08F700F8017708910078089200FE
:1012D4003F30F90079089505151403101518031407
:1012E4000030093D13080800623020003806031955
:1012F400080032303806031D82298631BF260800D3
:10130400633020003806031908003803031D8D29B3
:101314008E31822608008D310B2508008831562035
:101324008931003A0319902920004208203E8600A2
:10133400013087000108F7007708F8000130F70052
:101344007708C207203042020318C2017808080057
:10135400F8007808F63E840087300318013E8500C3
:101364000008F7007708F900053078020318C0294F
:101374007908F700770821008D0408007908F70040
:10138400770821008C040800F8007808013E8400E6
:1013940088300318013E85000008F7007708F9003B
:1013A400053078020318DC297908F7007708210052
:1013B4008D0508007908F700770821008C050800DE
:1013C4000030200029020A30031928020318FB29DF
:1013D4002C082D040319F0290130F1290030D7001D
:1013E4005708CD0028088831F820893189314721F0
:1013F4000800023089313121080020003908893180
:10140400AA218931B43088315F2089312000931DAD
:10141400082A39088A315B228931FB007B0C73125C
:1014240003187316731E182A0030080033308831ED
:10143400692001300800D430FB007B082000CD0077
:10144400CE010B304E02031808004D0886008701B8
:101454000108FB007B08F7004E088A319E228A317E
:101464000130FB007B082000CD070130FB007B0826
:10147400CE07232AF900053079020318442A2000F4
:101484000D08462A20000C08F7007708F8007908B0
:10149400F63E840087300318013E85000008F700FB
:1014A4007708F80578080319592A01300800003034
:1014B4000800F9007908F63E840087300318013EDD
:1014C40085000008F7007708FA0005307902031850
:1014D4006E2A20000D08702A20000C087A05F700F7
:1014E4007708F8007808031D792A003008000130D5
:1014F4000800F8007808F70077082000C5073C08C2
:10150400013EF7007708F900203079020318F90149
:101514007908400603198A2A7808F7003C08403EF7
:10152400860001308700770881007908F700770882
:10153400BC00210011160800FA00230095189F2A08
:101544007A08F800F9017808910079089200770880
:1015540093003F30F80078089505200003108B1B9A
:1015640003148B132300151555309600AA309600EA
:10157400951415112000031C08008B170800200087
:101584002D08D7002C08D600D8010A3058020318B9
:10159400E22A56080139D5005508CD00580888318B
:1015A400F8208A3101302000D736D60C890BD62A90
:1015B4000130D5005508D8070A305802031CCB2A3D
:1015C400893147210800F900053079020318072BF7
:1015D40077080319FA2A7908F63E8400873003183D
:1015E400013E85000008F800780824008D040800F6
:1015F4007908013E840088300318013E8500000804
:10160400F800780824008D0508002000B401B40A0D
:10161400080020003808031D122B8C3166240800B2
:1016240020003803031D0800731D0800A0013308BF
:10163400F7007708A1003208F7007708A2004B08EA
:10164400F7007708A300B201B301CB016330F700C0
:101654007708B800BB01BB0A9E13210095128B12B8
:1016640008002000C4010130F7007708B9070A30E8
:1016740039020318B9013908D43E860087010108EC
:10168400F7007708BA00B801BB01B001B1018B12B1
:101694007313BA197317F801063078020318080097
:1016A4007808203E8600870181010130F700770821
:1016B400F8074E2B2000CF01D001D1010A3051028E
:1016C4000318802B0130CF35D00D890B652B5108C1
:1016D400013EFF3A013E0A3E8A313C228B31200012
:1016E400CD00CE014D08CF044E08D0040130CD000A
:1016F4004D08D1070A305102031C642B5008FB002B
:101704004F08FA000800FA0005307A0203180800AE
:101714007708031D9E2B7A08013E84008830031845
:10172400013E85000008F8007808F9008B13790859
:10173400270095058B1708007A08F63E8400873049
:101744000318013E85000008F8007808F9008B139F
:101754007908270095048B1708002000CD010A3072
:101764004D02031808004D08D43E8600870110304E
:1017740001060319C52B4D08D43E8600870111309C
:101784000106031DCA2BF7014D088B3185238B31CC
:101794002000B80121005408FB007B082000BA0097
:1017A400B901F0010130FB007B08CD07B12BFA0031
:1017B4007A08D43E860087010108F7007708F8000C
:1017C4007A08013E840088300318013E8500000831
:1017D400F7007708F90005307A020318FB2B790823
:1017E400F700770820008D0521008D0523008D0565
:1017F40008007908F700770820008C0521008C0583
:1018040023008C0508002000D1003F0803190800BC
:101814005108FB007B08F700B4308E313F268C3131
:1018240078082000D3007708D200F3150D14D401F2
:101834005108540203182C2C5408B43E8600870126
:1018440001088A317B228C310130FB007B082000A7
:10185400D4071A2C52088A317B228C312000530879
:101864008A317B220800FA007A08F63E8400873029
:101874000318013E85000008F7007708F8007A088D
:10188400013E840088300318013E85000008F700FB
:101894007708F90005307A0203185B2C7808F70002
:1018A400770821008D047908F700770823008D0557
:1018B40008007808F700770821008C047908F700FD
:1018C400770823008C0508002000BB01BB0AB8017F
:1018D400B80A39080C3E840088300318013E85009C
:1018E40000089F009E138B12B201B3019501F410FE
:1018F4007410731108303A06031D822C81308F2C2A
:1019040009303A06031D882C85308F2C0A303A069C
:10191400031D8E2C89308F2C8D309E0020302100A9
:10192400950095168B127317F41473110800200098
:10193400D500B4015508D43E860087010108D200C1
:101944005208D400043054020318BD2C55088D31BC
:1019540082258C31200055080C3E84008830031801
:10196400013E850000088D31C02578082000D10093
:101974007708D0000800073054020318CC2C55080F
:101984008A315B222000D200D3015208D0005308D0
:10199400D1000800FF30D000FF30D10008008600DD
:1019A40087011600BF001600BE001600A90016002D
:1019B400A8001600AD001600AC001600AA00160020
:1019C400AB000630FB007B08F700DF308E313F268A
:1019D4008C3178082000D3007708D2002B085306F6
:1019E400031DF62C2A0852060319FA2CD401092DDA
:1019F40021005E0820003F06031D3F08031D052D3E
:101A0400D401D40A092D0230FB007B08D400540809
:101A14000800033020003102E93003193002031CAE
:101A24000800B001B1013908013E84008830031870
:101A3400013E85000008F7007708F8008B1378084A
:101A4400F7007708270095057808F70077089605CA
:101A54008B178B137808F700770821008D05780819
:101A6400F700770820008D058B17B801B80A2830D5
:101A7400F7007708B500CA01B601023021009500CD
:101A84002000950108002000CE00D001D00A0830C3
:101A9400CD004D08CF004F08031908008B133908F7
:101AA4008931C6218D31F701200039088D31FE2599
:101AB4008D3120004E0850050319642D00000000EC
:101AC4008B176C2D8B17783088315F208D31200077
:101AD400931D692D200039088931AA218D312000F8
:101AE4004E08500503197D2D783088315F208D31E3
:101AF4002000931D7A2D0310D00D0130CF024D2DFF
:101B0400F9007908D43E860087010108F7007708B8
:101B1400F8007908F63E840087300318013E8500FA
:101B24000008F7007708FA00053079020318A52D9C
:101B34007A08F700770821008D047A08F7007708FF
:101B440023008D04AF2D7A08F700770821008C0458
:101B54007A08F700770823008C0422001708780617
:101B6400FC39780697007808031DBC2DFC30210051
:101B74009E050800033021009E0408002000CD00CB
:101B8400210011132000111321001D141D14200025
:101B94004D08F900F90DF90D21001D087906833966
:101BA40079069D000B30FA006230F900F90BD82D4C
:101BB400FA0BD82D000021009D149D18DF2D0B3049
:101BC400FA006230F900F90BE52DFA0BE52D00005F
:101BD40021009D149D18EC2D1C08F90079082000A3
:101BE400CF0021001B08F90079082000CE004F081F
:101BF400F8004E08F7000800FB007B08F63E84005E
:101C040087300318013E85000008F8007808F900C1
:101C14007B08013E840088300318013E85000008DB
:101C2400F8007808FA0005307B0203182C2E770898
:101C3400031D242E8B137A08F800780820008D05E4
:101C44008B1708008B137908F800780820008D049E
:101C54008B1708007708031D372E8B137A08F800BA
:101C6400780820008C058B1708008B137908F8007E
:101C7400780820008C048B1708002000CD00FF306A
:101C8400CF00FF30D000770803197D2E4D08860061
:101C940087014F080106CF005008D0000130F90039
:101CA4007908CD070830F9007908CE004E080319E9
:101CB400782E4F1C692E5008FA004F08F900FA36A6
:101CC400F90C01307906CF00A0307A06722E500844
:101CD400FA004F08F900FA36F90C7908CF007A08AF
:101CE400D0000130CE024E08031D5B2E0130F702F6
:101CF4007708031D482E5008F8004F08F700080025
:101D040020003908F63E840087300318013E850020
:101D14000008F7007708F9007909F7007708F80058
:101D2400BB0100303102153003193002031C0800D6
:101D34006230F7007708B8008B137808F70077084B
:101D4400270096057908F700770895048B1779081A
:101D5400F70077082000F0002400CF018B15200045
:101D640095010B118B168B1395017908F7007708F1
:101D740021008D048B17000000000000000000000B
:101D8400000000000000080020003F080319D02EC6
:101D940021005E0820003F06031D0800C730E30051
:101DA4000000E30BD22E0032000020003E03031D8E
:101DB400DE2E89310A210800023020003E06031D70
:101DC400E62E89310A210800033020003E06031D57
:101DD400EE2E8F31A9270800043020003E06031D93
:101DE400F62E87312D270800053020003E06031DFE
:101DF400FE2E8931E2210800063020003E06031D34
:101E0400062F8331AD2308000130893131210800C8
:101E14002000CE01CE0ACF010830CD004D08D000FD
:101E240050080319522F39088931C6218F31F7011F
:101E3400200039088D31FE258F318B1300000000FE
:101E4400000000000000000000000000200039082D
:101E54008931AA218F310000023088315F208F310F
:101E64002000931D322F39088A315B228F31003ACA
:101E74000319432F8B1720004E08CD004D08CF04C3
:101E8400442F8B17783088315F208F312000931DC9
:101E9400482F0310CE0D0130D0025008031D152F1A
:101EA4004F0808002000DA00D901DC015A08D43EAA
:101EB400860087010108D7005708DB0008305B0261
:101EC400031C742F10305B0203186A2F0430712F27
:101ED40040305B06031D702FDC01742F0630D700E1
:101EE4005708DC005C08031D7B2F02308931312147
:101EF400080088317F208F3120005C08D700570804
:101F04002100B60006302000D7005708F7005A0811
:101F14008831D6208F312000D8005808DB000130EA
:101F24008500A0305B07840000308700B73086004E
:101F34005C08D9008B1300081E00840AD90B9D2F5E
:101F44008B1720005C08033E8C3105240800200018
:101F5400D90101302902003003192802031CBF2FC4
:101F6400013029020B30031928020318BF2F280857
:101F7400D43E860087010108C72FA0302806290413
:101F8400031DCD2F21005E082000D700D80157087B
:101F9400DA005808ED2FFA3028062904031DD62F3D
:101FA4000530DA000130ED2FFB3028062904031D2B
:101FB400DF2F3A30DA006530ED2F003029020A3085
:101FC400031928020318EF2F2835A03E8600870145
:101FD400403FDA00413FDB00F12FD901D90A59080B
:101FE4000319F82F023089313121080020005B08E1
:0C1FF400D6005A08D50089311D210800D4
:020000040001F9
:04000E00FAEFFFFF07
:10E0000006000600060006000600060006000600E0
:10E01000040004007F00FF00FF00FF00FF00FF007E
:00000001FF
