:100000008131452980343E347E14803120007F08C0
:10001000F6002100111C1B282000111C1B281110A8
:10002000053042020318172841088D051928410898
:100030008C05200018108B190B1CB1281508C8005E
:1000400027001608200070050319372895012400A1
:100050004F08203E8600023087004F082D3C0318D1
:10006000CF0A200048088100700927009605270064
:10007000160815050319B1282000B4002000B41D8E
:100080005528270096112000F11D55282300E00A6D
:10009000F21D5128F2116608A4006708A500E601C8
:1000A000E701E70A0319E60A20002000B41C6C28C7
:1000B000270096102000711E6C282300E10A721E92
:1000C000682872126808AA006908AB00E801E90113
:1000D000E90A0319E80A20002000341E83282700BB
:1000E00016122000F11E83282300E20AF21E7F2848
:1000F000F2126A08B0006B08B100EA01EB01EB0AEA
:100100000319EA0A20002000341F9A28270016133A
:100110002000711F9A282300E30A721F9628721389
:100120006C08B6006D08B700EC01ED01ED0A03198B
:10013000EC0A20002000B41FB128270096132000ED
:10014000F11FB1282300E40AF21FAD28F2136E0854
:10015000BC006F08BD00EE01EF01EF0A0319EE0AC3
:1001600020002100111CC3282000111CC3281110DD
:10017000053042020318BF2841088D05C1284108F7
:100180008C05200018102000911CFA289110F31FF4
:10019000D02873177108F5007508F2002000F313DA
:1001A00001302000B2070030B33D0130AC02003016
:1001B000AD3B2C082D04031DFA286430AC00003040
:1001C000AD00F31EEB281508C80020009E138B120B
:1001D000F3127316F228F31DF228F31195010B1197
:1001E0008B16F3160130BE023E08031DFA280A30B2
:1001F000BE00F3172100111E1B292000111E1B2910
:100200003D083C06031915293C08403E8600013094
:100210008700010823009A002000BC0A203020003B
:100220003C02031C1B29BC011B293C083D06031D85
:100230001B29210011128B1A0B1D2A290B11741C6A
:1002400026292000AE0A031DAF0A2A298B1232305C
:100250002000CB002100911E40292000911E402942
:1002600020003B08BB0A203E8600013087002300A7
:10027000190881002000203020003B060319BB0133
:1002800076082000FF007E10090081314729803167
:1002900002208131E900803103208131EA00F3013D
:1002A000F40120308400003085002D308831582042
:1002B0008131A030840000308500493088315820D9
:1002C0008131203084000130850040308831582051
:1002D0007E10200081316C2902302100950023001E
:1002E0008C018D01203020008C003F3024008C00D8
:1002F0008B011D302100970073106400D430200062
:10030000E3006308E500E7010B30670203189F294B
:10031000670889315C2181312000E300650886008F
:100320008701630881000130E3006308E5070130BD
:10033000E3006308E7070B306702031C88293F309E
:1003400021008C00DE308D0020000D108030220056
:100350009D0001309E00823023009E009D011E15ED
:100360009F151E128A309B009C019E169D171D161C
:100370002100111220009112111223001F121F10D0
:100380002000BD01BC01BB01BA018B170B17210076
:10039000911627009401950196018B152000F0011C
:1003A000F101731107309C007D309B009A01911080
:1003B0006430AC000030AD000A30E3006308BE00DA
:1003C000210091140B178B17E3309E0001309D0024
:1003D00023008C018D012100111320001113C23064
:1003E000220097002000E8010A3068020318062A5C
:1003F000F31468088231BB22813101302000E30010
:100400006308E8070A306802031CF829F310073074
:1004100028009700553025009E00FF3028009600E8
:1004200095012100931020009310883152208131D2
:100430002000B501CB302000E400EC30E300843034
:10044000890B202AE30B202AE40B202A00008B31A1
:10045000AD2381312000E8010A30680203183F2AE9
:100460006835A03E860087010030C03FC13F0130A3
:10047000E3006308E8070A306802031C302A0A30E8
:10048000E3006308C2003030980099131110210076
:10049000111020001810731C64007319512A2000D9
:1004A0000D10731D612A2100111AB12AE4300032A7
:1004B0000032890B572A0032003220000D107311D0
:1004C000B12A883166208131003A0319B12A893175
:1004D0008E2181312000E3003508DF3E8600870150
:1004E000630881000130E3006308B5070830350276
:1004F000031CB12A0830E3006308B500DF308C31FB
:10050000CF2481312000E3006308E6006603031D69
:100510008E2A8E313B2681312000922A02306606D7
:10052000031D942AB501B12AE801E80A08306802DF
:100530000318AF2A6808DF3E860087010108E30040
:100540006808FF3EDF3E86008701630881000130B6
:10055000E3006308E80708306802031C9A2A0130A8
:10056000B50284318D2481318731902781318531E5
:10057000D72581314B2A2000D2005208D43E860074
:1005800087010108D0005008D1008B31AD238231A2
:1005900006302000D0005008F70052088831E620CD
:1005A0008231A03E8600013087000030C03F00301D
:1005B000C13FC23FC33F06302000D0005008F700C3
:1005C00052088831E6208231043EA03E8600013088
:1005D00087000030C03FC13F0530200052020318A1
:1005E000FC2A52080B3E840088300318013E850027
:1005F0000008D0005008F1055208031D012B25000A
:100600009301033020005206031D082B25009A0198
:10061000083020005206031D0F2B260093010930DD
:1006200020005206031D162B26009A0105302000DB
:1006300052020318272BF701F70A52088A31E322E6
:100640008231F701200052088B3183238231200050
:100650005235A03E860087010030C03FC13F0430C4
:1006600051020318412B0530520203183C2BF701AD
:1006700052088A31E3228231200052088D31BC2594
:100680000800511B472B06305106031D4B2B520807
:100690008B31D7230800073020005106031D572B4C
:1006A0000030F700F8005208863148260800D11FB4
:1006B0007F2BF70152088A31E32282312000520851
:1006C0008C3133248231F701F70A200052088B3134
:1006D00083238231200052080319F11552030319B4
:1006E0007116023052060319F1160330520603192F
:1006F000711704305206031D0800F1170800D119C4
:10070000852B04305106031D9C2BD11D8E2B0530EB
:100710005202031C8E2BBF01BF0A08000530520293
:100720000318972BF70152088A31E3228231200007
:1007300052088C3133240800511EA52B053052027B
:10074000031C0800BF01BF0A080052088C31332483
:100750000800023020002A06103003192B06031D62
:10076000B42B8A31BF22080020002A0A031DC82B9F
:100770002B03031DC82B7830280656300319290691
:10078000031DC42BF314C52BF31089314521080038
:10079000553020002A06AA3003192B06031DE22B30
:1007A00034302806123003192906031DDE2B73147A
:1007B000113021009700893145210800023089312C
:1007C0002F210800013020002B02003003192A02DB
:1007D000031C2B2C01302B020A3003192A020318A8
:1007E0002B2CF31C282C2A08D9005908DB00BF0148
:1007F0005B08D43E860087010108D9005908DA0059
:100800002808D9005B08D43E86008701590881007A
:100810005B088231BB22833120003F080319212C61
:100820005A08D9005B08D43E860087015908810028
:100830005B088231BB228331023089312F21833121
:10084000262C8931452183318A311B22F31408007B
:10085000893145210800003020002B020A3003199D
:100860002A020318762C2A08D43E86008701010844
:10087000D9005908DA002908F8002808F7002A08E2
:10088000863148268331003A031D732C80302000C6
:100890005A06031D622C28082904031D732C0630F8
:1008A000D9005908F7002A088831E6208331A03E94
:1008B0008600013087000030C03F0030C13FC23F9A
:1008C000C33F732C403020005A06031D702C2A357C
:1008D000A03E860087012808C03F2908C13F732C2D
:1008E0008931E0210800893145210800A03020002D
:1008F0002A062B04031D892CF31C862C2808D900FA
:1009000059082100DE008A311B22833189314521BB
:100910000800023089312F210800633020004B0687
:10092000031D2C2D4A08031D982C88318320843107
:1009300006302000D2005208F7004C088831E6202B
:100940008431A03E2000D3005308D4004A0A031D7E
:10095000B22C5408860001308700FF30C03FFF30C2
:10096000C13FBF2C540886000130870081014A082E
:10097000D200540A860001308700520881001030EE
:100980004306031DE22C2008D2005408033E8600D3
:1009900001308700520881002208D2005408053E29
:1009A000860001308700520881005408023E86000C
:1009B0000130870081015408043E86000130870021
:1009C0008101F82C11304306031DF82C5408023E17
:1009D0008600013087002008C03F2108C13F54082D
:1009E000043E8600013087002208C03F2308C13F33
:1009F000C31E1B2D2108D2005408023E8600013080
:100A00008700520881002008D2005408033E860067
:100A100001308700520881005408043E86000130EE
:100A2000870081012408D2005408053E8600013069
:100A3000870052088100C31D292D5408860001300B
:100A400087002008C03F2108C13F2208C23F230879
:100A5000C33F8B3131230800431E312D893174216E
:100A60000800C31E362D85313E250800C31D3B2DD1
:100A70008B31092308008B3131230800A12D8831E7
:100A80005E20080009302000D1005108CB008831D9
:100A9000A8208531D12D2000931D0800D12D89314A
:100AA000FD218531003A031DD12DFF302000D100FA
:100AB0005108CA006330D1005108CB000800CC3087
:100AC0008D317F258531D12D44308D317F25853184
:100AD00058302000B0000230B100FA30883179205F
:100AE0008531D12D931D08000130B0020030B13B9B
:100AF000300831040319D12DFA30883179200800EB
:100B0000BE308D317F2585312000C401D12D8F313C
:100B1000032785312000D1004408203E860087014C
:100B2000510881000130D1005108C4070630440249
:100B3000031C08006330D1005108CB00CA01CA0A67
:100B4000080020004B08003A03193F2D013A031911
:100B5000422D0B3A03194B2D013A03194F2D073A39
:100B600003194B2D013A03195F2D033A0319642D24
:100B7000013A0319722D1F3A0319472D013A03193F
:100B80004B2D033A03194F2D013A03194B2D073A08
:100B900003195F2D013A0319802D033A0319872D9C
:100BA000D12D01302000D1005108CB0708008B1354
:100BB0002000F21DE32DF21123006608A40067084F
:100BC000A600E601E7018B178B132000721EF02DA3
:100BD000721223006808AA006908AB00E801E90165
:100BE0008B178B132000F21EFD2DF21223006A08D2
:100BF000B0006B08B100EA01EB018B178B132000EA
:100C0000721F0A2E721323006C08B6006D08B7001D
:100C1000EC01ED018B138B172000F21F172EF2133E
:100C200023006E08BC006F08BD00EE01EF018B17BA
:100C300023008B136008E0018B17A3070030A23D4F
:100C4000A13DA03D8B136108E1018B17A90700307E
:100C5000A83DA73DA63D8B136208E2018B17AF07A5
:100C60000030AE3DAD3DAC3D8B136308E3018B1707
:100C7000B5070030B43DB33DB23D8B136408E401C9
:100C80008B17BB070030BA3DB93DB83D20000800C6
:100C90002000CF007808FA007708F900FA36F90C3E
:100CA000FA36F90C7908FB007B08CD007708033988
:100CB000F9007908CE00CE0EF030CE050C30F900E8
:100CC0007908CE044F08D43E86008701073001061C
:100CD00003196C2E003008004F08031D792E2100E7
:100CE0008D1120004E082500930020004D0825009E
:100CF000962E033020004F06031D882E21000D1371
:100D000020004E0825009A0020004D082500A62E40
:100D1000083020004F06031D982E21008C11200062
:100D20004E082600930020004D0826009100AC2EAE
:100D3000093020004F06031DA82E21000C122000B0
:100D40004E0826009A0020004D0826009800AC2E80
:100D50002000BF010030080020004F35A03E860073
:100D600087017708C03F7808C13F013008008B1227
:100D7000F70120004C088B3183238631FF30FB00C4
:100D80007B082000CA002A3024004F02031C142FC5
:100D90002000C6010230FB007B08C700C501CE0160
:100DA00005304E020318092FCD0108304D020318FB
:100DB000F12E0310C60D4708C70A203E86000230F8
:100DC00087006F300102031CE92E0130FB007B0815
:100DD000C6070130FB007B08CD0708304D02031C1D
:100DE000DA2E04304E020318012F4608FB007B0860
:100DF000C5074608FB004E08203E860087017B0899
:100E000081000130FB007B08CE0705304E02031C39
:100E1000D42E45084606031D142FCA01CA0A6330A2
:100E2000FB007B08CB00080020004908031D202F91
:100E30000130FB007B08C907B201B301CB010800F8
:100E40006330FB007B08CB0008002000E001E101DB
:100E5000BF0100302B02A03003192A020318532FC0
:100E60002B08DE002A08DD000430DE36DD0C890B9D
:100E7000352F5D08DF005F08E200620888319B20A3
:100E80008731003A0319492F200062088F31542717
:100E90000800200062088C31972487312000510817
:100EA000E10050087C2F10302B062A04031D602F10
:100EB0008831F720873120005108E10050087C2F4D
:100EC0002A03103003192B06031D6E2F8831B7201B
:100ED000873120005108E10050087C2F02302A069B
:100EE000103003192B06031D7E2F8B315A238731B7
:100EF0007B082000E1007A08E000802FBF01BF0AD4
:100F000020003F080319882F023089312F21080063
:100F100020006108D6006008D50089311B21080037
:100F20002000181808000130F7007708C2070B30BE
:100F30004202031CA02FC2012030E9004E30EA001B
:100F400042080B3E840088300318013E85000008EB
:100F5000F7007708C1000A304206031DB52FEA1BCF
:100F600008006909F7006A09C82F4235A03E8600CB
:100F70008701403FFA00413FFB007A08E9027B0805
:100F8000EA3B7A087B04031908007A09F7007B0919
:100F9000F800F70A0319F80A77089600780897000E
:100FA00011102100111420004208003E84008830F6
:100FB0000318013E85000008F7007708F9000530A6
:100FC00042020318E72F8B1379088D04EA2F8B1345
:100FD00079088C04200018148B1708002000CF001B
:100FE0004F08D43E8600870106300106031D080025
:100FF0004D08CE004E08F7004F088D31FA25080045
:10100000083402341034403480340134023404345F
:10101000083410340034F734FD34EF34BF347F34F7
:10102000FE34FD34FB34F734EF34FF3409340B3431
:1010300008340534063400340134023403340434F3
:1010A4008B132000BB01BA018B1708006400800178
:1010B4000131890B5928003420004C088931C4219E
:1010C4002000CB01CB0A080020003B083A06031994
:1010D4006D280130080000300800F70005302800B2
:1010E4009E0077089D009C01200093110800F700E2
:1010F400073028009E0077089D009C012000931172
:1011040008008B120B11FF302000A400FF30A50053
:10111400431E08008831C620080021005E08F7003D
:101124007708B40020003708F70077082100B500DD
:101134000800F7007708D43E860087010108B83913
:101144000319A628013008000030080020004C08CC
:101154008931C4218831F70120004C088D31FA25EA
:1011640088313F3088317920080022009716171201
:10117400FC3021009E051D308D3143257808200068
:10118400D1007708D00008008B12F70120004C082A
:101194008B31832388316330FB007B082000CB0034
:1011A4004C088931A82108002000F50088318F20DF
:1011B400883101302100B600200075082100B700F5
:1011C40004308C3103240800FA00F9017A1CEE285B
:1011D4007708F8007808F9070310F70D0310FA0CE4
:1011E4007A08031DE8287908080022001708FC394A
:1011F40002389700FC3021009E051F308D314325B5
:1012040078082000D1007708D000080000302000C2
:101214002B020A3003192A02031817292A088A31D3
:101224003A2289318831D6200800023089312F21B1
:1012340008002000D50088318F2089310230210038
:10124400B600200056082100B700200055082100F0
:10125400B80005308C31032408002000D600883102
:101264008F208931200037088038D50055082100A7
:10127400B50020005608D50055082100B6000330FB
:101284008C310324080088318F20893120002B08F9
:101294002100B60020002A082100B70020002908F8
:1012A4002100B800200028082100B90006308C3144
:1012B40003240800FA006400230095185D297A08C5
:1012C400F700F80177089100780892003F30F900A0
:1012D4007908950515140310151803140030093DF9
:1012E40013080800623020004B060319080032304E
:1012F4004B06031D80298631B72608006330200081
:101304004B06031908004B03031D8B298E31BF269E
:1013140008008D3109250800883166208931003A9A
:1013240003198E2920003A08203E860001308700E8
:101334000108F7007708F8000130F7007708BA07CA
:1013440020303A020318BA0178080800F800780837
:10135400003E840088300318013E85000008F70031
:101364007708F900053078020318BE297908F700D8
:10137400770821008D0408007908F7007708210018
:101384008C040800F80078080B3E840088300318A9
:10139400013E85000008F7007708F900053078025F
:1013A4000318DA297908F700770821008D05080069
:1013B4007908F700770821008C0508000030200028
:1013C4002B020A3003192A020318F92928082904D0
:1013D4000319EE290130EF290030D7005708CD005A
:1013E4002A088731EE2789318931452108000230E6
:1013F40089312F21080020004C088931A821893126
:10140400B43088316F2089312000931D062A4C089E
:101414008A3159228931FB007B0CF4100318F4142F
:10142400F41C162A0030080033308831792001304A
:101434000800D430FB007B082000CD00CE010B3027
:101444004E02031808004D08860087010108FB00BE
:101454007B08F7004E088A319C228A310130FB0058
:101464007B082000CD070130FB007B08CE07212A32
:10147400F900053079020318422A20000D08442A95
:1014840020000C08F7007708F8007908003E840073
:1014940088300318013E85000008F7007708F80536
:1014A40078080319572A0130080000300800F900B1
:1014B4007908003E840088300318013E8500000846
:1014C400F7007708FA000530790203186C2A200027
:1014D4000D086E2A20000C087A05F7007708F8003A
:1014E4007808031D772A0030080001300800F8004E
:1014F4007808F70077082000B9073D08013EF70097
:101504007708F900203079020318F90179083C06BC
:101514000319882A7808F7003D08403E8600013008
:101524008700770881007908F7007708BD0021005B
:1015340011160800FA00230095189D2A7A08F8006D
:10154400F9017808910079089200770893003F30F8
:10155400F80078089505200003108B1B03148B13E7
:101564002300151555309600AA30960095141511D0
:101574002000031C08008B17080020002908D7004E
:101584002808D600D8010A3058020318E02A560861
:101594000139D5005508CD0058088731EE278A3126
:1015A40001302000D736D60C890BD42A0130D5005F
:1015B4005508D8070A305802031CC92A8931452125
:1015C4000800F900053079020318052B7708031980
:1015D400F82A7908003E840088300318013E85000B
:1015E4000008F800780824008D04080079080B3EF0
:1015F400840088300318013E85000008F80078084C
:1016040024008D0508002000BF01BF0A0800200047
:101614004B08031D102B8C316424080020004B035D
:10162400031D0800731E0800A0012F08F7007708A7
:10163400A1002E08F7007708A2004808F7007708F1
:10164400A300AE01AF01C8016330F7007708CB00F7
:10165400CA01CA0A9E13210095128B1208002000A9
:10166400C9010130F7007708CC070A304C0203188F
:10167400CC014C08D43E860087010108F7007708A6
:10168400C300CB01CA01B201B3018B127410C31998
:101694007414F80106307802031808007808203E14
:1016A4008600870181010130F7007708F8074C2B89
:1016B4002000CF01D001D1010A30510203187E2B42
:1016C4000130CF35D00D890B632B5108013EFF3A11
:1016D400013E0A3E8A313A228B312000CD00CE01F0
:1016E4004D08CF044E08D0040130CD004D08D10779
:1016F4000A305102031C622B5008FB004F08FA0009
:101704000800FA0005307A02031808007708031D60
:101714009C2B7A080B3E840088300318013E850018
:101724000008F8007808F9008B137908270095055C
:101734008B1708007A08003E840088300318013EA5
:1017440085000008F8007808F9008B137908270051
:1017540095048B1708002000CD010A304D020318B0
:1017640008004D08D43E8600870110300106031995
:10177400C32B4D08D43E8600870111300106031D9A
:10178400C82BF7014D088B3183238B312000CB010B
:1017940021005408FB007B082000C300CC01F001A9
:1017A4000130FB007B08CD07AF2BFA007A08D43E4A
:1017B400860087010108F7007708F8007A080B3ED5
:1017C400840088300318013E85000008F70077087C
:1017D400F90005307A020318F92B7908F700770825
:1017E40020008D0521008D0523008D050800790852
:1017F400F700770820008C0521008C0523008C0558
:1018040008002000D1003608031908005108FB0025
:101814007B08F700B4308E317C268C3178082000A8
:10182400D3007708D20073150D14D4015108540263
:1018340003182A2C5408B43E8600870101088A3113
:1018440079228C310130FB007B082000D407182C4E
:1018540052088A3179228C31200053088A31792246
:101864000800FA007A08003E840088300318013E1C
:1018740085000008F7007708F8007A080B3E84001A
:1018840088300318013E85000008F7007708F90046
:1018940005307A020318592C7808F70077082100DC
:1018A4008D047908F700770823008D05080078086F
:1018B400F700770821008C047908F70077082300E3
:1018C4008C0508002000CA01CA0ACB01CB0A4C08C7
:1018D400163E840088300318013E850000089F00EE
:1018E4009E138B12AE01AF019501F311F312731223
:1018F40008304306031D802C81308D2C09304306AB
:10190400031D862C85308D2C0A304306031D8C2C38
:1019140089308D2C8D309E00203021009500951645
:101924008B127414F315731208002000D500BF0144
:101934005508D43E860087010108D2005208D4001D
:10194400043054020318BB2C55088D31BC258C314E
:1019540020005508163E840088300318013E850097
:1019640000088D31432578082000D1007708D00085
:101974000800073054020318CA2C55088A3159222A
:101984002000D200D3015208D0005308D10008002F
:10199400FF30D000FF30D100080086008701160018
:1019A400B6001600B7001600AB001600AA00160019
:1019B400A9001600A8001600A6001600A70006300D
:1019C400FB007B08F700DF308E317C268C317808F1
:1019D4002000D3007708D20027085306031DF42CF7
:1019E400260852060319F82CD401072D21005E089D
:1019F40020003606031D3608031D032DD401D40A26
:101A0400072D0230FB007B08D40054080800033083
:101A140020003302E93003193202031C0800B2012A
:101A2400B3014C080B3E840088300318013E850046
:101A34000008F7007708F8008B137808F700770898
:101A4400270095057808F700770896058B178B1300
:101A54007808F700770821008D057808F7007708E3
:101A640020008D058B17CB01CB0A2830F7007708AF
:101A7400C700C601C4010230210095002000950171
:101A840008002000CD0021001113200011132100B3
:101A94001D141D1420004D08F900F90DF90D210045
:101AA4001D087906833979069D000B30F9006230F0
:101AB400890B5A2DF90B5A2D003221009D149D18C3
:101AC400612D0B30F9006230890B662DF90B662D00
:101AD400003221009D149D186D2D1C08F900790811
:101AE4002000CF0021001B08F90079082000CE0057
:101AF4004F08F8004E08F70008002000CE00D0017F
:101B0400D00A0830CD004D08CF004F080319080053
:101B14008B134C088931C4218D31F70120004C0806
:101B24008D31FA258D3120004E08500503199E2D64
:101B3400000000008B17A62D8B17783088316F209A
:101B44008D312000931DA32D20004C088931A8213C
:101B54008D3120004E0850050319B72D7830883197
:101B64006F208D312000931DB42D0310D00D013052
:101B7400CF02872DF9007908D43E86008701010839
:101B8400F7007708F8007908003E840088300318CD
:101B9400013E85000008F7007708FA000530790255
:101BA4000318DF2D7A08F700770821008D047A08DE
:101BB400F700770823008D04E92D7A08F7007708E9
:101BC40021008C047A08F700770823008C04220093
:101BD40017087806FC39780697007808031DF62D57
:101BE400FC3021009E050800033021009E040800FB
:101BF400FB007B08003E840088300318013E85000A
:101C04000008F8007808F9007B080B3E840088304F
:101C14000318013E85000008F8007808FA00053032
:101C24007B020318282E7708031D202E8B137A08B5
:101C3400F800780820008D058B1708008B137908AD
:101C4400F800780820008D048B1708007708031D1E
:101C5400332E8B137A08F800780820008C058B1734
:101C640008008B137908F800780820008C048B177F
:101C74000800200036080319452E21005E082000C4
:101C84003606031D0800A0300032890B462E2000C2
:101C94003703031D502E893108210800023020002B
:101CA4003706031D582E893108210800033020000F
:101CB4003706031D602E8F31A92708000430200049
:101CC4003706031D682E87312527080005302000BC
:101CD4003706031D702E8931E021080006302000EC
:101CE4003706031D782E8331A9230800013089317A
:101CF4002F2108002000CD00FF30CF00FF30D0009E
:101D040077080319BA2E4D08860087014F0801068B
:101D1400CF005008D0000130F9007908CD07083011
:101D2400F9007908CE004E080319B52E4F1CA62ED3
:101D34005008FA004F08F900FA36F90C0130790618
:101D4400CF00A0307A06AF2E5008FA004F08F900F1
:101D5400FA36F90C7908CF007A08D0000130CE02A7
:101D64004E08031D982E0130F7027708031D852EB7
:101D74005008F8004F08F700080020004C08003E07
:101D8400840088300318013E85000008F7007708B6
:101D9400F9007909F7007708F800CA010030330226
:101DA400153003193202031C08006230F70077086B
:101DB400CB008B137808F70077082700960579087D
:101DC400F700770895048B177908F7007708200047
:101DD400F0002400CF018B15200095010B118B1608
:101DE4008B1395017908F700770821008D048B1770
:101DF40000000000000000000000000000000000DF
:101E040008002000CE01CE0ACF010830CD004D08D5
:101E1400D00050080319522F4C088931C4218F3146
:101E2400F70120004C088D31FA258F318B13000007
:101E3400000000000000000000000000000020007E
:101E44004C088931A8218F310000000000000000F7
:101E54000000000000000000013088316F208F3145
:101E64002000931D322F4C088A3159228F31003AB9
:101E74000319432F8B1720004E08CD004D08CF04C3
:101E8400442F8B17783088316F208F312000931DB9
:101E9400482F0310CE0D0130D0025008031D0E2F21
:101EA4004F0808002000DA00D901DC015A08D43EAA
:101EB400860087010108D7005708DB0008305B0261
:101EC400031C742F10305B0203186A2F0430712F27
:101ED40040305B06031D702FDC01742F0630D700E1
:101EE4005708DC005C08031D7B2F023089312F2149
:101EF400080088318F208F3120005C08D7005708F4
:101F04002100B60006302000D7005708F7005A0811
:101F14008831E6208F312000D8005808DB000130DA
:101F24008500A0305B07840000308700B73086004E
:101F34005C08D9008B1300081E00840AD90B9D2F5E
:101F44008B1720005C08033E8C310324080020001A
:101F5400D90101302B02003003192A02031CBF2FC0
:101F640001302B020B3003192A020318BF2F2A0851
:101F7400D43E860087010108C72FA0302A062B040F
:101F8400031DCD2F21005E082000D700D80157087B
:101F9400DA005808ED2FFA302A062B04031DD62F39
:101FA4000430DA000130ED2FFB302A062B04031D28
:101FB400DF2F3A30DA006530ED2F00302B020A3083
:101FC40003192A020318EF2F2A35A03E8600870141
:101FD400403FDA00413FDB00F12FD901D90A59080B
:101FE4000319F82F023089312F21080020005B08E3
:0C1FF400D6005A08D50089311B210800D6
:020000040001F9
:04000E00FAEFFFFF07
:10E0000006000600060006000600060006000600E0
:10E01000040004007F00FF00FF00FF00FF00FF007E
:00000001FF
