:100000008131432980343E34803120007F08F6005E
:100010002100111C1A282000111C1A28111005306B
:1000200040020318162841088D05182841088C0540
:10003000200018108B190B1CB0281508C5002700CC
:1000400016082000700503193628950124004F0872
:10005000203E8600023087004F082D3C0318CF0A4F
:100060002000450881007009270096052700160822
:1000700015050319B0282000C6002000C61D54280D
:10008000270096112000F11D54282300E00AF21DDC
:100090005028F2116608A4006708A500E601E701F0
:1000A000E70A0319E60A20002000C61C6B28270077
:1000B00096102000711E6B282300E10A721E67282B
:1000C00072126808AA006908AB00E801E901E90AB0
:1000D0000319E80A20002000461E82282700161275
:1000E0002000F11E82282300E20AF21E7E28F2126E
:1000F0006A08B0006B08B100EA01EB01EB0A0319D2
:10010000EA0A20002000461F992827001613200025
:10011000711F99282300E30A721F952872136C0837
:10012000B6006D08B700EC01ED01ED0A0319EC0A09
:1001300020002000C61FB028270096132000F11FC2
:10014000B0282300E40AF21FAC28F2136E08BC00AA
:100150006F08BD00EE01EF01EF0A0319EE0A20005F
:100160002100111CC2282000111CC22811100530CA
:1001700040020318BE2841088D05C02841088C059F
:10018000200018102000911CF9289110F31FCF288F
:10019000F3167108F5007508F2002000F313013022
:1001A0002000AA070030AB3D0130A8020030A93B77
:1001B00029082804031DF9286430A8000030A9008C
:1001C000741CEA281508C50020009E138B127410B9
:1001D0007315F128F41CF128F41095010B118B16FE
:1001E00074140130C202C208031DF9280A30C2008B
:1001F000F3172100111E1A292000111E1A29360892
:100200003A06031914293A08403E86000130870057
:10021000010823009A002000BA0A203020003A0288
:10022000031C1A29BA011A293A083606031D1A298D
:10023000210011128B1A0B1D29290B11731F25295F
:100240002000AC0A031DAD0A29298B123230200090
:10025000B2002100911E3F292000911E3F2920005D
:100260003B08BB0A203E86000130870023001908A6
:100270008100200020003B08203A0319BB017608CA
:100280002000FF00090081314529F301F4012030ED
:100290008400003085002D30883141208131A0302C
:1002A0008400003085004930883141208131203080
:1002B0008400013085004030883141208131803117
:1002C00002208131ED0080310320EE0020008131D9
:1002D000692902302100950023008C018D01203016
:1002E00020008C003F3024008C008B011D30210049
:1002F0009700F3106400D4302000E6006608E9009F
:10030000EB010B306B0203189C296B0889315921D2
:1003100081312000E60069088600870166088100B7
:100320000130E6006608E9070130E6006608EB07E1
:100330000B306B02031C85293F3021008C00DE301E
:100340008D0020000D10803022009D0001309E00A5
:10035000823023009E009D011E119F151E12CF307A
:100360009B009C019E169D171D1621001112200056
:100370009112111223001F121F102000B601BA01A2
:10038000BB01BC018B170B172100911627009401AC
:10039000950196018B152000F001F101F311073052
:1003A0009C007D309B009A0191106430A8000030C1
:1003B000A9000A30E6006608C200210091140B175C
:1003C0008B17E3309E0001309D0023008C018D01CE
:1003D0002100111320001113C230220097002000C9
:1003E000EC010A306C020318032A73146C08823182
:1003F000BB22813101302000E6006608EC070A309C
:100400006C02031CF5297310073028009700553043
:1004100025009E00FF3028009600950121009310D2
:100420002000931088313B2081312000B701CB3070
:10043000E800ED30E7004C30E600E60B1D2AE70B44
:100440001D2AE80B1D2A242A8B31BB238131200071
:10045000EC010A306C0203183C2A6C35A03E860081
:1004600087010030C03FC13F0130E6006608EC075D
:100470000A306C02031C2D2A0A30E6006608C00010
:10048000303098009913111021001110200018101D
:10049000F31C6400F3194E2A20000D10F31D602A8E
:1004A0002100111AB12A16302000E7009B30E60027
:1004B000E60B582AE70B582A20000D10F311B12A39
:1004C000883147208131003A0319B12A8931A321AB
:1004D00081312000E6003708DF3E8600870166088C
:1004E00081000130E6006608B70708303702031CB8
:1004F000B12A0830E6006608B700DF308731C4272C
:1005000081312000E6006608EA006A08013A031D0E
:100510008E2A8E31622681312000922A6A08023AA0
:10052000031D942AB701B12AEC01EC0A08306C02D1
:100530000318AF2A6C08DF3E860087010108E60039
:100540006C08FF3EDF3E86008701660881000130AF
:10055000E6006608EC0708306C02031C9A2A01309A
:10056000B7028431942481318F314F278131863114
:1005700076268131482A2000D2005208D43E8600D7
:1005800087010108D0005008D1008B31BB23823194
:1005900006302000D0005008F70052088831BE20F5
:1005A0008231A03E8600013087000030C03F00301D
:1005B000C13FC23FC33F06302000D0005008F700C3
:1005C00052088831BE208231043EA03E86000130B0
:1005D00087000030C03FC13F0530200052020318A1
:1005E000F92A52080C3E88310A008231D0005008A6
:1005F000F105D208031DFE2A2500930120005208B0
:10060000033A031D052B25009A0120005208083AE1
:10061000031D0C2B2600930120005208093A031DEC
:10062000132B26009A010530200052020318242BB8
:10063000F701F70A52088A3167228231F701200058
:1006400052088A31CC22823120005235A03E8600E9
:1006500087010030C03FC13F0430510203183E2BD8
:10066000053052020318392BF70152088A316722EC
:100670008231200052088D3124250800511B442B63
:100680005108063A031D482B52088B316823080095
:1006900020005108073A031D552B0030F7000030A9
:1006A000F80052088631E7260800D11F7E2BF7019B
:1006B00052088A3167228231200052088B31E523AB
:1006C0008231F701F70A200052088A31CC228231A8
:1006D0002000D2080319F1155208013A03197116C6
:1006E0005208023A0319F1165208033A0319711716
:1006F0005208043A031D0800F1170800D119842B91
:100700005108043A031D9B2BD11D8D2B053052023D
:10071000031C8D2BAE01AE0A0800053052020318EF
:10072000962BF70152088A31672282312000520845
:100730008B31E5230800511EA42B05305202031C07
:100740000800AE01AE0A080052088B31E52308000C
:10075000103020002306031DAF2B02302206031D9C
:10076000B42B8A31F0220800013020002306031D3B
:10077000BB2BFF302206031DCB2B56302706031D53
:10078000C32B78302606031DC72B7314C82B731098
:10079000893142210800AA3020002306031DD22BF4
:1007A00055302206031DE72B12302706031DDA2BD6
:1007B00034302606031DE32BF3141130210097007B
:1007C000893142210800023089312C210800013092
:1007D00020002302003003192202031C302C0130B8
:1007E00023020A30031922020318302C731C2D2C0B
:1007F0002208DB005B08DD00AE015D08D43E860008
:1008000087010108DB005B08DC002608DB005D08CF
:10081000D43E860087015B0881005D088231BB22DF
:10082000833120002E080319262C5C08DB005D08AC
:10083000D43E860087015B0881005D088231BB22BF
:100840008331023089312C2183312B2C8931422193
:1008500083318A314822731408008931422108000B
:100860000030200023020A300319220203187D2CD5
:100870002208D43E860087010108DB005B08DC000B
:100880002708F801F8072608F701F707220886313C
:10089000E72683310038031D7A2C20005C08803A5B
:1008A000031D692C27082604031D7A2C0630DB0063
:1008B0005B08F70022088831BE208331A03E860005
:1008C000013087000030C03F0030C13FC23FC33F0E
:1008D0007A2C20005C08403A031D772C2235A03E7C
:1008E000860087012608C03F2708C13F7A2C89313E
:1008F000F2210800893142210800A03020002206A0
:100900002304031D902C731C8D2C2608DB005B0830
:100910002100DE008A3148228331893142210800DA
:10092000023089312C21080020003208633A031D6F
:10093000532DB508031D9F2C88316A208431063061
:100940002000D2005208F70033088831BE208431DD
:10095000A03E2000D5000130D6003508FF3A031D27
:10096000BA2C5508860056088700FF30C03FFF307C
:10097000C13FCD2C550886005608870081013508F7
:10098000D2005508013ED3000030563DD400530834
:10099000860054088700520881003408103A031D6D
:1009A000FA2C4708D2005508033ED3000030563DCC
:1009B000D400530886005408870052088100490873
:1009C000D2005508053ED3000030563DD4005308F0
:1009D0008600540887005208810055088600560892
:1009E000870042318101550886005608870044314E
:1009F0008101102D3408113A031D102D5508860071
:100A00005608870042314708C03F4808C13F550893
:100A100086005608870044314908C03F4A08C13F54
:100A2000B41E422D4808D2005508023ED3000030C3
:100A3000563DD400530886005408870052088100B0
:100A40004708D2005508033ED3000030563DD4007D
:100A50005308860054088700520881005508860014
:100A600056088700443181014B08D2005508053EE5
:100A7000D3000030563DD400530886005408870048
:100A800052088100B41D502D550886005608870075
:100A90004708C03F4808C13F4908C23F4A08C33F12
:100AA0008B3116230800341E582D8931D7210800B8
:100AB000B41E5D2D853165250800B41D622D8B3176
:100AC0003F2308008B3116230800C82D88314E20A3
:100AD000080009302000D1005108B20088318F2071
:100AE0008531F82D2000931D0800F82D8A312A2227
:100AF00085310038031DF82DFF302000D10051084A
:100B0000B5006330D1005108B2000800CC308D31FF
:100B10005F258531F82D44308D315F258531583082
:100B20002000A0000230A100FA3088315620853123
:100B3000F82D931D08000130A0020030A13B2108D0
:100B400020040319F82DFA30883156200800BE30F1
:100B50008D315F2585312000B001F82D8E31A92619
:100B600085312000D1003008473E860087015108BA
:100B700081000130D1005108B00706303002031C5B
:100B800008006330D1005108B200B501B50A080071
:100B900020003208003A0319662D013A0319692D25
:100BA0000B3A0319722D013A0319762D073A0319EE
:100BB000722D013A0319862D033A03198B2D013A40
:100BC0000319992D1F3A03196E2D013A0319722D3D
:100BD000033A0319762D013A0319722D073A0319C6
:100BE000862D013A0319A72D033A0319AE2DF82DCE
:100BF00001302000D1005108B20708002000E101B7
:100C0000E201AE0100302302A030031922020318D2
:100C10002D2E2308DF002208DE000430DF36DE0C34
:100C2000890B0E2E5E08E0006008E300630888313F
:100C300082208531003A0319222E200063088E316C
:100C4000FA260800200063088C31772485312000C3
:100C50005108E201E20750085F2E10302306031D01
:100C6000332E00302206031D3E2E8831F2208531BE
:100C700020005108E201E20750085F2E10302306E1
:100C8000031D442E01302206031D4F2E8831CF2034
:100C9000853120005108E201E20750085F2E103034
:100CA0002306031D552E02302206031D622E8B31B2
:100CB000912385317B082000E201E2077A08E101F7
:100CC000E107642EAE01AE0A20002E0803196C2E37
:100CD000023089312C21080020006208D801D80791
:100CE0006108D701D7078931182108008B1320002C
:100CF000F21D822EF21123006608A4006708A600E8
:100D0000E601E7018B178B132000721E8F2E7212E3
:100D100023006808AA006908AB00E801E9018B1705
:100D20008B132000F21E9C2EF21223006A08B000E2
:100D30006B08B100EA01EB018B178B132000721FC7
:100D4000A92E721323006C08B6006D08B700EC01E1
:100D5000ED018B138B172000F21FB62EF213230028
:100D60006E08BC006F08BD00EE01EF018B17230079
:100D70008B136008E0018B17A3070030A23DA13D53
:100D8000A03D8B136108E1018B17A9070030A83D36
:100D9000A73DA63D8B136208E2018B17AF07003019
:100DA000AE3DAD3DAC3D8B136308E3018B17B5073A
:100DB0000030B43DB33DB23D8B136408E4018B17A2
:100DC000BB070030BA3DB93DB83D20000800200007
:100DD000CF007808FA007708F900FA36F90CFA36ED
:100DE000F90C7908FB007B08CD0077080339F9007E
:100DF0007908CE00CE0EF030CE050C30F90079081F
:100E0000CE044F08D43E860087010108073A031933
:100E10000B2F00300800CF08031D182F21008D1163
:100E200020004E082500930020004D082500352F96
:100E300020004F08033A031D272F21000D13200027
:100E40004E0825009A0020004D082500452F20005F
:100E50004F08083A031D372F21008C1120004E083F
:100E60002600930020004D08260091004B2F200003
:100E70004F08093A031D472F21000C1220004E088D
:100E800026009A0020004D08260098004B2F2000D5
:100E9000AE010030080020004F35A03E86008701DB
:100EA0007708C03F7808C13F013008008B12F70176
:100EB000200033088A31CC228731FF30FB007B08C9
:100EC0002000B5002A3024004F02031CB32F20005D
:100ED000C4010230FB007B08AF00B101CE01053038
:100EE0004E020318A82FCD0108304D020318902F91
:100EF0000310C40D2F08AF0A203E86000230870081
:100F00006F300102031C882F0130FB007B08C407EF
:100F10000130FB007B08CD0708304D02031C792F00
:100F200004304E020318A02F4408FB007B08B107D1
:100F30004408FB004E08473E860087017B0881007D
:100F40000130FB007B08CE0705304E02031C732FD7
:100F500031084406031DB32FB501B50A6330FB0009
:100F60007B08B20008002000BE08031DBF2F01301F
:100F7000FB007B08BE07AA01AB01B2010800633089
:100F8000FB007B08B2000800860087011600B9004C
:100F90001600B8001600A3001600A2001600A70055
:100FA0001600A6001600A4001600A5000630FB00DF
:100FB0007B08F700DF308E311D268731780820004E
:100FC000D201D2077708D101D10725085206031DA7
:100FD000EB2F240851060319EF2FD301FE2F210018
:100FE0005E0820003906031DB908031DFA2FD3013E
:100FF000D30AFE2F0230FB007B08D3005308080001
:101000000034083402341034403480340134023463
:101010000434083410340034F734FD34EF34BF3472
:101020007F34FE34FD34FB34F734EF34FF340934BD
:101030000B340834053406340034013402340334EC
:02104000043476
:101076008B132000BB01BC018B17080064008001A4
:101086000131890B4228003420003B083C06003021
:10109600031D01300800200033088931712120002A
:1010A600B201B20A0800F700073028009E00770850
:1010B6009D009C01200093110800F70005302800D0
:1010C6009E0077089D009C012000931108008B125A
:1010D6000B11FF302000CB00FF30CC00341E08007F
:1010E60088319E20080021005E08F7007708B400CA
:1010F60020003808F70077082100B5000800F7003F
:101106007708D43E860087010108B83903198D286F
:1011160001300800003008002000330889317121B1
:101126008831F701200033088C31AE2488313F30F6
:101136008831562008008B12F701200033088A31C7
:10114600CC2288316330FB007B082000B2003308D4
:1011560089318A2108002000F500883176208831FF
:1011660001302100B600200075082100B7000430C8
:101176008C31E9240800FA00F9017A1CC6287708A0
:10118600F8007808F9070310F70D0310FA0CFA08AF
:10119600031DC02879080800220097161712FC3094
:1011A60021009E051D308D319C2578082000D10137
:1011B600D1077708D001D00708002000CF004F08DC
:1011C600D43E860087010108063A031D08004D0833
:1011D600CE004E08F7004F088C31AE2408002200DE
:1011E6001708FC3902389700FC3021009E051F3095
:1011F6008D319C2578082000D101D1077708D001D0
:10120600D00708000030200023020A30031922020A
:101216000318142922088931BD2189318831AE206D
:101226000800023089312C2108002000D7008831BF
:101236007620893102302100B600200058082100AE
:10124600B700200057082100B80005308C31E9248A
:1012560008002000D7008831762089312000380820
:101266008038FB007B082100B50020005708FB00F2
:101276007B082100B60003308C31E9240800883150
:1012860076208931200023082100B600200022089C
:101296002100B700200027082100B80020002608FA
:1012A6002100B90006308C31E9240800FA006400F8
:1012B600230095185A297A08F700F8017708910053
:1012C600780892003F30F900790895051514031047
:1012D600151803140030093D13080800F8007808B3
:1012E6000C3E88310A008931F7007708F90005308D
:1012F6007802031884297908F700770821008D05FC
:1013060008007908F700770821008C050800F80026
:101316007808013E88310A008931F7007708F9001C
:101326000530780203189D297908F700770821000F
:101336008D0408007908F700770821008C0408005E
:10134600883147208931003A0319A32920003C0837
:10135600203E8600013087000108F7007708F80074
:101366000130F7007708BC0720303C020318BC01A7
:1013760078080800F900053079020318C52920000D
:101386000D08C72920000C08F7007708F80079082F
:10139600013E88310A008931F7007708F8050030E8
:1013A600F808031D0130080020003208623A0319CC
:1013B60008003208323A031DE32987315627080010
:1013C60020003208633A031908003208013A031D67
:1013D600EF298D31DC2508008C31402408000030CF
:1013E600200023020A30031922020318092A2708BB
:1013F60026040030031D0130D8005808CD0022080D
:101406008831E02089318931422108000230893152
:101416002C210800F9007908013E88310A008A313A
:10142600F7007708FA000530790203181D2A200014
:101436000D081F2A20000C087A05F7007708F80027
:10144600F808031D282A0030080001300800200093
:10145600330889318A218A31B430883160208A3153
:101466002000931D332A33088A310D228A31FB006E
:101476007B0C731203187316731E432A0030080080
:1014860033308831562001300800D430FB007B0809
:101496002000CD00CE010B304E02031808004D0887
:1014A600860087010108FB007B08F7004E088A3199
:1014B600A9228A310130FB007B082000CD070130CC
:1014C600FB007B08CE074E2AF90005307902031887
:1014D600832A77080319792A7908013E88310A0098
:1014E6008A31F800780824008D04080079080C3E3B
:1014F60088310A008A31F800780824008D05080032
:101506002000AE01AE0A0800F8007808F700770858
:101516002000BF07360AF7007708F9002030790265
:101526000318F90179083A060319952A7808F7008D
:101536003608403E8600013087007708810079082A
:10154600F7007708B600210011160800FA002300FC
:101556009518AA2A7A08F800F901780891007908FE
:101566009200770893003F30F80078089505200030
:1015760003108B1B03148B1323001515553096008F
:10158600AA309600951415112000031C08008B172D
:101596000800FA0005307A0203180800F708031D50
:1015A600E22A7A080C3E88310A008A31F800780867
:1015B600F9008B137908270095058B1708007A0820
:1015C600013E88310A008A31F8007808F9008B1349
:1015D6007908270095048B17080020002708D901F1
:1015E600D9072608D801D807DA010A305A020318A3
:1015F600132B58080139D7005708CD005A088831EF
:10160600E0208A3101302000D936D80C890B072B0F
:101616000130D7005708DA070A305A02031CFC2AA1
:101626008931422108002000BE010130F700770809
:10163600B3070A3033020318B3013308D43E8600D9
:1016460087010108F7007708B400B201B501AA01C5
:10165600AB018B127313B4197317F80106307802B5
:10166600031808007808473E86008701810101308B
:10167600F7007708F807312B2000B208031D462B28
:101686008C311024080020003208013A031D08009E
:10169600731D0800C7012D08F7007708C8002C083D
:1016A600F7007708C9004508F7007708CA00AC01BB
:1016B600AD01C5016330F7007708B200B501B50A80
:1016C6009E13210095128B120800FA007A08D43E68
:1016D600860087010108F7007708F8007A080C3EB3
:1016E60088310A008B31F7007708F90005307A0255
:1016F6000318872B7908F700770820008D0521004D
:101706008D0523008D0508007908F700770820006D
:101716008C0521008C0523008C0508002000CF01D4
:10172600D001D1010A3051020318B42B0130CF3554
:10173600D00D890B9A2B510AFF3A013E0A3E893198
:10174600BD218B312000CD00CE014D08CF044E08BF
:10175600D0040130CD004D08D1070A305102031CD8
:10176600992B5008FB01FB074F08FA01FA070800FE
:101776002000CD010A304D02031808004D08D43E62
:10178600860087010108103A0319D12B4D08D43E73
:10179600860087010108113A031DD62BF7014D0873
:1017A6008A31CC228B312000B20121005408FB0083
:1017B6007B082000B400B301F0010130FB007B0878
:1017C600CD07BD2BFA007A08013E88310A008B311D
:1017D600F7007708F8007A080C3E88310A008B314A
:1017E600F7007708F90005307A020318052C780807
:1017F600F700770821008D047908F70077082300A1
:101806008D0508007808F700770821008C04790810
:10181600F700770823008C0508002000B501B50AFB
:10182600B201B20A3308173E88310A008C319F0094
:101836009E138B12AC01AD019501F4107410731157
:101846003408083A031D292C8130362C3408093A0D
:10185600031D2F2C8530362C34080A3A031D352CEF
:101866008930362C8D309E0020302100950095164B
:101876008B127317F41473110800033020002B0227
:10188600E93003192A02031C0800AA01AB01330838
:101896000C3E88310A008C31F7007708F8008B136C
:1018A6007808F7007708270095057808F700770885
:1018B60096058B178B137808F700770821008D059E
:1018C6007808F700770820008D058B17B201B20A59
:1018D6002830F7007708AF00C401B00102302100BC
:1018E60095002000950108002000D500AE0155089E
:1018F600D43E860087010108D2005208D400043085
:10190600540203189A2C55088D3124258C31200059
:101916005508173E88310A008C318D319C25780890
:101926002000D101D1077708D001D0070800073081
:1019360054020318A92C55088A310D222000D20022
:10194600D3015208D0005308D1000800FF30D00060
:10195600FF30D1000800FB007B08013E88310A00F9
:101966008C31F8007808F9007B080C3E88310A00B3
:101976008C31F8007808FA0005307B020318D62C63
:10198600F708031DCE2C8B137A08F8007808200080
:101996008D058B1708008B137908F800780820004E
:1019A6008D048B170800F708031DE12C8B137A08AA
:1019B600F800780820008C058B1708008B1379082F
:1019C600F800780820008C048B1708002000D3004C
:1019D600B908031908001630D2009B30D100D10B8C
:1019E600F22CD20BF22C20005308D1005108F7003C
:1019F600B4308E311D268C3178082000D501D507EC
:101A06007708D401D407F3150D14D60153085602EE
:101A160003181B2D5608B43E8600870101088A313B
:101A260087228C3101302000D1005108D607092DBC
:101A360054088A3187228C31200055088A31872242
:101A46000800F9007908D43E860087010108F700EE
:101A56007708F8007908013E88310A008D31F700D1
:101A66007708FA00053079020318442D7A08F70042
:101A7600770821008D047A08F700770823008D0483
:101A86004E2D7A08F700770821008C047A08F700B3
:101A9600770823008C04220017087806FC3978069C
:101AA6009700F808031D5B2DFC3021009E050800F9
:101AB600033021009E0408002000CE00D001D00A89
:101AC6000830CD004D08CF00CF08031908008B134E
:101AD6003308893171218D31F701200033088C31AB
:101AE600AE248D3120004E08500503197E2D0000CE
:101AF60000008B17862D8B177830883160208D314A
:101B06002000931D832D2000330889318A218D31D1
:101B160020004E0850050319972D78308831602033
:101B26008D312000931D942D0310D00D0130CF026E
:101B3600672D2000CD002100111320001113210074
:101B46001D141D1420004D08F900F90DF90D210092
:101B56001D087906833979069D000B30FA0062303C
:101B6600F900F90BB42DFA0BB42D000021009D14D9
:101B76009D18BB2D0B30FA006230F900F90BC12D10
:101B8600FA0BC12D000021009D149D18C82D1C08BC
:101B9600F90079082000CF0021001B08F900790818
:101BA6002000CE004F08F801F8074E08F701F707A6
:101BB600080020003308013E88310A008D31F70005
:101BC6007708F9007909F7007708F800B5010030C1
:101BD6002B02153003192A02031C08006230F70095
:101BE6007708B2008B137808F70077082700960568
:101BF6007908F700770895048B177908F7007708B6
:101C06002000F0002400CF018B15200095010B1158
:101C16008B168B1395017908F700770821008D0440
:101C26008B1700000000000000000000000000000C
:101C3600000008002000CD00FF30CF00FF30D000AC
:101C4600F70803195B2E4D08860087014F08010629
:101C5600CF005008D0000130F9007908CD070830D0
:101C6600F9007908CE00CE080319562E4F1C472ED0
:101C76005008FA004F08F900FA36F90C01307906D7
:101C8600CF00A0307A06502E5008FA004F08F9000F
:101C9600FA36F90C7908CF007A08D0000130CE0266
:101CA600CE08031D392E0130F702F708031D262E34
:101CB6005008F801F8074F08F701F7070800200059
:101CC600390803196C2E21005E0820003906031D11
:101CD60008000930E5004E30E400E40B702EE50BF9
:101CE600702E000020003808013A031D7D2E893130
:101CF6000521080020003808023A031D852E893187
:101D06000521080020003808033A031D8D2E8F3167
:101D1600A727080020003808043A031D952E8531B0
:101D2600FE25080020003808053A031D9D2E89313E
:101D3600F221080020003808063A031DA52E83313B
:101D4600A8230800013089312C2108002000CE018B
:101D5600CE0ACF010830CD004D08D000D0080319B7
:101D6600F82E3308893171218E31F70120003308AE
:101D76008C31AE248E318B13000000000000000071
:101D860000000000000000002000330889318A218D
:101D96008E3100000000000000000000000000007E
:101DA60000000130883160208E312000931DD82E2E
:101DB60033088A310D228E31003A0319E92E8B172A
:101DC60020004E08CD004D08CF04EA2E8B17783040
:101DD600883160208E312000931DEE2E0310CE0D2B
:101DE6000130D002D008031DB42E4F080800200091
:101DF600DB00DA01DD015B08D43E860087010108BD
:101E0600D8005808DC0008305C02031C1A2F10307A
:101E16005C020318102F0430172F5C08403A031D8C
:101E2600162FDD011A2F0630D8005808DD00DD0810
:101E3600031D212F023089312C210800883176209C
:101E46008E3120005D08D80058082100B600063003
:101E56002000D8005808F7005B088831BE208E3174
:101E66002000D9005908DC0001308500A0305C074D
:101E7600840000308700B73086005D08DA008B13D7
:101E860000081E00840ADA0B432F8B1720005D081A
:101E9600033E8C31E92408002000181808000130A0
:101EA600F7007708C0070B304002031C5F2FC00104
:101EB6002030ED004E30EE0040080C3E88310A001E
:101EC6008F31F7007708C10040080A3A031D712FC9
:101ED600EE1B08006D09F7006E09842F4035A03E01
:101EE60086008701403FFA00413FFB007A08ED0279
:101EF6007B08EE3B7B087A04031908007A09F70091
:101F06007B09F800F70A0319F80A7708960078089B
:101F1600970011102100111420004008013E88315D
:101F26000A008F31F7007708F900053040020318E0
:101F3600A02F8B1379088D04A32F8B1379088C049B
:101F4600200018148B1708002000DB010130230243
:101F5600003003192202031CBD2F013023020B306F
:101F6600031922020318BD2F2208D43E86008701DA
:101F76000108C52FA03022062304031DCB2F210004
:101F86005E082000D900DA015908DC005A08EB2F58
:101F9600FA3022062304031DD42F0530DC0001305D
:101FA600EB2FFB3022062304031DDD2F3A30DC0025
:101FB6006530EB2F003023020A3003192202031882
:101FC600ED2F2235A03E86008701403FDC00413FD1
:101FD600DD00EF2FDB01DB0A5B080319F62F023069
:101FE60089312C21080020005D08D801D8075C083B
:0A1FF600D701D70789311821080030
:020000040001F9
:04000E00FAEFFFFF07
:10E0000006000600060006000600060006000600E0
:10E01000040004007F00FF00FF00FF00FF00FF007E
:00000001FF
