:10000000813143297E14803120007F08F6002100D1
:10001000111C19282000111C19281110053042024A
:100020000318152841088D05172841088C05200064
:1000300018108B190B1CAF281508C80027001608CC
:100040002000700503193528950124004F08203E33
:100050008600023087004F082D3C0318CF0A20008D
:100060004808810070092700960527001608150525
:100070000319AF282000B4002000B41D5328270026
:1000800096112000F11D53282300E00AF21D4F288D
:10009000F2116608A4006708A500E601E701E70A77
:1000A0000319E60A20002000B41C6A2827009610D5
:1000B0002000711E6A282300E10A721E662872124F
:1000C0006808AA006908AB00E801E901E90A031918
:1000D000E80A20002000341E812827001612200084
:1000E000F11E81282300E20AF21E7D28F2126A081E
:1000F000B0006B08B100EA01EB01EB0A0319EA0A50
:1001000020002000341F9828270016132000711F9C
:1001100098282300E30A721F942872136C08B60013
:100120006D08B700EC01ED01ED0A0319EC0A20009F
:100130002000B41FAF28270096132000F11FAF281E
:100140002300E40AF21FAB28F2136E08BC006F080C
:10015000BD00EE01EF01EF0A0319EE0A20002100B5
:10016000111CC1282000111CC128111005304202A9
:100170000318BD2841088D05BF2841088C052000C3
:1001800018102000911CF8289110F31FCE28731727
:100190007108F5007508F2002000F313013020000B
:1001A000B2070030B33D0130AC020030AD3B2C084B
:1001B0002D04031DF8286430AC000030AD00F31EA0
:1001C000E9281508C80020009E138B12F31273163D
:1001D000F028F31DF028F31195010B118B16F3167F
:1001E0000130BE023E08031DF8280A30BE00F31796
:1001F0002100111E19292000111E19293D083C0655
:10020000031913293C08403E86000130870001088D
:1002100023009A002000BC0A203020003C02031C6E
:100220001929BC0119293C083D06031D1929210083
:1002300011128B1A0B1D28290B11741C2429200064
:10024000AE0A031DAF0A28298B1232302000CB00E2
:100250002100911E3E292000911E3E2920003B08CE
:10026000BB0A203E86000130870023001908810068
:100270002000203020003B060319BB017608200037
:10028000FF007E1009008731DB2FF70007302800C0
:100290009E0077089D009C0120009311080020001B
:1002A000181808000130F7007708C2070B30420227
:1002B000031C5F29C2012030EA004E30EB004208E7
:1002C0000B3E840088300318013E85000008F700CB
:1002D0007708C1000A304206031D7429EB1B080091
:1002E0006A09F7006B0987294235A03E860087011D
:1002F000403FFA00413FFB007A08EA027B08EB3BF3
:100300007A087B04031908007A09F7007B09F800D2
:10031000F70A0319F80A7708960078089700111071
:100320002100111420004208003E84008830031888
:10033000013E85000008F7007708F9000530420209
:100340000318A6298B1379088D04A9298B13790822
:100350008C04200018148B1708002000E001E10134
:10036000BF0100302B02A03003192A020318DB2939
:100370002B08DE002A08DD000430DE36DD0C890B98
:10038000BD295D08DF005F08E200620888318B202C
:100390008131003A0319D129200062088F31542796
:1003A0000800200062088C31992481312000510816
:1003B000E1005008042A10302B062A04031DE82906
:1003C0008831E720813120005108E1005008042ADB
:1003D0002A03103003192B06031DF6298831A720A4
:1003E000813120005108E1005008042A02302A0619
:1003F000103003192B06031D062A8B315C23813133
:100400007B082000E1007A08E000082ABF01BF0A4B
:1004100020003F080319102A0230893131210800D9
:1004200020006108D6006008D50089311D21080030
:100430008B12F70120004C088B3185238231FF306D
:10044000FB007B082000CA002A3024004F02031C56
:10045000752A2000C6010230FB007B08C700C501D9
:10046000CE0105304E0203186A2ACD0108304D0234
:100470000318522A0310C60D4708C70A203E8600FB
:10048000023087006F300102031C4A2A0130FB0052
:100490007B08C6070130FB007B08CD0708304D0202
:1004A000031C3B2A04304E020318622A4608FB0054
:1004B0007B08C5074608FB004E08203E86008701E2
:1004C0007B0881000130FB007B08CE0705304E021F
:1004D000031C352A45084606031D752ACA01CA0AA7
:1004E0006330FB007B08CB00080020004908031D97
:1004F000812A0130FB007B08C907B201B301CB019F
:1005000008006330FB007B08CB0008002000CF0010
:100510007808FA007708F900FA36F90CFA36F90C7F
:100520007908FB007B08CD0077080339F9007908CA
:10053000CE00CE0EF030CE050C30F9007908CE0496
:100540004F08D43E86008701073001060319AA2A06
:10055000003008004F08031DB72A21008D1120002C
:100560004E082500930020004D082500D42A0330B2
:1005700020004F06031DC62A21000D1320004E083F
:1005800025009A0020004D082500E42A08302000AC
:100590004F06031DD62A21008C1120004E0826008C
:1005A000930020004D0826009100EA2A093020001F
:1005B0004F06031DE62A21000C1220004E082600DB
:1005C0009A0020004D0826009800EA2A2000BF016A
:1005D0000030080020004F35A03E860087017708D4
:1005E000C03F7808C13F013008008B132000F21D86
:1005F000012BF21123006608A4006708A600E6019B
:10060000E7018B178B132000721E0E2B7212230032
:100610006808AA006908AB00E801E9018B178B1391
:100620002000F21E1B2BF21223006A08B0006B0898
:10063000B100EA01EB018B178B132000721F282BEE
:10064000721323006C08B6006D08B700EC01ED01D1
:100650008B138B172000F21F352BF21323006E082B
:10066000BC006F08BD00EE01EF018B1723008B1358
:100670006008E0018B17A3070030A23DA13DA03D1B
:100680008B136108E1018B17A9070030A83DA73D36
:10069000A63D8B136208E2018B17AF070030AE3D19
:1006A000AD3DAC3D8B136308E3018B17B5070030FC
:1006B000B43DB33DB23D8B136408E4018B17BB0717
:1006C0000030BA3DB93DB83D20000800C92B883143
:1006D0005820080009302000D1005108CB00883193
:1006E00098208331F92B2000931D0800F92B8931C4
:1006F000FF218331003A031DF92BFF302000D10088
:100700005108CA006330D1005108CB000800CC303A
:100710008D3181258331F92B44308D318125833111
:1007200058302000B0000230B100FA30813145214C
:100730008331F92B931D08000130B0020030B13B2A
:10074000300831040319F92BFA30813145210800B2
:10075000BE308D31812583312000C401F92B8F31CA
:100760000A2783312000D1004408203E86008701FB
:10077000510881000130D1005108C40706304402FD
:10078000031C08006330D1005108CB00CA01CA0A1B
:10079000080020004B08003A0319672B013A03199F
:1007A0006A2B0B3A0319732B013A0319772B073A7B
:1007B0000319732B013A0319872B033A03198C2B66
:1007C000013A03199A2B1F3A03196F2B013A0319A7
:1007D000732B033A0319772B013A0319732B073A4A
:1007E0000319872B013A0319A82B033A0319AF2BDE
:1007F000F92B01302000D1005108CB0708006330ED
:1008000020004B06031D9E2C4A08031D0A2C88312C
:100810007320833106302000D2005208F7004C08C4
:100820008831D6208331A03E2000D3005308D40065
:100830004A0A031D242C5408860001308700FF302B
:10084000C03FFF30C13F312C540886000130870083
:1008500081014A08D200540A8600013087005208FC
:10086000810010304306031D542C2008D200540888
:10087000033E860001308700520881002208D20022
:100880005408053E86000130870052088100540854
:10089000023E86000130870081015408043E860034
:1008A0000130870081016A2C11304306031D6A2C38
:1008B0005408023E8600013087002008C03F21080E
:1008C000C13F5408043E8600013087002208C03F23
:1008D0002308C13FC31E8D2C2108D2005408023EBC
:1008E000860001308700520881002008D200540899
:1008F000033E860001308700520881005408043E00
:1009000086000130870081012408D2005408053E8A
:1009100086000130870052088100C31D9B2C5408BB
:100920008600013087002008C03F2108C13F22080F
:10093000C23F2308C33F8B3133230800431EA32C3F
:10094000893176210800C31EA82C83316623080054
:10095000C31DAD2C8B310B2308008B3133230800D2
:10096000023020002A06103003192B06031DBB2C71
:100970008A31C122080020002A0A031DCF2C2B0334
:10098000031DCF2C78302806563003192906031D85
:10099000CB2CF314CC2CF3108931472108005530AF
:1009A00020002A06AA3003192B06031DE92C343037
:1009B0002806123003192906031DE52C7314113083
:1009C0002100970089314721080002308931312107
:1009D0000800013020002B02003003192A02031CFA
:1009E000322D01302B020A3003192A020318322D4E
:1009F000F31C2F2D2A08D9005908DB00BF015B0822
:100A0000D43E860087010108D9005908DA00280879
:100A1000D9005B08D43E86008701590881005B0835
:100A200085319825843120003F080319282D5A0864
:100A3000D9005B08D43E86008701590881005B0815
:100A400085319825843102308931312184312D2D31
:100A50008931472184318A311D22F31408008931FC
:100A600047210800003020002B020A3003192A0217
:100A70000318812D2A08D43E860087010108D90079
:100A80005908DA002908F8002808F7002A088231F6
:100A900086228431003A031D7E2D803020005A06C4
:100AA0000319562D81305A06031D6D2D280829047F
:100AB000031D7E2D0630D9005908F7002A08883119
:100AC000D6208431A03E8600013087000030C03F30
:100AD0000030C13FC23FC33F7E2D403020005A0648
:100AE000031D7B2D2A35A03E860087012808C03FC4
:100AF0002908C13F7E2D8931E22108008931472133
:100B00000800A03020002A062B04031D942DF31C9E
:100B1000912D2808D90059082100DE008A311D22B4
:100B200084318931472108000230893131210800A0
:100B30002000D2005208D43E860087010108D00070
:100B40005008D1008B31AF23853106302000D00012
:100B50005008F70052088831D6208531A03E860023
:100B6000013087000030C03F0030C13FC23FC33F6B
:100B700006302000D0005008F70052088831D620F7
:100B80008531043EA03E8600013087000030C03F22
:100B9000C13F0530200052020318D92D52080B3EE8
:100BA000840088300318013E85000008D0005008FA
:100BB000F1055208031DDE2D2500930103302000AE
:100BC0005206031DE52D25009A010830200052062B
:100BD000031DEC2D26009301093020005206031D51
:100BE000F32D26009A010530200052020318042E2E
:100BF000F701F70A52088A31E5228531F701200012
:100C000052088B318523853120005235A03E860065
:100C100087010030C03FC13F0430510203181E2E2F
:100C2000053052020318192EF70152088A31E522C5
:100C30008531200052088D31BE250800511B242E1D
:100C400006305106031D282E52088B31D923080087
:100C5000073020005106031D342E0030F700F80045
:100C60005208823186220800D11F5E2E51183D2E77
:100C7000F70152088A31E5228531200052088C3173
:100C800035248531F701F70A200052088B3185237E
:100C90008531200052080319F1155203031971160A
:100CA000023052060319F116033052060319711768
:100CB00004305206031D0800F1170800D119642EF4
:100CC00004305106031D7B2ED11D6D2E05305202BE
:100CD000031C6D2EBF01BF0A080005305202031825
:100CE000762EF70152088A31E5228531200052081C
:100CF0008C3135240800511E842E05305202031C0D
:100D00000800BF01BF0A080052088C3135240800D2
:100D1000F030210099000230950023008C018D01F4
:100D2000203020008C003F3024008C008B011D30CF
:100D30002100970073106400D4302000E4006408A0
:100D4000E600E8010B3068020318BD2E68088931FF
:100D50005E2186312000E400660886008701640871
:100D600081000130E4006408E6070130E400640813
:100D7000E8070B306802031CA62E3F3021008C00D0
:100D8000DE308D0020000D10803022009D000130EB
:100D90009E00823023009E009D011E119F151E1291
:100DA000CF309B009C019E169D171D16210011122D
:100DB00020009112111223001F121F102000BD01EC
:100DC000BC01BB01BA018B170B172100911627003C
:100DD0009401950196018B152000F001F10173112A
:100DE00007309C007D309B009A0191106430AC006C
:100DF0000030AD000A30E4006408BE002100911408
:100E00000B178B17E3309E0001309D0023008C01EF
:100E10008D012100111320001113C2302200970010
:100E20002000E9010A3069020318242FF31469082D
:100E300085319825863101302000E4006408E907F7
:100E40000A306902031C162FF310073028009700A0
:100E5000553025009E00FF302800960095012100A6
:100E600093102000931088314C2086312000B5016A
:100E7000CB302000E500EC30E4008430890B3E2FBD
:100E8000E40B3E2FE50B3E2F00008B31AF23863164
:100E90002000E9010A30690203185D2F6935A03E80
:100EA000860087010030C03FC13F0130E400640884
:100EB000E9070A306902031C4E2F0A30E400640877
:100EC000C200303098009913111021001110200039
:100ED0001810731C640073196F2F20000D10731D00
:100EE000812F2100111AD12F09302000E4004E304B
:100EF000890B782FE40B782F000020000D10731160
:100F0000D12F883160208631003A0319D12F8931E1
:100F1000902186312000E4003508DF3E86008701FD
:100F2000640881000130E4006408B5070830350228
:100F3000031CD12F0830E4006408B500DF308C3189
:100F4000D12486312000E4006408E7006703031D14
:100F5000AE2F8E31C42686312000B22F02306706B4
:100F6000031DB42FB501D12FE901E90A0830690248
:100F70000318CF2F6908DF3E860087010108E400CF
:100F80006908FF3EDF3E860087016408810001306A
:100F9000E4006408E90708306902031CBA2F013035
:100FA000B5028331FF23863181314F218631823171
:100FB000F5228631692F88314A208731EA0088314D
:100FC0004B208731EB00F301F40120308400003026
:100FD00085002D30883152208731A03084000030C8
:100FE000850049308831522087312030840001301B
:100FF00085004030883152207E1020008631882EB6
:10100000083402341034403480340134023404345F
:10101000083410340034F734FD34EF34BF347F34F7
:10102000FE34FD34FB34F734EF34FF3409340B3431
:1010300008340534063400340134023403340434F3
:1010940080343E348B132000BB01BA018B17080047
:1010A400640080010131890B5328003420004C086E
:1010B4008931C6212000CB01CB0A080020003B085F
:1010C4003A06031967280130080000300800F700C9
:1010D400053028009E0077089D009C012000931194
:1010E40008008B120B11FF302000A400FF30A50074
:1010F400431E08008831B620080021005E08F7006E
:101104007708B40020003708F70077082100B500FD
:101114000800F7007708D43E860087010108B83933
:1011240003199628013008000030080020004C08FC
:101134008931C6218831F70120004C088D31FC2506
:1011440088313F308131452108002200971617125B
:10115400FC3021009E051D308D3145257808200086
:10116400D1007708D00008008B12F70120004C084A
:101174008B31852388316330FB007B082000CB0052
:101184004C088931AA2108002000F50088317F200D
:10119400883101302100B600200075082100B70015
:1011A40004308C3105240800FA00F9017A1CDE2889
:1011B4007708F8007808F9070310F70D0310FA0C04
:1011C4007A08031DD8287908080022001708FC397A
:1011D40002389700FC3021009E051F308D314525D3
:1011E40078082000D1007708D00008002000CF0044
:1011F4004F08D43E8600870106300106031D08000F
:101204004D08CE004E08F7004F088D31FC2508002C
:10121400003020002B020A3003192A02031819296E
:101224002A088A313C2289318831C62008000230DC
:101234008931312108002000D50088317F2089318F
:1012440002302100B600200056082100B70020001B
:1012540055082100B80005308C3105240800200011
:10126400D60088317F208931200037088038D500A6
:1012740055082100B50020005608D5005508210066
:10128400B60003308C310524080088317F20893171
:1012940020002B082100B60020002A082100B700F6
:1012A400200029082100B800200028082100B900E6
:1012B40006308C3105240800FA00640023009518D8
:1012C4005F297A08F700F8017708910078089200FE
:1012D4003F30F90079089505151403101518031407
:1012E4000030093D13080800623020004B06031942
:1012F400080032304B06031D82298231182208006F
:10130400633020004B06031908004B03031D8D298D
:101314008E31802608008D310B250800883160202D
:101324008931003A0319902920003A08203E8600AA
:10133400013087000108F7007708F8000130F70052
:101344007708BA0720303A020318BA01780808006F
:10135400F8007808003E840088300318013E8500B8
:101364000008F7007708F900053078020318C0294F
:101374007908F700770821008D0408007908F70040
:10138400770821008C040800F80078080B3E8400DC
:1013940088300318013E85000008F7007708F9003B
:1013A400053078020318DC297908F7007708210052
:1013B4008D0508007908F700770821008C050800DE
:1013C400003020002B020A3003192A020318FB29DB
:1013D400280829040319F0290130F1290030D70025
:1013E4005708CD002A088831F820893189314721EE
:1013F4000800023089313121080020004C0889316D
:10140400AA218931B4308831692089312000931DA3
:10141400082A4C088A315B228931FB007B0CF410CA
:101424000318F414F41C182A0030080033308131F6
:10143400452101300800D430FB007B082000CD009A
:10144400CE010B304E02031808004D0886008701B8
:101454000108FB007B08F7004E088A319E228A317E
:101464000130FB007B082000CD070130FB007B0826
:10147400CE07232AF900053079020318442A2000F4
:101484000D08462A20000C08F7007708F8007908B0
:10149400003E840088300318013E85000008F700F0
:1014A4007708F80578080319592A01300800003034
:1014B4000800F9007908003E840088300318013ED2
:1014C40085000008F7007708FA0005307902031850
:1014D4006E2A20000D08702A20000C087A05F700F7
:1014E4007708F8007808031D792A003008000130D5
:1014F4000800F8007808F70077082000B9073D08CD
:10150400013EF7007708F900203079020318F90149
:1015140079083C0603198A2A7808F7003D08403EFA
:10152400860001308700770881007908F700770882
:10153400BD00210011160800FA00230095189F2A07
:101544007A08F800F9017808910079089200770880
:1015540093003F30F80078089505200003108B1B9A
:1015640003148B132300151555309600AA309600EA
:10157400951415112000031C08008B170800200087
:101584002908D7002808D600D8010A3058020318C1
:10159400E22A56080139D5005508CD00580888318B
:1015A400F8208A3101302000D736D60C890BD62A90
:1015B4000130D5005508D8070A305802031CCB2A3D
:1015C400893147210800F900053079020318072BF7
:1015D40077080319FA2A7908003E84008830031832
:1015E400013E85000008F800780824008D040800F6
:1015F40079080B3E840088300318013E85000008FA
:10160400F800780824008D0508002000BF01BF0AF7
:10161400080020004B08031D122B8C31662408009F
:1016240020004B03031D0800731E0800A0012F08AF
:10163400F7007708A1002E08F7007708A2004808F1
:10164400F7007708A300AE01AF01C8016330F700CB
:101654007708CB00CA01CA0A9E13210095128B1287
:1016640008002000C9010130F7007708CC070A30D0
:101674004C020318CC014C08D43E860087010108B3
:10168400F7007708C300CB01CA01B201B3018B1282
:101694007410C3197414F801063078020318080092
:1016A4007808203E8600870181010130F700770821
:1016B400F8074E2B2000CF01D001D1010A3051028E
:1016C4000318802B0130CF35D00D890B652B5108C1
:1016D400013EFF3A013E0A3E8A313C228B31200012
:1016E400CD00CE014D08CF044E08D0040130CD000A
:1016F4004D08D1070A305102031C642B5008FB002B
:101704004F08FA000800FA0005307A0203180800AE
:101714007708031D9E2B7A080B3E8400883003183B
:10172400013E85000008F8007808F9008B13790859
:10173400270095058B1708007A08003E840088303E
:101744000318013E85000008F8007808F9008B139F
:101754007908270095048B1708002000CD010A3072
:101764004D02031808004D08D43E8600870110304E
:1017740001060319C52B4D08D43E8600870111309C
:101784000106031DCA2BF7014D088B3185238B31CC
:101794002000CB0121005408FB007B082000C3007B
:1017A400CC01F0010130FB007B08CD07B12BFA001E
:1017B4007A08D43E860087010108F7007708F8000C
:1017C4007A080B3E840088300318013E8500000827
:1017D400F7007708F90005307A020318FB2B790823
:1017E400F700770820008D0521008D0523008D0565
:1017F40008007908F700770820008C0521008C0583
:1018040023008C0508002000D100360803190800C5
:101814005108FB007B08F700B4308E313D268C3133
:1018240078082000D3007708D20073150D14D40172
:101834005108540203182C2C5408B43E8600870126
:1018440001088A317B228C310130FB007B082000A7
:10185400D4071A2C52088A317B228C312000530879
:101864008A317B220800FA007A08003E840088301E
:101874000318013E85000008F7007708F8007A088D
:101884000B3E840088300318013E85000008F700F1
:101894007708F90005307A0203185B2C7808F70002
:1018A400770821008D047908F700770823008D0557
:1018B40008007808F700770821008C047908F700FD
:1018C400770823008C0508002000CA01CA0ACB014E
:1018D400CB0A4C08163E840088300318013E85006C
:1018E40000089F009E138B12AE01AF019501F31106
:1018F400F312731208304306031D822C81308F2C9F
:1019040009304306031D882C85308F2C0A3043068A
:10191400031D8E2C89308F2C8D309E0020302100A9
:10192400950095168B127414F31573120800200099
:10193400D500BF015508D43E860087010108D200B6
:101944005208D400043054020318BD2C55088D31BC
:10195400BE258C3120005508163E840088300318BB
:10196400013E850000088D31452578082000D1000E
:101974007708D0000800073054020318CC2C55080F
:101984008A315B222000D200D3015208D0005308D0
:10199400D1000800FF30D000FF30D10008008600DD
:1019A40087011600B6001600B7001600AB0016003B
:1019B400AA001600A9001600A8001600A60016002A
:1019C400A7000630FB007B08F700DF308E313D2690
:1019D4008C3178082000D3007708D20027085306FA
:1019E400031DF62C260852060319FA2CD401092DDE
:1019F40021005E0820003606031D3608031D052D50
:101A0400D401D40A092D0230FB007B08D400540809
:101A14000800033020003302E93003193202031CAA
:101A24000800B201B3014C080B3E8400883003184F
:101A3400013E85000008F7007708F8008B1378084A
:101A4400F7007708270095057808F70077089605CA
:101A54008B178B137808F700770821008D05780819
:101A6400F700770820008D058B17CB01CB0A2830AF
:101A7400F7007708C700C601C401023021009500B1
:101A84002000950108002000CD0021001113200042
:101A9400111321001D141D1420004D08F900F90D27
:101AA400F90D21001D087906833979069D000B3054
:101AB400F9006230890B5C2DF90B5C2D003221009A
:101AC4009D149D18632D0B30F9006230890B682D2D
:101AD400F90B682D003221009D149D186F2D1C08F0
:101AE400F90079082000CF0021001B08F9007908CB
:101AF4002000CE004F08F8004E08F7000800200030
:101B0400CE00D001D00A0830CD004D08CF004F08D8
:101B1400031908008B134C088931C6218D31F70154
:101B240020004C088D31FC258D3120004E085005D5
:101B34000319A02D000000008B17A82D8B177830F7
:101B4400883169208D312000931DA52D20004C087B
:101B54008931AA218D3120004E0850050319B92D71
:101B64007830883169208D312000931DB62D031003
:101B7400D00D0130CF02892DF9007908D43E8600BA
:101B840087010108F7007708F8007908003E84000F
:101B940088300318013E85000008F7007708FA0032
:101BA400053079020318E12D7A08F700770821003F
:101BB4008D047A08F700770823008D04EB2D7A084A
:101BC400F700770821008C047A08F70077082300CF
:101BD4008C04220017087806FC39780697007808E8
:101BE400031DF82DFC3021009E0508000330210060
:101BF4009E040800FB007B08003E84008830031824
:101C0400013E85000008F8007808F9007B080B3EC7
:101C1400840088300318013E85000008F800780825
:101C2400FA0005307B0203182A2E7708031D222EA2
:101C34008B137A08F800780820008D058B170800AC
:101C44008B137908F800780820008D048B1708009E
:101C54007708031D352E8B137A08F80078082000C6
:101C64008C058B1708008B137908F800780820007E
:101C74008C048B1708002000CD00FF30CF00FF300C
:101C8400D000770803197B2E4D08860087014F0882
:101C94000106CF005008D0000130F9007908CD07C3
:101CA4000830F9007908CE004E080319762E4F1C2F
:101CB400672E5008FA004F08F900FA36F90C013083
:101CC4007906CF00A0307A06702E5008FA004F082B
:101CD400F900FA36F90C7908CF007A08D0000130FF
:101CE400CE024E08031D592E0130F7027708031D5A
:101CF400462E5008F8004F08F700080020004C0852
:101D0400003E840088300318013E85000008F70077
:101D14007708F9007909F7007708F800CA0100305C
:101D24003302153003193202031C08006230F70035
:101D34007708CB008B137808F700770827009605FF
:101D44007908F700770895048B177908F700770866
:101D54002000F0002400CF018B15200095010B1109
:101D64008B168B1395017908F700770821008D04F1
:101D74008B170000000000000000000000000000BD
:101D840000000800200036080319CE2E21005E084A
:101D940020003606031D080005302000E30026302D
:101DA400890BD22EE30BD22E000020003703031D33
:101DB400DE2E89310A210800023020003706031D77
:101DC400E62E89310A210800033020003706031D5E
:101DD400EE2E8F31A9270800043020003706031D9A
:101DE400F62E8131AD210800053020003706031D91
:101DF400FE2E8931E2210800063020003706031D3B
:101E0400062F8431B02408000130893131210800C3
:101E14002000CE01CE0ACF010830CD004D08D000FD
:101E240050080319522F4C088931C6218F31F7010C
:101E340020004C088D31FC258F318B1300000000ED
:101E440000000000000000000000000020004C081A
:101E54008931AA218F3100000230883169208F3105
:101E64002000931D322F4C088A315B228F31003AB7
:101E74000319432F8B1720004E08CD004D08CF04C3
:101E8400442F8B177830883169208F312000931DBF
:101E9400482F0310CE0D0130D0025008031D152F1A
:101EA4004F0808002000DA00D901DC015A08D43EAA
:101EB400860087010108D7005708DB0008305B0261
:101EC400031C742F10305B0203186A2F0430712F27
:101ED40040305B06031D702FDC01742F0630D700E1
:101EE4005708DC005C08031D7B2F02308931312147
:101EF400080088317F208F3120005C08D700570804
:101F04002100B60006302000D7005708F7005A0811
:101F14008831D6208F312000D8005808DB000130EA
:101F24008500A0305B07840000308700B73086004E
:101F34005C08D9008B1300081E00840AD90B9D2F5E
:101F44008B1720005C08033E8C3105240800200018
:101F5400D90101302B02003003192A02031CBF2FC0
:101F640001302B020B3003192A020318BF2F2A0851
:101F7400D43E860087010108C72FA0302A062B040F
:101F8400031DCD2F21005E082000D700D80157087B
:101F9400DA005808ED2FFA302A062B04031DD62F39
:101FA4000530DA000130ED2FFB302A062B04031D27
:101FB400DF2F3A30DA006530ED2F00302B020A3083
:101FC40003192A020318EF2F2A35A03E8600870141
:101FD400403FDA00413FDB00F12FD901D90A59080B
:101FE4000319F82F023089313121080020005B08E1
:0C1FF400D6005A08D50089311D210800D4
:020000040001F9
:10E0000006000600060006000600060006000600E0
:10E01000040004007F00FF00FF00FF00FF00FF007E
:00000001FF
