:100000008131452980343E347E14803120007F08C0
:10001000F6002100111C1B282000111C1B281110A8
:10002000053046020318172847088D051928470888
:100030008C05200018108B190B1CB1281508CB005B
:1000400027001608200070050319372895012400A1
:100050004F08203E8600023087004F082D3C0318D1
:10006000CF0A20004B088100700927009605270061
:10007000160815050319B1282000CC002000CC1D5E
:100080005528270096112000F11D55282300E00A6D
:10009000F21D5128F2116608A4006708A500E601C8
:1000A000E701E70A0319E60A20002000CC1C6C28AF
:1000B000270096102000711E6C282300E10A721E92
:1000C000682872126808AA006908AB00E801E90113
:1000D000E90A0319E80A200020004C1E83282700A3
:1000E00016122000F11E83282300E20AF21E7F2848
:1000F000F2126A08B0006B08B100EA01EB01EB0AEA
:100100000319EA0A200020004C1F9A282700161322
:100110002000711F9A282300E30A721F9628721389
:100120006C08B6006D08B700EC01ED01ED0A03198B
:10013000EC0A20002000CC1FB128270096132000D5
:10014000F11FB1282300E40AF21FAD28F2136E0854
:10015000BC006F08BD00EE01EF01EF0A0319EE0AC3
:1001600020002100111CC3282000111CC3281110DD
:10017000053046020318BF2847088D05C1284708E7
:100180008C05200018102000911CFA289110F31FF4
:10019000D028F3167108F5007508F2002000F3135B
:1001A00001302000B0070030B13D0130AE02003018
:1001B000AF3B2E082F04031DFA286430AE00003038
:1001C000AF00741CEB281508CB0020009E138B1287
:1001D00074107315F228F41CF228F41095010B1119
:1001E0008B1674140130C8024808031DFA280A301F
:1001F000C800F3172100111E1B292000111E1B2906
:100200003C084006031915294008403E860001308D
:100210008700010823009A002000C00A2030200037
:100220004002031C1B29C0011B2940083C06031D7A
:100230001B29210011128B1A0B1D2A290B11731F68
:1002400026292000B20A031DB30A2A298B12323054
:100250002000B8002100911E40292000911E402955
:1002600020004108C10A203E86000130870023009B
:100270001908810020002030200041060319C10127
:1002800076082000FF007E10090081314729F30124
:10029000F40120308400003085002D308831462064
:1002A0008131A030840000308500493088314620FB
:1002B0008131203084000130850040308831462073
:1002C0008131803102208131EC0080310320ED004A
:1002D0007E10200081316C2902302100950023001E
:1002E0008C018D01203020008C003F3024008C00D8
:1002F0008B011D3021009700F3106400D4302000E2
:10030000E5006508E800EA010B306A0203189F293E
:100310006A0889315C2181312000E5006808860087
:100320008701650881000130E5006508E8070130B4
:10033000E5006508EA070B306A02031C88293F3094
:1003400021008C00DE308D0020000D108030220056
:100350009D0001309E00823023009E009D011E11F1
:100360009F151E12CF309B009C019E169D171D16D7
:100370002100111220009112111223001F121F10D0
:100380002000BC01C001C101C2018B170B17210065
:10039000911627009401950196018B152000F0011C
:1003A000F101F31107309C007D309B009A01911000
:1003B0006430AE000030AF000A30E5006508C800C8
:1003C000210091140B178B17E3309E0001309D0024
:1003D00023008C018D012100111320001113C23064
:1003E000220097002000EB010A306B020318062A56
:1003F00073146B088231BE22813101302000E50088
:100400006508EB070A306B02031CF82973100730EC
:1004100028009700553025009E00FF3028009600E8
:1004200095012100931020009310883140208131E4
:100430002000BD01CB30E700ED30E6004C30E50098
:10044000E50B202AE60B202AE70B202A00328B310D
:10045000AD2381312000EB010A306B0203183F2AE3
:100460006B35A03E860087010030C03FC13F0130A0
:10047000E5006508EB070A306B02031C302A0A30DE
:10048000E5006508C600303098009913111021006E
:10049000111020001810F31C6400F319512A2000D9
:1004A0000D10F31D642A2100111AB42A093020000E
:1004B000E6004E30E500E50B5B2AE60B5B2A000008
:1004C00020000D10F311B42A883154208131003AF4
:1004D0000319B42A89318E2181312000E5003D08BD
:1004E000DF3E86008701650881000130E500650870
:1004F000BD0708303D02031CB42A0830E50065083A
:10050000BD00DF308C31CF2481312000E50065084B
:10051000E9006903031D912A8E31C4268131200030
:10052000952A02306906031D972ABD01B42AEB0102
:10053000EB0A08306B020318B22A6B08DF3E860014
:1005400087010108E5006B08FF3EDF3E860087015A
:10055000650881000130E5006508EB0708306B0293
:10056000031C9D2A0130BD028431962481318731DC
:10057000992781318531E02581314B2A2000D20035
:100580005208D43E860087010108D0005008D100EF
:100590008B31AD23823106302000D0005008F700A7
:1005A00052088831D4208231A03E86000130870075
:1005B0000030C03F0030C13FC23FC33F0630200083
:1005C000D0005008F70052088831D4208231043E10
:1005D000A03E8600013087000030C03FC13F05309B
:1005E000200052020318FF2A5208023E840088307D
:1005F0000318013E85000008D0005008F10552089C
:10060000031D042B25009301033020005206031D17
:100610000B2B25009A01083020005206031D122BD7
:1006200026009301093020005206031D192B2600D5
:100630009A0105302000520203182A2BF701F70A0D
:1006400052088A31E3228231F701200052088B31AF
:100650008323823120005235A03E8600870100307E
:10066000C03FC13F043051020318442B05305202F1
:1006700003183F2BF70152088A31E3228231200010
:1006800052088D3180250800511B4A2B0630510637
:10069000031D4E2B52088B31D72308000730200052
:1006A0005106031D5A2B0030F700F800520886311E
:1006B00051260800D11F842B5118632BF7015208D3
:1006C0008A31E3228231200052088C313324823176
:1006D000F701F70A200052088B3183238231200072
:1006E00052080319F115520303197116023052060C
:1006F0000319F1160330520603197117043052061C
:10070000031D0800F1170800D1198A2B0430510687
:10071000031DA12BD11D932B05305202031C932BDB
:10072000B401B40A08000530520203189C2BF701EB
:1007300052088A31E3228231200052088C3133245E
:100740000800511EAA2B05305202031C0800B401F8
:10075000B40A080052088C3133240800023020000B
:100760002806103003192906031DB92B8A31BF2230
:1007700008002000280A031DCD2B2903031DCD2BC3
:1007800078302C06563003192D06031DC92B73141F
:10079000CA2B7310893145210800553020002806E6
:1007A000AA3003192906031DE72B34302C0612301A
:1007B00003192D06031DE32BF314113021009700BC
:1007C000893145210800023089312F21080001308C
:1007D00020002902003003192802031C302C0130AC
:1007E00029020A30031928020318302C731C2D2CFF
:1007F0002808D9005908DB00B4015B08D43E860004
:1008000087010108D9005908DA002C08D9005B08D3
:10081000D43E86008701590881005B088231BE22E0
:100820008331200034080319262C5A08D9005B08AC
:10083000D43E86008701590881005B088231BE22C0
:100840008331023089312F2183312B2C893145218D
:1008500083318A311B227314080089314521080035
:100860000030200029020A300319280203187F2CC7
:100870002808D43E860087010108D9005908DA000B
:100880002D08F8002C08F7002808863151268331FE
:10089000003A031D7C2C803020005A060319542C8A
:1008A00081305A06031D6B2C2C082D04031D7C2C53
:1008B0000630D9005908F70028088831D420833140
:1008C000A03E8600013087000030C03F0030C13FAD
:1008D000C23FC33F7C2C403020005A06031D792CB8
:1008E0002835A03E860087012C08C03F2D08C13F57
:1008F0007C2C8931E0210800893145210800A03095
:10090000200028062904031D922C731C8F2C2C0810
:10091000D90059082100DE008A311B228331893138
:1009200045210800023089312F2108006330200062
:100930003806031D352D3B08031DA12C883171207D
:10094000843106302000D2005208F700390888317F
:10095000D4208431A03E2000D3005308D4003B0AA9
:10096000031DBB2C5408860001308700FF30C03FB8
:10097000FF30C13FC82C5408860001308700810138
:100980003B08D200540A86000130870052088100DB
:1009900010303A06031DEB2C2008D2005408033E09
:1009A000860001308700520881002208D2005408D6
:1009B000053E860001308700520881005408023E3F
:1009C00086000130870081015408043E8600013012
:1009D00087008101012D11303A06031D012D5408B5
:1009E000023E8600013087002008C03F2108C13F39
:1009F0005408043E8600013087002208C03F2308C7
:100A0000C13FBA1E242D2108D2005408023E8600A0
:100A100001308700520881002008D2005408033EAC
:100A2000860001308700520881005408043E860089
:100A30000130870081012408D2005408053E860059
:100A40000130870052088100BA1D322D54088600FB
:100A5000013087002008C03F2108C13F2208C23F63
:100A60002308C33F8B31312308003A1E3A2D8931C8
:100A700074210800BA1E3F2D853147250800BA1D94
:100A8000442D8B31092308008B3131230800AA2D16
:100A900088314C20080009302000D1005108B800EE
:100AA000883196208531DA2D2000931D0800DA2D3B
:100AB0008931FD218531003A031DDA2DFF302000F8
:100AC000D1005108BB006330D1005108B8000800C4
:100AD000CC308D3143258531DA2D44308D3143259D
:100AE000853158302000A6000230A700FA30883146
:100AF00067208531DA2D931D08000130A6020030F1
:100B0000A73B260827040319DA2DFA30883167201D
:100B10000800BE308D31432585312000B601DA2D25
:100B20008F310A2785312000D1003608203E86000B
:100B30008701510881000130D1005108B607063005
:100B40003602031C08006330D1005108B800BB0115
:100B5000BB0A080020003808003A0319482D013A62
:100B600003194B2D0B3A0319542D013A0319582D33
:100B7000073A0319542D013A0319682D033A031952
:100B80006D2D013A03197B2D1F3A0319502D013A9F
:100B90000319542D033A0319582D013A0319542D02
:100BA000073A0319682D013A0319892D033A0319ED
:100BB000902DDA2D01302000D1005108B80708002F
:100BC0008B132000F21DEC2DF21123006608A40007
:100BD0006708A600E601E7018B178B132000721E41
:100BE000F92D721223006808AA006908AB00E80119
:100BF000E9018B178B132000F21E062EF212230040
:100C00006A08B0006B08B100EA01EB018B178B1387
:100C10002000721F132E721323006C08B6006D089B
:100C2000B700EC01ED018B138B172000F21F202E73
:100C3000F21323006E08BC006F08BD00EE01EF0147
:100C40008B1723008B136008E0018B17A30700307C
:100C5000A23DA13DA03D8B136108E1018B17A907BF
:100C60000030A83DA73DA63D8B136208E2018B171B
:100C7000AF070030AE3DAD3DAC3D8B136308E301E3
:100C80008B17B5070030B43DB33DB23D8B136408FC
:100C9000E4018B17BB070030BA3DB93DB83D2000D9
:100CA00008002000CF007808FA007708F900FA362B
:100CB000F90CFA36F90C7908FB007B08CD007708AF
:100CC0000339F9007908CE00CE0EF030CE050C3095
:100CD000F9007908CE044F08D43E8600870107301A
:100CE00001060319752E003008004F08031D822EDF
:100CF00021008D1120004E082500930020004D0892
:100D000025009F2E033020004F06031D912E210049
:100D10000D1320004E0825009A0020004D082500E4
:100D2000AF2E083020004F06031DA12E21008C118C
:100D300020004E082600930020004D082600910058
:100D4000B52E093020004F06031DB12E21000C12D4
:100D500020004E0826009A0020004D08260098002A
:100D6000B52E2000B4010030080020004F35A03E11
:100D7000860087017708C03F7808C13F013008002E
:100D80008B12F701200039088B3183238631FF3025
:100D9000FB007B082000BB002A3024004F02031C0C
:100DA0001D2F2000CA010230FB007B08B500B701EF
:100DB000CE0105304E020318122FCD0108304D022E
:100DC0000318FA2E0310CA0D3508B50A203E860016
:100DD000023087006F300102031CF22E0130FB004D
:100DE0007B08CA070130FB007B08CD0708304D02A5
:100DF000031CE32E04304E0203180A2F4A08FB009E
:100E00007B08B7074A08FB004E08203E8600870192
:100E10007B0881000130FB007B08CE0705304E02C5
:100E2000031CDD2E37084A06031D1D2FBB01BB0A1C
:100E30006330FB007B08B800080020004408031D55
:100E4000292F0130FB007B08C407B001B101B801B4
:100E500008006330FB007B08B80008002000E001B8
:100E6000E101B40100302902A0300319280203185F
:100E70005C2F2908DE002808DD000430DE36DD0C9A
:100E8000890B3E2F5D08DF005F08E20062088831B1
:100E900089208731003A0319522F200062088F31D0
:100EA00054270800200062088C31972487312000E5
:100EB0005108E1005008852F103029062804031D31
:100EC000692F8831E520873120005108E100500862
:100ED000852F2803103003192906031D772F883129
:100EE000A520873120005108E1005008852F0230ED
:100EF0002806103003192906031D872F8B315A232A
:100F000087317B082000E1007A08E000892FB401D6
:100F1000B40A200034080319912F023089312F219F
:100F2000080020006108D6006008D50089311B2127
:100F300008002000181808000130F7007708C607DD
:100F40000B304602031CA92FC6012030EC004E30A6
:100F5000ED004608023E840088300318013E8500FB
:100F60000008F7007708C7000A304606031DBE2FA9
:100F7000ED1B08006C09F7006D09D12F4635A03E26
:100F800086008701403FFA00413FFB007A08EC02EF
:100F90007B08ED3B7A087B04031908007A09F70007
:100FA0007B09F800F70A0319F80A77089600780811
:100FB000970011102100111420004608F73E84000C
:100FC00087300318013E85000008F7007708F90014
:100FD000053046020318F02F8B1379088D04F32F88
:100FE0008B1379088C04200018148B170800083420
:100FF0000234103440348034013402340434083470
:1010000010340034F734FD34EF34BF347F34FE3411
:10101000FD34FB34F734EF34FF3409340B34083437
:0E102000053406340034013402340334043441
:101080008B132000C101C2018B170800640080018E
:101090000131890B47280034200039088931C421E7
:1010A0002000B801B80A08002000410842060319D0
:1010B0005B280130080000300800F70005302800E8
:1010C0009E0077089D009C01200093110800F70006
:1010D000073028009E0077089D009C012000931196
:1010E00008008B120B11FF302000A400FF30A50078
:1010F0003A1E08008831B420080021005E08F7007D
:101100007708B40020003E08F70077082100B500FA
:101110000800F7007708D43E860087010108B83937
:101120000319942801300800003008002000390815
:101130008931C4218831F701200039088D31FC251F
:1011400088313F3088316720080022009716171237
:10115000FC3021009E051D308D31BE257808200011
:10116000D1007708D00008008B12F7012000390861
:101170008B31832388316330FB007B082000B8006B
:1011800039088931A82108002000F50088317D2028
:10119000883101302100B600200075082100B70019
:1011A00004308C3103240800FA00F9017A1CDC2891
:1011B0007708F8007808F9070310F70D0310FA0C08
:1011C0007A08031DD6287908080022001708FC3980
:1011D00002389700FC3021009E051F308D31BE255E
:1011E00078082000D1007708D00008002000CF0048
:1011F0004F08D43E8600870106300106031D080013
:101200004D08CE004E08F7004F088D31FC25080030
:101210000030200029020A30031928020318172978
:1012200028088A313A2289318831C42008000230E6
:1012300089312F2108002000D50088317D20893197
:1012400002302100B600200056082100B70020001F
:1012500055082100B80005308C3103240800200017
:10126000D60088317D20893120003E088038D500A5
:1012700055082100B50020005608D500550821006A
:10128000B60003308C310324080088317D20893179
:10129000200029082100B600200028082100B700FE
:1012A00020002D082100B80020002C082100B900E2
:1012B00006308C3103240800FA00640023009518DE
:1012C0005D297A08F700F801770891007808920004
:1012D0003F30F9007908950515140310151803140B
:1012E0000030093D13080800623020003806031959
:1012F000080032303806031D80298631C0260800D8
:10130000633020003806031908003803031D8B29B9
:101310008E31802608008D3109250800883154203F
:101320008931003A03198E2920004208203E8600A8
:10133000013087000108F7007708F8000130F70056
:101340007708C207203042020318C201780808005B
:10135000F8007808F73E840087300318013E8500C6
:101360000008F7007708F900053078020318BE2955
:101370007908F700770821008D0408007908F70044
:10138000770821008C040800F8007808023E8400E9
:1013900088300318013E85000008F7007708F9003F
:1013A000053078020318DA297908F7007708210058
:1013B0008D0508007908F700770821008C050800E2
:1013C0000030200029020A30031928020318F929E5
:1013D0002C082D040319EE290130EF290030D70025
:1013E0005708CD0028088831F620893189314521F8
:1013F0000800023089312F21080020003908893186
:10140000A8218931B43088315D2089312000931DB5
:10141000062A39088A3159228931FB007B0C731264
:1014200003187316731E162A0030080033308831F3
:10143000672001300800D430FB007B082000CD007D
:10144000CE010B304E02031808004D0886008701BC
:101450000108FB007B08F7004E088A319C228A3184
:101460000130FB007B082000CD070130FB007B082A
:10147000CE07212AF900053079020318422A2000FC
:101480000D08442A20000C08F7007708F8007908B6
:10149000F73E840087300318013E85000008F700FE
:1014A0007708F80578080319572A0130080000303A
:1014B0000800F9007908F73E840087300318013EE0
:1014C00085000008F7007708FA0005307902031854
:1014D0006C2A20000D086E2A20000C087A05F700FF
:1014E0007708F8007808031D772A003008000130DB
:1014F0000800F8007808F70077082000C5073C08C6
:10150000013EF7007708F900203079020318F9014D
:10151000790840060319882A7808F7003C08403EFD
:10152000860001308700770881007908F700770886
:10153000BC00210011160800FA00230095189D2A0E
:101540007A08F800F9017808910079089200770884
:1015500093003F30F80078089505200003108B1B9E
:1015600003148B132300151555309600AA309600EE
:10157000951415112000031C08008B17080020008B
:101580002D08D7002C08D600D8010A3058020318BD
:10159000E02A56080139D5005508CD005808883191
:1015A000F6208A3101302000D736D60C890BD42A98
:1015B0000130D5005508D8070A305802031CC92A43
:1015C000893145210800F900053079020318052BFF
:1015D00077080319F82A7908F73E84008730031842
:1015E000013E85000008F800780824008D040800FA
:1015F0007908023E840088300318013E8500000807
:10160000F800780824008D0508002000B401B40A11
:10161000080020003808031D102B8C3164240800BA
:1016200020003803031D0800731D0800A0013308C3
:10163000F7007708A1003208F7007708A2004B08EE
:10164000F7007708A300B201B301CB016330F700C4
:101650007708B800BB01BB0A9E13210095128B12BC
:1016600008002000C4010130F7007708B9070A30EC
:1016700039020318B9013908D43E860087010108F0
:10168000F7007708BA00B801BB01B001B1018B12B5
:101690007313BA197317F80106307802031808009B
:1016A0007808203E8600870181010130F700770825
:1016B000F8074C2B2000CF01D001D1010A30510294
:1016C00003187E2B0130CF35D00D890B632B5108C9
:1016D000013EFF3A013E0A3E8A313A228B31200018
:1016E000CD00CE014D08CF044E08D0040130CD000E
:1016F0004D08D1070A305102031C622B5008FB0031
:101700004F08FA000800FA0005307A0203180800B2
:101710007708031D9C2B7A08023E8400883003184A
:10172000013E85000008F8007808F9008B1379085D
:10173000270095058B1708007A08F73E840087304C
:101740000318013E85000008F8007808F9008B13A3
:101750007908270095048B1708002000CD010A3076
:101760004D02031808004D08D43E86008701103052
:1017700001060319C32B4D08D43E860087011130A2
:101780000106031DC82BF7014D088B3183238B31D4
:101790002000B80121005408FB007B082000BA009B
:1017A000B901F0010130FB007B08CD07AF2BFA0037
:1017B0007A08D43E860087010108F7007708F80010
:1017C0007A08023E840088300318013E8500000834
:1017D000F7007708F90005307A020318F92B790829
:1017E000F700770820008D0521008D0523008D0569
:1017F00008007908F700770820008C0521008C0587
:1018000023008C0508002000D1003F0803190800C0
:101810005108FB007B08F700B4308E313D268C3137
:1018200078082000D3007708D200F3150D14D401F6
:101830005108540203182A2C5408B43E860087012C
:1018400001088A3179228C310130FB007B082000AD
:10185000D407182C52088A3179228C312000530881
:101860008A3179220800FA007A08F73E840087302E
:101870000318013E85000008F7007708F8007A0891
:10188000023E840088300318013E85000008F700FE
:101890007708F90005307A020318592C7808F70008
:1018A000770821008D047908F700770823008D055B
:1018B00008007808F700770821008C047908F70001
:1018C000770823008C0508002000BB01BB0AB80183
:1018D000B80A39080D3E840088300318013E85009F
:1018E00000089F009E138B12B201B3019501F41002
:1018F0007410731108303A06031D802C81308D2C32
:1019000009303A06031D862C85308D2C0A303A06A4
:10191000031D8C2C89308D2C8D309E0020302100B1
:10192000950095168B127317F4147311080020009C
:10193000D500B4015508D43E860087010108D200C5
:101940005208D400043054020318BB2C55088D31C2
:1019500080258C31200055080D3E84008830031806
:10196000013E850000088D31BE2578082000D10099
:101970007708D0000800073054020318CA2C550815
:101980008A3159222000D200D3015208D0005308D6
:10199000D1000800FF30D000FF30D10008008600E1
:1019A00087011600BF001600BE001600A900160031
:1019B000A8001600AD001600AC001600AA00160024
:1019C000AB000630FB007B08F700DF308E313D2690
:1019D0008C3178082000D3007708D2002B085306FA
:1019E000031DF42C2A0852060319F82CD401072DE4
:1019F00021005E0820003F06031D3F08031D032D44
:101A0000D401D40A072D0230FB007B08D40054080F
:101A10000800033020003102E93003193002031CB2
:101A20000800B001B1013908023E84008830031873
:101A3000013E85000008F7007708F8008B1378084E
:101A4000F7007708270095057808F70077089605CE
:101A50008B178B137808F700770821008D0578081D
:101A6000F700770820008D058B17B801B80A2830D9
:101A7000F7007708B500CA01B601023021009500D1
:101A80002000950108002000CE00D001D00A0830C7
:101A9000CD004D08CF004F08031908008B133908FB
:101AA0008931C4218D31F701200039088D31FC25A1
:101AB0008D3120004E0850050319622D00000000F2
:101AC0008B176A2D8B17783088315D208D3120007F
:101AD000931D672D200039088931A8218D31200000
:101AE0004E08500503197B2D783088315D208D31EB
:101AF0002000931D782D0310D00D0130CF024B2D07
:101B0000F9007908D43E860087010108F7007708BC
:101B1000F8007908F73E840087300318013E8500FD
:101B20000008F7007708FA00053079020318A32DA2
:101B30007A08F700770821008D047A08F700770803
:101B400023008D04AD2D7A08F700770821008C045E
:101B50007A08F700770823008C042200170878061B
:101B6000FC39780697007808031DBA2DFC30210057
:101B70009E050800033021009E0408002000CD00CF
:101B8000210011132000111321001D141D14200029
:101B90004D08F900F90DF90D21001D08790683396A
:101BA00079069D000B30FA006230F900F90BD62D52
:101BB000FA0BD62D000021009D149D18DD2D0B3051
:101BC000FA006230F900F90BE32DFA0BE32D000067
:101BD00021009D149D18EA2D1C08F90079082000A9
:101BE000CF0021001B08F90079082000CE004F0823
:101BF000F8004E08F7000800FB007B08F73E840061
:101C000087300318013E85000008F8007808F900C5
:101C10007B08023E840088300318013E85000008DE
:101C2000F8007808FA0005307B0203182A2E77089E
:101C3000031D222E8B137A08F800780820008D05EA
:101C40008B1708008B137908F800780820008D04A2
:101C50008B1708007708031D352E8B137A08F800C0
:101C6000780820008C058B1708008B137908F80082
:101C7000780820008C048B1708002000CD00FF306E
:101C8000CF00FF30D000770803197B2E4D08860067
:101C900087014F080106CF005008D0000130F9003D
:101CA0007908CD070830F9007908CE004E080319ED
:101CB000762E4F1C672E5008FA004F08F900FA36AE
:101CC000F90C01307906CF00A0307A06702E50084A
:101CD000FA004F08F900FA36F90C7908CF007A08B3
:101CE000D0000130CE024E08031D592E0130F702FC
:101CF0007708031D462E5008F8004F08F70008002B
:101D000020003908F73E840087300318013E850023
:101D10000008F7007708F9007909F7007708F8005C
:101D2000BB0100303102153003193002031C0800DA
:101D30006230F7007708B8008B137808F70077084F
:101D4000270096057908F700770895048B1779081E
:101D5000F70077082000F0002400CF018B15200049
:101D600095010B118B168B1395017908F7007708F5
:101D700021008D048B17000000000000000000000F
:101D8000000000000000080020003F080319CE2ECC
:101D900021005E0820003F06031D08000530E40016
:101DA0002630E300E30BD22EE40BD22E00002000FD
:101DB0003E03031DDE2E8931082108000230200079
:101DC0003E06031DE62E893108210800033020005D
:101DD0003E06031DEE2E8F31A92708000430200097
:101DE0003E06031DF62E87312E2708000530200001
:101DF0003E06031DFE2E8931E0210800063020003A
:101E00003E06031D062F8331AE23080001308931C1
:101E10002F2108002000CE01CE0ACF010830CD00CE
:101E20004D08D00050080319522F39088931C421B8
:101E30008F31F701200039088D31FC258F318B134C
:101E40000000000000000000000000000000000092
:101E5000200039088931A8218F31000002308831F3
:101E60005D208F312000931D322F39088A3159228D
:101E70008F31003A0319432F8B1720004E08CD00F5
:101E80004D08CF04442F8B17783088315D208F3177
:101E90002000931D482F0310CE0D0130D0025008B2
:101EA000031D152F4F0808002000DA00D901DC01BE
:101EB0005A08D43E860087010108D7005708DB0086
:101EC00008305B02031C742F10305B0203186A2F6A
:101ED0000430712F40305B06031D702FDC01742F1E
:101EE0000630D7005708DC005C08031D7B2F02304A
:101EF00089312F21080088317D208F3120005C0836
:101F0000D70057082100B60006302000D700570838
:101F1000F7005A088831D4208F312000D8005808A3
:101F2000DB0001308500A0305B07840000308700B3
:101F3000B73086005C08D9008B1300081E00840AA5
:101F4000D90B9D2F8B1720005C08033E8C31032496
:101F500008002000D90101302902003003192802AD
:101F6000031CBF2F013029020B300319280203186C
:101F7000BF2F2808D43E860087010108C72FA03054
:101F800028062904031DCD2F21005E082000D7005C
:101F9000D8015708DA005808ED2FFA30280629042E
:101FA000031DD62F0530DA000130ED2FFB30280657
:101FB0002904031DDF2F3A30DA006530ED2F0030A1
:101FC00029020A30031928020318EF2F2835A03EF2
:101FD00086008701403FDA00413FDB00F12FD90145
:101FE000D90A59080319F82F023089312F21080026
:101FF00020005B08D6005A08D50089311B21080053
:020000040001F9
:04000E00FAEFFFFF07
:10E0000006000600060006000600060006000600E0
:10E01000040004007F00FF00FF00FF00FF00FF007E
:00000001FF
