:100000008131452980343E347E14803120007F08C0
:10001000F6002100111C1B282000111C1B281110A8
:10002000053042020318172841088D051928410898
:100030008C05200018108B190B1CB1281508C8005E
:1000400027001608200070050319372895012400A1
:100050004F08203E8600023087004F082D3C0318D1
:10006000CF0A200048088100700927009605270064
:10007000160815050319B1282000B4002000B41D8E
:100080005528270096112000F11D55282300E00A6D
:10009000F21D5128F2116608A4006708A500E601C8
:1000A000E701E70A0319E60A20002000B41C6C28C7
:1000B000270096102000711E6C282300E10A721E92
:1000C000682872126808AA006908AB00E801E90113
:1000D000E90A0319E80A20002000341E83282700BB
:1000E00016122000F11E83282300E20AF21E7F2848
:1000F000F2126A08B0006B08B100EA01EB01EB0AEA
:100100000319EA0A20002000341F9A28270016133A
:100110002000711F9A282300E30A721F9628721389
:100120006C08B6006D08B700EC01ED01ED0A03198B
:10013000EC0A20002000B41FB128270096132000ED
:10014000F11FB1282300E40AF21FAD28F2136E0854
:10015000BC006F08BD00EE01EF01EF0A0319EE0AC3
:1001600020002100111CC3282000111CC3281110DD
:10017000053042020318BF2841088D05C1284108F7
:100180008C05200018102000911CFA289110F31FF4
:10019000D02873177108F5007508F2002000F313DA
:1001A00001302000B2070030B33D0130AC02003016
:1001B000AD3B2C082D04031DFA286430AC00003040
:1001C000AD00F31EEB281508C80020009E138B120B
:1001D000F3127316F228F31DF228F31195010B1197
:1001E0008B16F3160130BE023E08031DFA280A30B2
:1001F000BE00F3172100111E1B292000111E1B2910
:100200003D083C06031915293C08403E8600013094
:100210008700010823009A002000BC0A203020003B
:100220003C02031C1B29BC011B293C083D06031D85
:100230001B29210011128B1A0B1D2A290B11741C6A
:1002400026292000AE0A031DAF0A2A298B1232305C
:100250002000CB002100911E40292000911E402942
:1002600020003B08BB0A203E8600013087002300A7
:10027000190881002000203020003B060319BB0133
:1002800076082000FF007E10090081314729803167
:1002900002208131E900803103208131EA00F3013D
:1002A000F40120308400003085002D308831592041
:1002B0008131A030840000308500493088315920D8
:1002C0008131203084000130850040308831592050
:1002D0007E10200081316C2902302100950023001E
:1002E0008C018D01203020008C003F3024008C00D8
:1002F0008B011D302100970073106400D430200062
:10030000E3006308E500E7010B30670203189F294B
:1003100067088931632181312000E3006508860088
:100320008701630881000130E3006308E5070130BD
:10033000E3006308E7070B306702031C88293F309E
:1003400021008C00DE308D0020000D108030220056
:100350009D0001309E00823023009E009D011E15ED
:100360009F151E128A309B009C019E169D171D161C
:100370002100111220009112111223001F121F10D0
:100380002000BD01BC01BB01BA018B170B17210076
:10039000911627009401950196018B152000F0011C
:1003A000F101731107309C007D309B009A01911080
:1003B0006430AC000030AD000A30E3006308BE00DA
:1003C000210091140B178B17E3309E0001309D0024
:1003D00023008C018D012100111320001113C23064
:1003E000220097002000E8010A3068020318062A5C
:1003F000F31468088231BB22813101302000E30010
:100400006308E8070A306802031CF829F310073074
:1004100028009700553025009E00FF3028009600E8
:1004200095012100931020009310883153208131D1
:100430002000B501CB302000E400EC30E300843034
:10044000890B202AE30B202AE40B202A00008B31A1
:10045000B42381312000E8010A30680203183F2AE2
:100460006835A03E860087010030C03FC13F0130A3
:10047000E3006308E8070A306802031C302A0A30E8
:10048000E3006308C2003030980099131110210076
:10049000111020001810731C64007319512A2000D9
:1004A0000D10731D612A2100111AB12AE4300032A7
:1004B0000032890B572A0032003220000D107311D0
:1004C000B12A883167208131003A0319B12A893174
:1004D000952181312000E3003508DF3E8600870149
:1004E000630881000130E3006308B5070830350276
:1004F000031CB12A0830E3006308B500DF308C31FB
:10050000D62481312000E3006308E6006603031D62
:100510008E2A8E31422681312000922A02306606D0
:10052000031D942AB501B12AE801E80A08306802DF
:100530000318AF2A6808DF3E860087010108E30040
:100540006808FF3EDF3E86008701630881000130B6
:10055000E3006308E80708306802031C9A2A0130A8
:10056000B5028431932481318731962781318531D9
:10057000DD2581314B2A2000D2005208D43E86006E
:1005800087010108D0005008D1008B31B42382319B
:1005900006302000D0005008F70052088831DB20D8
:1005A0008231A03E8600013087000030C03F00301D
:1005B000C13FC23FC33F06302000D0005008F700C3
:1005C00052088831DB208231043EA03E8600013093
:1005D00087000030C03FC13F0530200052020318A1
:1005E000FC2A52080B3E840088300318013E850027
:1005F0000008D0005008F1055208031D012B25000A
:100600009301033020005206031D082B25009A0198
:10061000083020005206031D0F2B260093010930DD
:1006200020005206031D162B26009A0105302000DB
:1006300052020318272BF701F70A52088A31EA22DF
:100640008231F701200052088B318A238231200049
:100650005235A03E860087010030C03FC13F0430C4
:1006600051020318412B0530520203183C2BF701AD
:1006700052088A31EA228231200052088D31C32586
:100680000800511B472B06305106031D4B2B520807
:100690008B31DE230800073020005106031D572B45
:1006A0000030F700F800520886314E260800D11FAE
:1006B000812B5118602BF70152088A31EA228231CE
:1006C000200052088C313A248231F701F70A2000C9
:1006D00052088B318A238231200052080319F11508
:1006E000520303197116023052060319F116033032
:1006F00052060319711704305206031D0800F11742
:100700000800D119872B04305106031D9E2BD11DE3
:10071000902B05305202031C902BBF01BF0A08002A
:10072000053052020318992BF70152088A31EA2248
:100730008231200052088C313A240800511EA72B28
:1007400005305202031C0800BF01BF0A080052080E
:100750008C313A240800023020002A061030031998
:100760002B06031DB62B8A31C622080020002A0A58
:10077000031DCA2B2B03031DCA2B783028065630C5
:1007800003192906031DC62BF314C72BF310893157
:100790004C210800553020002A06AA3003192B06E8
:1007A000031DE42B34302806123003192906031DDB
:1007B000E02B731411302100970089314C2108007F
:1007C0000230893136210800013020002B02003030
:1007D00003192A02031C2D2C01302B020A300319A5
:1007E0002A0203182D2CF31C2A2C2A08D900590898
:1007F000DB00BF015B08D43E860087010108D900F9
:100800005908DA002808D9005B08D43E8600870121
:10081000590881005B088231BB22833120003F08E8
:100820000319232C5A08D9005B08D43E860087019F
:10083000590881005B088231BB2283310230893143
:1008400036218331282C89314C2183318A3122226F
:10085000F314080089314C210800003020002B02DD
:100860000A3003192A0203187C2C2A08D43E860079
:1008700087010108D9005908DA002908F80028087A
:10088000F7002A0886314E268331003A031D792C61
:10089000803020005A060319512C81305A06031D5E
:1008A000682C28082904031D792C0630D900590822
:1008B000F7002A088831DB208331A03E8600013012
:1008C00087000030C03F0030C13FC23FC33F792C9A
:1008D000403020005A06031D762C2A35A03E8600A3
:1008E00087012808C03F2908C13F792C8931E721B9
:1008F000080089314C210800A03020002A062B0472
:10090000031D8F2CF31C8C2C2808D90059082100BA
:10091000DE008A312222833189314C2108000230E5
:10092000893136210800633020004B06031D322D2B
:100930004A08031D9E2C8831842084310630200013
:10094000D2005208F7004C088831DB208431A03EE9
:100950002000D3005308D4004A0A031DB82C5408C1
:10096000860001308700FF30C03FFF30C13FC52CFB
:10097000540886000130870081014A08D200540AD9
:100980008600013087005208810010304306031DA5
:10099000E82C2008D2005408033E8600013087006E
:1009A000520881002208D2005408053E860001301A
:1009B0008700520881005408023E860001308700FB
:1009C00081015408043E8600013087008101FE2C1D
:1009D00011304306031DFE2C5408023E86000130F0
:1009E00087002008C03F2108C13F5408043E86000C
:1009F000013087002208C03F2308C13FC31E212DBC
:100A00002108D2005408023E8600013087005208B7
:100A100081002008D2005408033E86000130870080
:100A2000520881005408043E86000130870081018D
:100A30002408D2005408053E860001308700520881
:100A40008100C31D2F2D5408860001308700200827
:100A5000C03F2108C13F2208C23F2308C33F8B315A
:100A600038230800431E372D89317B210800C31E1F
:100A70003C2D853144250800C31D412D8B311023A9
:100A800008008B3138230800A72D88315F2008002B
:100A900009302000D1005108CB0088319D208531DC
:100AA000D72D2000931D0800D72D8A3104228531CF
:100AB000003A031DD72DFF302000D1005108CA0095
:100AC0006330D1005108CB000800CC308D31862531
:100AD0008531D72D44308D31862585315830200021
:100AE000B0000230B100FA3088317A208531D72D3C
:100AF000931D08000130B0020030B13B30083104D2
:100B00000319D72DFA3088317A200800BE308D3194
:100B1000862585312000C401D72D8F310A278531E4
:100B20002000D1004408203E860087015108810042
:100B30000130D1005108C40706304402031C0800EC
:100B40006330D1005108CB00CA01CA0A0800200056
:100B50004B08003A0319452D013A0319482D0B3A69
:100B60000319512D013A0319552D073A0319512D37
:100B7000013A0319652D033A03196A2D013A031945
:100B8000782D1F3A03194D2D013A0319512D033ABF
:100B90000319552D013A0319512D073A0319652DF3
:100BA000013A0319862D033A03198D2DD72D0130F3
:100BB0002000D1005108CB0708008B132000F21D44
:100BC000E92DF21123006608A4006708A600E601DB
:100BD000E7018B178B132000721EF62D7212230073
:100BE0006808AA006908AB00E801E9018B178B13BC
:100BF0002000F21E032EF21223006A08B0006B08D8
:100C0000B100EA01EB018B178B132000721F102E2D
:100C1000721323006C08B6006D08B700EC01ED01FB
:100C20008B138B172000F21F1D2EF21323006E086A
:100C3000BC006F08BD00EE01EF018B1723008B1382
:100C40006008E0018B17A3070030A23DA13DA03D45
:100C50008B136108E1018B17A9070030A83DA73D60
:100C6000A63D8B136208E2018B17AF070030AE3D43
:100C7000AD3DAC3D8B136308E3018B17B507003026
:100C8000B43DB33DB23D8B136408E4018B17BB0741
:100C90000030BA3DB93DB83D200008002000CF002B
:100CA0007808FA007708F900FA36F90CFA36F90CE8
:100CB0007908FB007B08CD0077080339F900790833
:100CC000CE00CE0EF030CE050C30F9007908CE04FF
:100CD0004F08D43E86008701073001060319722EA3
:100CE000003008004F08031D7F2E21008D112000C9
:100CF0004E082500930020004D0825009C2E03304F
:100D000020004F06031D8E2E21000D1320004E08DB
:100D100025009A0020004D082500AC2E0830200048
:100D20004F06031D9E2E21008C1120004E08260028
:100D3000930020004D0826009100B22E09302000BB
:100D40004F06031DAE2E21000C1220004E08260077
:100D50009A0020004D0826009800B22E2000BF0106
:100D60000030080020004F35A03E8600870177083C
:100D7000C03F7808C13F013008008B12F701200006
:100D80004C088B318A238631FF30FB007B08200022
:100D9000CA002A3024004F02031C1A2F2000C6016B
:100DA0000230FB007B08C700C501CE0105304E02B2
:100DB00003180F2FCD0108304D020318F72E031032
:100DC000C60D4708C70A203E8600023087006F30F4
:100DD0000102031CEF2E0130FB007B08C607013027
:100DE000FB007B08CD0708304D02031CE02E0430C9
:100DF0004E020318072F4608FB007B08C50746086C
:100E0000FB004E08203E860087017B0881000130F0
:100E1000FB007B08CE0705304E02031CDA2E450886
:100E20004606031D1A2FCA01CA0A6330FB007B085D
:100E3000CB00080020004908031D262F0130FB00CD
:100E40007B08C907B201B301CB0108006330FB0086
:100E50007B08CB0008002000E001E101BF01003069
:100E60002B02A03003192A020318592F2B08DE0089
:100E70002A08DD000430DE36DD0C890B3B2F5D08CF
:100E8000DF005F08E2006208883190208731003A75
:100E900003194F2F200062088F31542708002000CB
:100EA00062088C319E24873120005108E1005008EF
:100EB000822F10302B062A04031D662F8831EC2068
:100EC000873120005108E1005008822F2A0310309A
:100ED00003192B06031D742F8831AC2087312000A5
:100EE0005108E1005008822F02302A061030031901
:100EF0002B06031D842F8B31612387317B08200053
:100F0000E1007A08E000862FBF01BF0A20003F08F9
:100F100003198E2F02308931362108002000610824
:100F2000D6006008D5008931222108002000181859
:100F300008000130F7007708C2070B304202031C9B
:100F4000A62FC2012030E9004E30EA0042080B3ED5
:100F5000840088300318013E85000008F7007708F8
:100F6000C1000A304206031DBB2FEA1B08006909B5
:100F7000F7006A09CE2F4235A03E86008701403F28
:100F8000FA00413FFB007A08E9027B08EA3B7A0855
:100F90007B04031908007A09F7007B09F800F70AB7
:100FA0000319F80A770896007808970011102100B5
:100FB000111420004208003E840088300318013ECE
:100FC00085000008F7007708F90005304202031891
:100FD000ED2F8B1379088D04F02F8B1379088C0477
:100FE000200018148B17080021005E08F70077080E
:100FF000B40020003708F70077082100B50008008A
:10100000083402341034403480340134023404345F
:10101000083410340034F734FD34EF34BF347F34F7
:10102000FE34FD34FB34F734EF34FF3409340B3431
:1010300008340534063400340134023403340434F3
:1010A6008B132000BB01BA018B1708006400800176
:1010B6000131890B5A28003420004C088931CB2194
:1010C6002000CB01CB0A080020003B083A06031992
:1010D6006E280130080000300800F70005302800AF
:1010E6009E0077089D009C01200093110800F700E0
:1010F600073028009E0077089D009C012000931170
:1011060008008B120B11FF302000A400FF30A50051
:10111600431E08008831BB200800F7007708D43E3C
:10112600860087010108B83903199B280130080099
:101136000030080020004C088931CB218831F701A6
:1011460020004C088E31012688313F3088317A20C4
:101156000800220097161712FC3021009E051D304C
:101166008D314A2578082000D1007708D000080084
:101176008B12F70120004C088B318A2388316330AB
:10118600FB007B082000CB004C088931AF2108000A
:101196002000F5008731F427883101302100B600A0
:1011A600200075082100B70004308C310A2408009D
:1011B600FA00F9017A1CE3287708F8007808F9079D
:1011C6000310F70D0310FA0C7A08031DDD287908C1
:1011D600080022001708FC3902389700FC3021006D
:1011E6009E051F308D314A2578082000D1007708EA
:1011F600D00008002000CF004F08D43E86008701AB
:1012060006300106031D08004D08CE004E08F70003
:101216004F088E3101260800003020002B020A30CC
:1012260003192A0203181E292A088A314122893104
:101236008831CB2008000230893136210800200091
:10124600D5008731F427893102302100B60020000D
:1012560056082100B700200055082100B8000530C7
:101266008C310A2408002000D6008731F427893102
:10127600200037088038D50055082100B500200029
:101286005608D50055082100B60003308C310A24D3
:1012960008008731F427893120002B082100B60089
:1012A60020002A082100B700200029082100B800E4
:1012B600200028082100B90006308C310A240800D5
:1012C600FA0064002300951864297A08F700F801EB
:1012D60077089100780892003F30F9007908950563
:1012E60015140310151803140030093D13080800DF
:1012F600623020004B060319080032304B06031DEE
:1013060087298631BD260800633020004B06031965
:1013160008004B03031D92298E31C62608008D3125
:1013260010250800883167208931003A031995296C
:1013360020003A08203E8600013087000108F700A9
:101346007708F8000130F7007708BA0720303A022C
:101356000318BA0178080800F8007808003E8400EF
:1013660088300318013E85000008F7007708F90069
:10137600053078020318C5297908F7007708210097
:101386008D0408007908F700770821008C0408000E
:10139600F80078080B3E840088300318013E85006B
:1013A6000008F7007708F900053078020318E129EC
:1013B6007908F700770821008D0508007908F700FD
:1013C600770821008C050800003020002B020A3027
:1013D60003192A020318002A280829040319F529E3
:1013E6000130F6290030D7005708CD002A08883189
:1013F600FD20893189314C2108000230893136219E
:10140600080020004C088931AF218A31B430883178
:1014160070208A312000931D0D2A4C088A316022E3
:101426008A31FB007B0CF4100318F414F41C1D2AFB
:1014360000300800333088317A2001300800D4307B
:10144600FB007B082000CD00CE010B304E020318B6
:1014560008004D08860087010108FB007B08F7009D
:101466004E088A31A3228A310130FB007B08200016
:10147600CD070130FB007B08CE07282AF90005308E
:1014860079020318492A20000D084B2A20000C086F
:10149600F7007708F8007908003E840088300318C2
:1014A600013E85000008F7007708F805780803195B
:1014B6005E2A0130080000300800F9007908003E75
:1014C600840088300318013E85000008F70077087D
:1014D600FA00053079020318732A20000D08752AD0
:1014E60020000C087A05F7007708F8007808031D35
:1014F6007E2A0030080001300800F8007808F7005E
:1015060077082000B9073D08013EF7007708F90083
:10151600203079020318F90179083C0603198F2A4D
:101526007808F7003D08403E8600013087007708BE
:1015360081007908F7007708BD0021001116080020
:10154600FA0023009518A42A7A08F800F901780809
:10155600910079089200770893003F30F8007808E8
:101566009505200003108B1B03148B132300151500
:1015760055309600AA309600951415112000031CCC
:1015860008008B17080020002908D7002808D60075
:10159600D8010A3058020318E72A56080139D5003F
:1015A6005508CD0058088831FD208A3101302000C9
:1015B600D736D60C890BDB2A0130D5005508D8075B
:1015C6000A305802031CD02A89314C210800F90040
:1015D6000530790203180C2B77080319FF2A7908BE
:1015E600003E840088300318013E85000008F8009C
:1015F600780824008D04080079080B3E84008830A2
:101606000318013E85000008F800780824008D05BF
:1016160008002000BF01BF0A080020004B08031D78
:10162600172B8C316B24080020004B03031D080088
:10163600731E0800A0012F08F7007708A1002E08E6
:10164600F7007708A2004808F7007708A300AE0164
:10165600AF01C8016330F7007708CB00CA01CA0A98
:101666009E13210095128B1208002000C90101303B
:10167600F7007708CC070A304C020318CC014C0857
:10168600D43E860087010108F7007708C300CB0126
:10169600CA01B201B3018B127410C3197414F80194
:1016A60006307802031808007808203E8600870175
:1016B60081010130F7007708F807532B2000CF018E
:1016C600D001D1010A3051020318852B0130CF35E4
:1016D600D00D890B6A2B5108013EFF3A013E0A3EA6
:1016E6008A3141228B312000CD00CE014D08CF0436
:1016F6004E08D0040130CD004D08D1070A30510202
:10170600031C692B5008FB004F08FA000800FA007A
:1017160005307A02031808007708031DA32B7A0800
:101726000B3E840088300318013E85000008F8004F
:101736007808F9008B137908270095058B170800A0
:101746007A08003E840088300318013E85000008B0
:10175600F8007808F9008B137908270095048B1791
:1017660008002000CD010A304D02031808004D087C
:10177600D43E86008701103001060319CA2B4D0896
:10178600D43E8600870111300106031DCF2BF701D9
:101796004D088B318A238B312000CB012100540860
:1017A600FB007B082000C300CC01F0010130FB00E8
:1017B6007B08CD07B62BFA007A08D43E860087014F
:1017C6000108F7007708F8007A080B3E8400883095
:1017D6000318013E85000008F7007708F900053078
:1017E6007A020318002C7908F700770820008D0587
:1017F60021008D0523008D0508007908F70077087C
:1018060020008C0521008C0523008C050800200093
:10181600D1003608031908005108FB007B08F700C1
:10182600B4308E3183268C3178082000D3007708B7
:10183600D20073150D14D401510854020318312C2B
:101846005408B43E8600870101088A3180228C3113
:101856000130FB007B082000D4071F2C52088A3178
:1018660080228C31200053088A3180220800FA0039
:101876007A08003E840088300318013E850000087F
:10188600F7007708F8007A080B3E840088300318C2
:10189600013E85000008F7007708F90005307A0256
:1018A6000318602C7808F700770821008D04790862
:1018B600F700770823008D0508007808F7007708F9
:1018C60021008C047908F700770823008C050800AE
:1018D6002000CA01CA0ACB01CB0A4C08163E840076
:1018E60088300318013E850000089F009E138B1266
:1018F600AE01AF019501F311F312731208304306DE
:10190600031D872C8130942C09304306031D8D2C32
:101916008530942C0A304306031D932C8930942C71
:101926008D309E0020302100950095168B12741480
:10193600F315731208002000D500BF015508D43EE8
:10194600860087010108D2005208D40004305402F0
:101956000318C22C55088D31C3258C31200055083B
:10196600163E840088300318013E850000088D313C
:101976004A2578082000D1007708D00008000730F3
:1019860054020318D12C55088A3160222000D20057
:10199600D3015208D0005308D1000800FF30D00010
:1019A600FF30D1000800860087011600B600160039
:1019B600B7001600AB001600AA001600A900160014
:1019C600A8001600A6001600A7000630FB007B083C
:1019D600F700DF308E3183268C3178082000D30063
:1019E6007708D20027085306031DFB2C260852064B
:1019F6000319FF2CD4010E2D21005E0820003606A7
:101A0600031D3608031D0A2DD401D40A0E2D0230FB
:101A1600FB007B08D4005408080003302000330282
:101A2600E93003193202031C0800B201B3014C0865
:101A36000B3E840088300318013E85000008F7003D
:101A46007708F8008B137808F700770827009505C4
:101A56007808F700770896058B178B137808F70038
:101A6600770821008D057808F700770820008D0596
:101A76008B17CB01CB0A2830F7007708C700C601C1
:101A8600C4010230210095002000950108002000C5
:101A9600CD00210011132000111321001D141D1467
:101AA60020004D08F900F90DF90D21001D087906F1
:101AB600833979069D000B30F9006230890B612D60
:101AC600F90B612D003221009D149D18682D0B30F5
:101AD600F9006230890B6D2DF90B6D2D0032210056
:101AE6009D149D18742D1C08F90079082000CF005C
:101AF60021001B08F90079082000CE004F08F800E5
:101B06004E08F70008002000CE00D001D00A0830A9
:101B1600CD004D08CF004F08031908008B134C0861
:101B26008931CB218D31F70120004C088E310126F9
:101B36008D3120004E0850050319A52D0000000028
:101B46008B17AD2D8B177830883170208D312000A2
:101B5600931DAA2D20004C088931AF218D3120001C
:101B66004E0850050319BE2D7830883170208D310E
:101B76002000931DBB2D0310D00D0130CF028E2DFA
:101B8600F9007908D43E860087010108F700770836
:101B9600F8007908003E840088300318013E85006D
:101BA6000008F7007708FA00053079020318E62DD9
:101BB6007A08F700770821008D047A08F70077087D
:101BC60023008D04F02D7A08F700770821008C0495
:101BD6007A08F700770823008C0422001708780695
:101BE600FC39780697007808031DFD2DFC3021008E
:101BF6009E050800033021009E040800FB007B08B8
:101C0600003E840088300318013E85000008F80075
:101C16007808F9007B080B3E840088300318013EE3
:101C260085000008F8007808FA0005307B020318E2
:101C36002F2E7708031D272E8B137A08F8007808B5
:101C460020008D058B1708008B137908F80078089B
:101C560020008D048B1708007708031D3A2E8B137E
:101C66007A08F800780820008C058B1708008B137B
:101C76007908F800780820008C048B1708002000EB
:101C8600360803194C2E21005E0820003606031D77
:101C96000800A0300032890B4D2E20003703031DAB
:101CA600572E89310F210800023020003706031D08
:101CB6005F2E89310F210800033020003706031DEF
:101CC600672E8F31A9270800043020003706031D30
:101CD6006F2E87312B270800053020003706031D9D
:101CE600772E8931E7210800063020003706031DCC
:101CF6007F2E8331AB23080001308931362108005D
:101D06002000CD00FF30CF00FF30D0007708031948
:101D1600C12E4D08860087014F080106CF005008E6
:101D2600D0000130F9007908CD070830F9007908AC
:101D3600CE004E080319BC2E4F1CAD2E5008FA00DB
:101D46004F08F900FA36F90C01307906CF00A030B9
:101D56007A06B62E5008FA004F08F900FA36F90C42
:101D66007908CF007A08D0000130CE024E08031D54
:101D76009F2E0130F7027708031D8C2E5008F800BD
:101D86004F08F700080020004C08003E8400883009
:101D96000318013E85000008F7007708F900790965
:101DA600F7007708F800CA0100303302153003192E
:101DB6003202031C08006230F7007708CB008B1351
:101DC6007808F7007708270096057908F70077085E
:101DD60095048B177908F70077082000F000240097
:101DE600CF018B15200095010B118B168B139501D6
:101DF6007908F700770821008D048B170000000092
:101E060000000000000000000000000008002000A4
:101E1600CE01CE0ACF010830CD004D08D0005008C3
:101E26000319522F4C088931CB218F31F70120003D
:101E36004C088E3101268F318B1300000000000004
:101E46000000000000000000000020004C0889315E
:101E5600AF218F3100000230883170208F31200091
:101E6600931D322F4C088A3160228F31003A0319B4
:101E7600432F8B1720004E08CD004D08CF04442F6A
:101E86008B177830883170208F312000931D482FB2
:101E96000310CE0D0130D0025008031D152F4F0838
:101EA60008002000DA00D901DC015A08D43E860079
:101EB60087010108D7005708DB0008305B02031CC6
:101EC600742F10305B0203186A2F0430712F4030D4
:101ED6005B06031D702FDC01742F0630D7005708F0
:101EE600DC005C08031D7B2F023089313621080097
:101EF6008731F4278F3120005C08D700570821006E
:101F0600B60006302000D7005708F7005A08883177
:101F1600DB208F312000D8005808DB000130850017
:101F2600A0305B07840000308700B73086005C086D
:101F3600D9008B1300081E00840AD90B9D2F8B171E
:101F460020005C08033E8C310A2408002000D901D9
:101F560001302B02003003192A02031CBF2F013067
:101F66002B020B3003192A020318BF2F2A08D43E6E
:101F7600860087010108C72FA0302A062B04031DFF
:101F8600CD2F21005E082000D700D8015708DA00BF
:101F96005808ED2FFA302A062B04031DD62F0530DC
:101FA600DA000130ED2FFB302A062B04031DDF2F4C
:101FB6003A30DA006530ED2F00302B020A30031973
:101FC6002A020318EF2F2A35A03E86008701403FDC
:101FD600DA00413FDB00F12FD901D90A590803196C
:101FE600F82F023089313621080020005B08D60020
:0A1FF6005A08D500893122210800A5
:020000040001F9
:04000E00FAEFFFFF07
:10E0000006000600060006000600060006000600E0
:10E01000040004007F00FF00FF00FF00FF00FF007E
:00000001FF
