:100000008131422980343E34803120007F08F6005F
:100010002100111C1A282000111C1A28111005306B
:1000200040020318162841088D05182841088C0540
:10003000200018108B190B1CB0281508C5002700CC
:1000400016082000700503193628950124004F0872
:10005000203E8600023087004F082D3C0318CF0A4F
:100060002000450881007009270096052700160822
:1000700015050319B0282000C6002000C61D54280D
:10008000270096112000F11D54282300E00AF21DDC
:100090005028F2116608A4006708A500E601E701F0
:1000A000E70A0319E60A20002000461E6B282700F5
:1000B00016122000711E6B282300E10A721E6728A9
:1000C00072126808AA006908AB00E801E901E90AB0
:1000D0000319E80A20002000C61E82282700961275
:1000E0002000F11E82282300E20AF21E7E28F2126E
:1000F0006A08B0006B08B100EA01EB01EB0A0319D2
:10010000EA0A20002000461F992827001613200025
:10011000711F99282300E30A721F952872136C0837
:10012000B6006D08B700EC01ED01ED0A0319EC0A09
:1001300020002000C61FB028270096132000F11FC2
:10014000B0282300E40AF21FAC28F2136E08BC00AA
:100150006F08BD00EE01EF01EF0A0319EE0A20005F
:100160002100111CC2282000111CC22811100530CA
:1001700040020318BE2841088D05C02841088C059F
:10018000200018102000911CF9289110F31FCF288F
:10019000F3167108F5007508F2002000F313013022
:1001A0002000AA070030AB3D0130A8020030A93B77
:1001B00029082804031DF9286430A8000030A9008C
:1001C000741CEA281508C50020009E138B127410B9
:1001D0007315F128F41CF128F41095010B118B16FE
:1001E00074140130C202C208031DF9280A30C2008B
:1001F000F3172100111E19292000111E1929360894
:100200003A06031913293A08A03E8600870101081F
:1002100023009A002000BA0A203020003A02031C72
:100220001929BA0119293A083606031D192921008E
:1002300011128B1A0B1D28290B11731F2429200062
:10024000AC0A031DAD0A28298B1232302000B200FF
:100250002100911E3E292000911E3E2920003B08CE
:10026000BB0A203E86000130870023001908810068
:10027000200020003B08203A0319BB01760820002B
:10028000FF00090081314429F301F401203084008A
:10029000003085002D30883132208131A03084003B
:1002A000003085004930883132208131203084008F
:1002B00001308500203088313220813180310220A8
:1002C0008131EC0080310320ED002000813168296C
:1002D00002302100950023008C018D012030200088
:1002E0008C003F3024008C008B011D3021009700D2
:1002F000F3106400D4302000E5006508E800EA014E
:100300000B306A0203189B296A0889312621813142
:100310002000E5006808860087016508810001303B
:10032000E5006508E8070130E5006508EA070B30DD
:100330006A02031C84293F3021008C00DE308D00CE
:1003400020000D10803022009D0001309E00823080
:1003500023009E009D011E159F151E128A309B00D2
:100360009C019E169D171D1621001112200091124E
:10037000111223001F121F102000B601BA01BB0189
:10038000BC018B170B1721009116270094019501D2
:1003900096018B152000F001F101F31107309C004C
:1003A0007D309B009A0191106430A8000030A900B4
:1003B0000A30E5006508C200210091140B178B1765
:1003C000E3309E0001309D0023008C018D0121004F
:1003D000111320001113C230220097002000EB01FE
:1003E0000A306B020318022A73146B088231BA2296
:1003F000813101302000E5006508EB070A306B020F
:10040000031CF4297310073028009700553025008D
:100410009E00FF30280096009501210093102000D7
:10042000931088312C2081312000B701CB30E700B8
:10043000ED30E6004C30E500E50B1C2AE60B1C2AEB
:10044000E70B1C2A00328B31932381312000EB0112
:100450000A306B0203183B2A6B35C03E86008701C9
:100460000030C03FC13F0130E5006508EB070A30AE
:100470006B02031C2C2A0A30E5006508C0003030EE
:100480009800991311102100111020001810F31C6E
:100490006400F3194D2A20000D10F31D5F2A21007E
:1004A000111AB02AE4302000E50000320032E50BDA
:1004B000552A0032000020000D10F311B02A8831B7
:1004C00038208131003A0319B02A8931A4218131C1
:1004D0002000E5003708DF3E8600870165088100BF
:1004E0000130E5006508B70708303702031CB02A61
:1004F0000830E5006508B700DF308D319E25813179
:100500002000E5006508E9006908013A031D8D2A0D
:100510008731BB2781312000912A6908023A031DE7
:10052000932AB701B02AEB01EB0A08306B020318DB
:10053000AE2A6B08DF3E860087010108E5006B08E4
:10054000FF3EDF3E86008701650881000130E5003F
:100550006508EB0708306B02031C992A0130B702CB
:100560008431912481318E31F526813186316D2699
:100570008131472A2000D2005208D43E86008701EC
:100580000108D0005008D1008B319323823106300E
:100590002000D0005008F70052088831A020823196
:1005A000A03E8600013087000030C03F0030C13FD0
:1005B000C23FC33F06302000D0005008F700520869
:1005C0008831A0208231043EA03E860001308700A1
:1005D0000030C03FC13F0530200052020318F82A06
:1005E00052080C3E88310A008231D0005008F105D3
:1005F000D208031DFD2A2500930120005208033A6A
:10060000031D042B25009A0120005208083A031DFF
:100610000B2B2600930120005208093A031D122BD0
:1006200026009A010530200052020318232BF701FF
:10063000F70A52088A3169228231F70120005208F4
:100640008A31CE22823120005235C03E8600870199
:100650000030C03FC13F0430510203183D2B05302C
:1006600052020318382BF70152088A31692282316D
:10067000200052088C31EA240800511B432B5108FA
:10068000063A031D472B52088B316A2308002000CD
:100690005108073A031D542B0030F7000030F800D2
:1006A00052088631DE260800D11F7D2BF701520843
:1006B0008A3169228231200052088B31BD23823178
:1006C000F701F70A200052088A31CE228231200039
:1006D000D2080319F1155208013A0319711652088C
:1006E000023A0319F1165208033A03197117520816
:1006F000043A031D0800F1170800D119832B510893
:10070000043A031D9A2BD11D8C2B05305202031C79
:100710008C2BAE01AE0A0800053052020318952B4F
:10072000F70152088A3169228231200052088B3148
:10073000BD230800511EA32B05305202031C0800E4
:10074000AE01AE0A080052088B31BD2308001030FC
:1007500020002306031DAE2B02302206031DB32BFF
:100760008A31F2220800013020002306031DBA2B33
:10077000FF302206031DC82B56302706031DC22B4F
:1007800078302606031DC62B73140800731008006A
:10079000AA3020002306031DCF2B55302206031D4F
:1007A000E42B12302706031DD72B34302606031DF9
:1007B000E02BF3141130210097008931D921080072
:1007C00002308931702108000130200023020030FE
:1007D00003192202031C2D2C013023020A300319B5
:1007E000220203182D2C731C2A2C2208DA005A0826
:1007F000DC00AE015C08D43E860087010108DA0007
:100800005A08DB002608DA005C08D43E860087011F
:100810005A0881005C088231BA22833120002E08F8
:100820000319232C5B08DA005C08D43E860087019C
:100830005A0881005C088231BA2283310230893142
:1008400070218331282C8931D92183318A314A2280
:10085000731408008931D9210800003020002302D8
:100860000A300319220203187A2C2208D43E86008B
:1008700087010108DA005A08DB002708F801F807A9
:100880002608F701F70722088631DE268331003873
:10089000031D772C20005B08803A031D662C270877
:1008A0002604031D772C0630DA005A08F7002208C8
:1008B0008831A0208331A03E8600013087000030BF
:1008C000C03F0030C13FC23FC33F772C20005B08D0
:1008D000403A031D742C2235C03E8600870126084D
:1008E000C03F2708C13F772C8931F42108008931A6
:1008F000D9210800A030200022062304031D8D2CDE
:10090000731C8A2C2608DA005A082100DE008A317E
:100910004A2283318931D92108000230893170217E
:10092000080020003208633A031D4A2DB508031D54
:100930009C2C88315B20843106302000D200520884
:10094000F70033088831A0208431A03E2000D50074
:100950000130D6003508FF3A031DB72C5508860034
:1009600056088700FF30C03FFF30C13FC82C5508F4
:1009700086005608870081015508013ED2000030EC
:10098000563DD30052088600530887003508810081
:100990003408103A031DF32C5508033ED2000030F2
:1009A000563DD3005208860053088700470881004F
:1009B0004908D2005508053ED3000030563DD4000A
:1009C00053088600540887005208810055088600A5
:1009D0005608870042318101550886005608870075
:1009E00044318101092D3408113A031D092D5508A0
:1009F00086005608870042314708C03F4808C13F7B
:100A0000550886005608870044314908C03F4A0807
:100A1000C13FB41E392D4808D2005508023ED3000C
:100A20000030563DD4005308860054088700520811
:100A300081005508033ED2000030563DD3005208D5
:100A4000860053088700470881005508860056082D
:100A50008700443181014B08D2005508053ED30080
:100A60000030563DD40053088600540887005208D1
:100A70008100B41D472D5508860056088700470899
:100A8000C03F4808C13F4908C23F4A08C33F8B31B5
:100A900041230800341E4F2D8931BE210800B41EA9
:100AA000542D85315C250800B41D592D8B31182338
:100AB00008008B3141230800BF2D88313F200800FA
:100AC00009302000D1005108B200883181208531E1
:100AD000EF2D2000931D0800EF2D8A312C22853147
:100AE0000038031DEF2DFF302000D1005108B50064
:100AF0006330D1005108B2000800CC308D3161253F
:100B00008531EF2D44308D316125853158302000FD
:100B1000A0000230A100FA30883151208531EF2D3C
:100B2000931D08000130A0020030A13B21082004E1
:100B30000319EF2DFA30883151200800BE308D3175
:100B4000612585312000B001EF2D8E31A42685313D
:100B50002000D1003008473E8600870151088100FF
:100B60000130D1005108B00706303002031C0800E4
:100B70006330D1005108B200B501B50A0800200069
:100B80003208003A03195D2D013A0319602D0B3A22
:100B90000319692D013A03196D2D073A0319692DBF
:100BA000013A03197D2D033A0319822D013A0319E5
:100BB000902D1F3A0319652D013A0319692D033A47
:100BC00003196D2D013A0319692D073A03197D2D7B
:100BD000013A03199E2D033A0319A52DEF2D01307B
:100BE0002000D1005108B20708002000E101E20115
:100BF000AE0100302302A030031922020318242E74
:100C00002308DF002208DE000430DF36DE0C890B0B
:100C1000052E5E08E0006008E30063088831742058
:100C20008531003A0319192E200063088F31A62759
:100C30000800200063088C31782485312000510899
:100C4000E201E2075008562E10302306031D2A2E1B
:100C500000302206031D352E8831D4208531200036
:100C60005108E201E2075008562E10302306031DFA
:100C70003B2E01302206031D462E8831B1208531DE
:100C800020005108E201E2075008562E10302306DA
:100C9000031D4C2E02302206031D592E8B31E823F2
:100CA00085317B082000E201E2077A08E101E107D3
:100CB0005B2EAE01AE0A20002E080319632E02300F
:100CC00089317021080020006208D701D707610828
:100CD000D601D60789310E2108008B132000F21DA2
:100CE000792EF21123006608A4006708A600E60129
:100CF000E7018B178B132000721E862E72122300C1
:100D00006808AA006908AB00E801E9018B178B139A
:100D10002000F21E932EF21223006A08B0006B0826
:100D2000B100EA01EB018B178B132000721FA02E7C
:100D3000721323006C08B6006D08B700EC01ED01DA
:100D40008B138B172000F21FAD2EF21323006E08B9
:100D5000BC006F08BD00EE01EF018B1723008B1361
:100D60006008E0018B17A3070030A23DA13DA03D24
:100D70008B136108E1018B17A9070030A83DA73D3F
:100D8000A63D8B136208E2018B17AF070030AE3D22
:100D9000AD3DAC3D8B136308E3018B17B507003005
:100DA000B43DB33DB23D8B136408E4018B17BB0720
:100DB0000030BA3DB93DB83D200008002000CF000A
:100DC0007808FA007708F900FA36F90CFA36F90CC7
:100DD0007908FB007B08CD0077080339F900790812
:100DE000CE00CE0EF030CE050C30F9007908CE04DE
:100DF0004F08D43E860087010108073A0319022FE5
:100E000000300800CF08031D0F2F21008D11200096
:100E10004E082500930020004D0825002C2F2000AF
:100E20004F08033A031D1E2F21000D1320004E080A
:100E300025009A0020004D0825003C2F20004F0877
:100E4000083A031D2E2F21008C1120004E08260089
:100E5000930020004D0826009100422F20004F08EB
:100E6000093A031D3E2F21000C1220004E082600D7
:100E70009A0020004D0826009800422F2000AE0165
:100E80000030080020004F35C03E860087017708FB
:100E9000C03F7808C13F013008008B12F7012000E5
:100EA00033088A31CE228731FF30FB007B082000D7
:100EB000B5002A3024004F02031CAA2F2000C401D1
:100EC0000230FB007B08AF00B101CE0105304E02BD
:100ED00003189F2FCD0108304D020318872F0310F0
:100EE000C40D2F08AF0A203E8600023087006F3005
:100EF0000102031C7F2F0130FB007B08C407013077
:100F0000FB007B08CD0708304D02031C702F043016
:100F10004E020318972F4408FB007B08B1074408D2
:100F2000FB004E08473E860087017B0881000130A8
:100F3000FB007B08CE0705304E02031C6A2F3108E8
:100F40004406031DAA2FB501B50A6330FB007B08D8
:100F5000B20008002000BE08031DB62F0130FB00C0
:100F60007B08BE07AA01AB01B20108006330FB0099
:100F70007B08B2000800200039080319C52F2100A2
:100F80005E0820003906031D0800C730E400000099
:100F9000E40BC72F0032000020003808013A031D7F
:100FA000D42F8831E720080020003808023A031DBA
:100FB000DC2F8831E720080020003808033A031DA1
:100FC000E42F8F314D27080020003808043A031D14
:100FD000EC2F8531F525080020003808053A031D5F
:100FE000F42F8931F421080020003808063A031D47
:100FF000FC2F8331A72308000130893170210800BC
:101000000034083402341034403480340134023463
:101010000434083410340034F734FD34EF34BF3472
:101020007F34FE34FD34FB34F734EF34FF340934BD
:101030000B340834053406340034013402340334EC
:02104000043476
:101058008B132000BB01BC018B17080064008001C2
:101068000131890B3328003420003B083C0600304E
:10107800031D013008002000330889315721200062
:10108800B201B20A0800F700053028009E00770870
:101098009D009C01200093110800F70007302800EC
:1010A8009E0077089D009C012000931108008B1278
:1010B8000B11FF302000CB00FF30CC00341E08009D
:1010C80088319020080021005E08F7007708240086
:1010D800A00020003808F70077082400A1000800C5
:1010E800F7007708D43E860087010108B83903194C
:1010F8007F280130080000300800200033088931BB
:1011080057218831F701200033088C31AF2488310A
:101118003F308831512008008B12F7012000330836
:101128008A31CE2288316330FB007B082000B20070
:10113800330889313E210800FA00F9017A1CA828F1
:101148007708F8007808F9070310F70D0310FA0C70
:10115800FA08031DA228790808002200971617121A
:10116800FC3021009E051D308D31DE2578082000D9
:10117800D101D1077708D001D00708002000CF009F
:101188004F08D43E860087010108063A031D08006F
:101198004D08CE004E08F7004F088C31AF240800E8
:1011A80022001708FC3902389700FC3021009E0500
:1011B8001F308D31DE2578082000D101D10777084E
:1011C800D001D00708000030200023020A3003199C
:1011D80022020318F628220889318A2188318831A9
:1011E800FA20080002308931702108002000F5003B
:1011F80088316720883101302400A200200075085A
:101208002400A30004302000D0000030D1008D312C
:10121800252508002000D600883167208931023052
:101228002400A200200057082400A300200056082C
:101238002400A40005302000D0000030D1008D31FA
:1012480025250800FA0064002300951827297A0844
:10125800F700F80177089100780892003F30F9000C
:101268007908950515140310151803140030093D65
:1012780013080800F8007808013E88310A0089310F
:10128800F7007708F9000530780203185129790822
:10129800F700770821008D0408007908F70077081F
:1012A80021008C040800F80078080C3E88310A00F8
:1012B8008931F7007708F9000530780203186A29A0
:1012C8007908F700770821008D0508007908F700EC
:1012D800770821008C0508002000D7008831672096
:1012E8008931200038088038D60056082400A1002B
:1012F80020005708D60056082400A200033020001A
:10130800D0000030D1008D3125250800F9000530C6
:1013180079020318922920000D08942920000C084E
:10132800F7007708F8007908013E88310A0089310A
:10133800F7007708F8050030F808031D01300800A9
:10134800883138208931003A0319A42920003C0843
:10135800203E8600013087000108F7007708F80072
:101368000130F7007708BC0720303C020318BC01A5
:101378007808080020003208623A03190800320889
:10138800323A031DCA2987314D2708002000320848
:10139800633A031908003208013A031DD6298E3131
:1013A8001E2608008C3143240800883167208931C3
:1013B800200023082400A200200022082400A30003
:1013C800200027082400A400200026082400A500E7
:1013D80006302000D0000030D1008D3125250800CE
:1013E8000030200023020A300319220203180B2AB6
:1013F800270826040030031D0130D8005808CD0006
:1014080022088831C22089318931D9210800023067
:10141800893170210800F9007908013E88310A00F5
:101428008A31F7007708FA000530790203181F2A75
:1014380020000D08212A20000C087A05F7007708FB
:10144800F800F808031D2A2A0030080001300800B7
:101458002000330889313E218A31B4308831472051
:101468008A312000931D352A33088A310F228A31A8
:10147800FB007B0C731203187316731E452A003089
:10148800080033308831512001300800D430FB0087
:101498007B082000CD00CE010B304E020318080057
:1014A8004D08860087010108FB007B08F7004E08FD
:1014B8008A31AB228A310130FB007B082000CD073E
:1014C8000130FB007B08CE07502AF900053079026D
:1014D8000318852A770803197B2A7908013E883181
:1014E8000A008A31F800780824008D040800790879
:1014F8000C3E88310A008A31F800780824008D05EE
:1015080008002000AE01AE0A0800F8007808F700CD
:1015180077082000BF073608013EF7007708F90072
:10152800203079020318F90179083A060319982A34
:101538007808F7003608A03E860087017708810002
:101548007908F7007708B600210011160800FA009C
:1015580023009518AC2A7A08F800F9017808910058
:1015680079089200770893003F30F80078089505CD
:10157800200003108B1B03148B1323001515553003
:101588009600AA309600951415112000031C080037
:101598008B170800FA0005307A0203180800F708CC
:1015A800031DE42A7A080C3E88310A008A31F800C3
:1015B8007808F9008B137908270095058B17080020
:1015C8007A08013E88310A008A31F8007808F90063
:1015D8008B137908270095048B170800200027082B
:1015E800D801D8072608D701D707D9010A305902E8
:1015F8000318152B57080139D6005608CD0059088D
:101608008831C2208A3101302000D836D70C890BA6
:10161800092B0130D6005608D9070A305902031C95
:10162800FE2A8931D92108002000B208031D1F2B8A
:101638008C311324080020003208013A031D0800E9
:10164800731D0800C7012D08F7007708C8002C088B
:10165800F7007708C9004508F7007708CA00AC0109
:10166800AD01C5016330F7007708B200B501B50ACE
:101678009E13210095128B1208002000BE01013034
:10168800F7007708B3070A3033020318B3013308A9
:10169800D43E860087010108F7007708B400B2013C
:1016A800B501AA01AB018B127313B4197317F801B2
:1016B80006307802031808007808473E860087013C
:1016C80081010130F7007708F8075C2BFA007A08E7
:1016D800D43E860087010108F7007708F8007A08E9
:1016E8000C3E88310A008B31F7007708F900053085
:1016F8007A020318892B7908F700770820008D05EE
:1017080021008D0523008D0508007908F70077086A
:1017180020008C0521008C0523008C050800200082
:10172800CD010A304D02031808004D08D43E86004A
:1017380087010108103A0319A92B4D08D43E8600E9
:1017480087010108113A031DAE2BF7014D088A31B4
:10175800CE228B312000B20121005408FB007B0807
:101768002000B400B301F0010130FB007B08CD0775
:10177800952BFA007A08013E88310A008B31F70070
:101788007708F8007A080C3E88310A008B31F70098
:101798007708F90005307A020318DD2B7808F7007E
:1017A800770821008D047908F700770823008D0554
:1017B80008007808F700770821008C047908F700FA
:1017C800770823008C0508002000CF01D001D10143
:1017D8000A30510203180C2C0130CF35D00D890B7B
:1017E800F12B5108013EFF3A013E0A3E89318A2118
:1017F8008B312000CD00CE014D08CF044E08D00417
:101808000130CD004D08D1070A305102031CF02BDE
:101818005008FB01FB074F08FA01FA0708002000EF
:10182800B501B50AB201B20A3308173E88310A0079
:101838008C319F009E138B12AC01AD019501F41001
:10184800741073113408083A031D2C2C8130392C7C
:101858003408093A031D322C8530392C34080A3AE9
:10186800031D382C8930392C8D309E002030210002
:10187800950095168B127317F41473110800033032
:1018880020002B02E93003192A02031C0800330840
:101898000C3E88310A008C31F7007708F8008B136A
:1018A8007808F7007708270095057808F700770883
:1018B80096058B178B137808F700770821008D059C
:1018C8007808F700770820008D058B17B201B20A57
:1018D8002830F7007708AF00C401B00102302100BA
:1018E80095002000950108002000D500AE0155089C
:1018F800D43E860087010108D2005208D400043083
:10190800540203189B2C55088C31EA248C31200092
:101918005508173E88310A008C318D31DE2578084C
:101928002000D101D1077708D001D007080007307F
:1019380054020318AA2C55088A310F222000D2001D
:10194800D3015208D0005308D1000800FF30D0005E
:10195800FF30D1000800FB007B08013E88310A00F7
:101968008C31F8007808F9007B080C3E88310A00B1
:101978008C31F8007808FA0005307B020318D72C60
:10198800F708031DCF2C8B137A08F800780820007D
:101998008D058B1708008B137908F800780820004C
:1019A8008D048B170800F708031DE22C8B137A08A7
:1019B800F800780820008C058B1708008B1379082D
:1019C800F800780820008C048B170800F9007908C3
:1019D800D43E860087010108F7007708F8007908E7
:1019E800013E88310A008C31F7007708FA0005308B
:1019F800790203180A2D7A08F700770821008D0468
:101A08007A08F700770823008D04142D7A08F70068
:101A1800770821008C047A08F700770823008C04E3
:101A2800220017087806FC3978069700F808031D85
:101A3800212DFC3021009E050800033021009E0462
:101A480008002000B908031908002030F700023008
:101A5800F8005008D2005208F9008E315F268D3107
:101A680078082000D401D4077708D301D307F315E9
:101A78000D14D5015108803A803C031D452D5008AE
:101A880055020318572D20005508203E86000230C5
:101A9800870001088A3189228D3101302000D20067
:101AA8005208D5073E2D200053088A3189228D31EE
:101AB800200054088A31892208002000CE00D00175
:101AC800D00A0830CD004D08CF00CF080319080010
:101AD8008B133308893157218D31F70120003308E2
:101AE8008C31AF248D3120004E0850050319802D0C
:101AF800000000008B17882D8B177830883147201D
:101B08008D312000931D852D2000330889313E2119
:101B18008D3120004E0850050319992D78308831F1
:101B280047208D312000931D962D0310D00D0130D4
:101B3800CF02692D860087011600B9001600B8008B
:101B48001600A3001600A2001600A7001600A600A3
:101B58001600A4001600A500DF30F7000030F800DA
:101B680006302000D0005008F9008E315F268D31F4
:101B780078082000D301D3077708D201D2072508B7
:101B88005306031DC92D240852060319CD2DD4016F
:101B9800DC2D21005E0820003906031DB908031D4D
:101BA800D82DD401D40ADC2D0230D0005008D4003E
:101BB800540808002000CD00210011132000111343
:101BC80021001D141D1420004D08F900F90DF90D10
:101BD80021001D087906833979069D000B30FA002B
:101BE8006230F900F90BF62DFA0BF62D00002100F2
:101BF8009D149D18FD2D0B30FA006230F900F90B89
:101C0800032EFA0B032E000021009D149D180A2EA6
:101C18001C08F90079082000CF0021001B08F900F2
:101C280079082000CE004F08F801F8074E08F701A0
:101C3800F707080020003308013E88310A008E317A
:101C4800F7007708F9007909F7007708F800B50177
:101C58006230F7007708B20000302B020430031915
:101C68002A02031C08008B137808F700770827005E
:101C780096057908F700770895048B177908F70017
:101C880077082000F0002400CF018B152000950173
:101C98000B118B168B1395017908F7007708210033
:101CA8008D048B17000000000000000000000000F9
:101CB800000000000800FF302000CE00FF30CF00F9
:101CC800F90803199D2E77088600780887004E08C2
:101CD8000106CE004F08CF000130F7070030F83D6D
:101CE8000830FA007A08CD00CD080319982E4E1C4A
:101CF800892E4F08FB004E08FA00FB36FA0C01301B
:101D08007A06CE00A0307B06922E4F08FB004E08C4
:101D1800FA00FB36FA0C7A08CE007B08CF000130B7
:101D2800CD02CD08031D7B2E0130F902F908031DF1
:101D3800672E4F08F801F8074E08F701F707080063
:101D48002000CE01CE0ACF010830CD004D08D000CA
:101D5800D0080319F32E3308893157218E31F70142
:101D6800200033088C31AF248E318B130000000023
:101D78000000000000000000000000002000330800
:101D880089313E218E310000000000000000000073
:101D98000000000000000130883147208E3120000B
:101DA800931DD32E33088A310F228E31003A03193E
:101DB800E42E8B1720004E08CD004D08CF04E52EE9
:101DC8008B177830883147208E312000931DE92EFB
:101DD8000310CE0D0130D002D008031DAF2E4F08DE
:101DE80008002000181808000130F7007708C0071D
:101DF8000B304002031C052FC0012030EC004E3090
:101E0800ED0040080C3E88310A008F31F700770852
:101E1800C10040080A3A031D172FED1B08006C0982
:101E2800F7006D092A2F4035C03E86008701403FE4
:101E3800FA00413FFB007A08EC027B08ED3B7B0887
:101E48007A04031908007A09F7007B09F800F70AF1
:101E58000319F80A770896007808970011102100EE
:101E6800111420004008013E88310A008F31F70024
:101E78007708F900053040020318462F8B137908BC
:101E88008D04492F8B1379088C04200018148B17A4
:101E980008002000DA010130230200300319220271
:101EA800031C632F013023020B300319220203188D
:101EB800632F2208D43E8600870101086B2FA030CB
:101EC80022062304031D712F21005E082000D8007C
:101ED800D9015808DB005908912FFA30220623044B
:101EE800031D7A2F0230DB000130912FFB302206D0
:101EF8002304031D832F3A30DB006530912F003017
:101F080023020A30031922020318932F2235C03EF8
:101F180086008701403FDB00413FDC00952FDA0156
:101F2800DA0A5A0803199C2F0230893170210800F7
:101F380020005C08D701D7075B08D601D60789318E
:101F48000E2108002000DB00DA01DD015B08D43E29
:101F5800860087010108D8005808DC0008305C02B8
:101F6800031CC62F10305C020318BC2F0430C32F8B
:101F78005C08403A031DC22FDD01C62F0630D80089
:101F88005808DD00DD08031DCD2F0230893170218E
:101F98000800883167208F3120005D08D800580874
:101FA8002400A20006302000D8005808F7005B087B
:101FB8008831A0208F312000D9005908DC00013079
:101FC8008500A0305C07840002308700233086003B
:101FD8005D08DA008B1300081E00840ADA0BEF2F65
:101FE8008B1720005D08033ED00000300318013035
:081FF800D1008D312525080000
:020000040001F9
:04000E00FAEFFFFF07
:10E0000006000600060006000600060006000600E0
:10E01000040004007F00FF00FF00FF00FF00FF007E
:00000001FF
