:100000008131502980343E347E1480312100111C0E
:100010001B282000111C1B28111005303C0203185E
:1000200016283B08F30073088D051A283B08F300D7
:1000300073088C0518108B190B1CBA2820001508A2
:10004000F3007308C200270016082000700503198A
:1000500041284208F30024004F08203E8600023069
:100060008700730881000130F3007308CF072E303A
:100070004F0203183F280130F3007308CF07200018
:100080009501270016081505F30073082000AE003F
:10009000AE1D5E28270096112000F11D5E2823006A
:1000A000E00AF21D5A28F2116608A4006708A500AC
:1000B000E601E701E70A0319E60A20002000AE1C6A
:1000C0007528270096102000711E75282300E10A6C
:1000D000721E712872126808AA006908AB00E80154
:1000E000E901E90A0319E80A200020002E1E8C28E5
:1000F000270016122000F11E8C282300E20AF21EAF
:100100008828F2126A08B0006B08B100EA01EB011E
:10011000EB0A0319EA0A200020002E1FA32827005B
:1001200016132000711FA3282300E30A721F9F28C3
:1001300072136C08B6006D08B700EC01ED01ED0A12
:100140000319EC0A20002000AE1FBA2827009613DE
:100150002000F11FBA282300E40AF21FB628F21388
:100160006E08BC006F08BD00EE01EF01EF0A031935
:10017000EE0A20002100111CCF282000111CCF28DE
:10018000111005303C020318CA283B08F30073081D
:100190008D05CE283B08F30073088C05181020004D
:1001A000911C07299110EA1FDD286A177108F300D6
:1001B0007308F20020002000EA130130AC07003081
:1001C000AD3D0130A6020030A73B26082704031DE1
:1001D00007296430A6000030A700EA1EF72815089A
:1001E000C20020009E138B12EA126A16FE28EA1D36
:1001F000FE28EA1195010B118B16EA16B8032000B0
:100200003808031D07290A30B8002000EA1721002A
:10021000111E28292000111E282937083606031927
:1002200022293608403E860001308700010823005D
:100230009A002000B60A203020003602031C28292C
:10024000B601282936083706031D28292100111276
:100250008B1A0B1D38290B1120006B1C3429200030
:10026000A80A031DA90A38298B1232302000C500C4
:100270002100911E4E292000911E4E292000350894
:10028000B50A203E8600013087002300190881004E
:1002900020002030200035060319B5017E1009002A
:1002A00081315229803102208131EC0080310320DC
:1002B0008131ED00FC01EA01EB01203084000030C7
:1002C000850030308831D8208131A0308400003062
:1002D000850049308831D8208131203084000130B8
:1002E000850040308831D8207E1020008131782967
:1002F000F030210099000230950023008C018D011F
:10030000203020008C003F3024008C008B011D30F9
:100310002100970020006A106400D4302000E4001F
:100320006408E600E80168088931A52181312000D0
:10033000E400660886008701640881000130E4005B
:100340006408E6070130E4006408E8070B3068023F
:10035000031C93293F3021008C00DE308D002000EB
:100360000D10803022009D0001309E00823023005D
:100370009E009D011E159F151E128A309B009C0138
:100380009E169D171D1621001112200091121112A8
:1003900023001F121F102000B701B601B501B401E0
:1003A0008B170B17210091162700940195019601D8
:1003B0008B152000F001F1016A1107309C007D309F
:1003C0009B009A0191106430A6000030A7000A300B
:1003D000E4006408B800210091140B178B17E33078
:1003E0009E0001309D0023008C018D01210011131E
:1003F00020001113C230220097002000E901EA1406
:1004000069088231B422813101302000E40064089F
:10041000E9070A306902031CFF29EA1007302800A7
:100420009700553025009E00FF302800960095016A
:1004300021009310200093108831D3208131AF0127
:10044000CB302000E500EC30E4008430890B262A14
:10045000E40B262AE50B262A00008B31D7238131B5
:10046000E9016935A03E860087010030C03FC13FE9
:100470000130E4006408E9070A306902031C312AEC
:100480000A30E4006408BC00303098009913111061
:10049000210011102000181020006A1C64002000A8
:1004A0006A1D0D106A1D622A2100111AAA2AE43061
:1004B00000320032890B582A0032003220000D1021
:1004C0006A11AA2A8831E5208131003A0319AA2A43
:1004D0008931FF218131E4002F08DF3E860087014A
:1004E000640881000130E4006408AF0708302F027F
:1004F000031CAA2A0830E4006408AF00DF308E3104
:1005000060268131E4006408E7006703031D8E2A3A
:100510008E31282681312000AF01AA2A02306706D9
:1005200003198B2AE901E90A6908DF3E8600870181
:100530000108E4006908DE3E860087016408810046
:100540000130E4006408E90708306902031C942ABA
:100550000130AF0284317624813186319826813191
:100560008531C32581314C2AD2005208D43E860001
:1005700087010108D0005008D1008B31D723823188
:100580000630D0005008F400520889316F218231C2
:10059000A03E8600013087000030C03F0030C13FE0
:1005A000C23FC33F0630D0005008F40052088931E2
:1005B0006F218231A43E8600013087000030C03FA9
:1005C000C13F053052020318F02A52080A3E840047
:1005D00088300318013E85000008D0005008F1055E
:1005E0005208031DF52A250093010330200052060E
:1005F000031DFC2A25009A01083020005206031D25
:10060000032B26009301093020005206031D0A2BFC
:1006100026009A0105302000520203181B2BF4011A
:10062000F40A52088B3163238231F401200052080E
:100630008C312A24823120005235A03E8600870169
:100640000030C03FC13F043051020318352B053044
:1006500052020318302BF40152088B31632382318C
:10066000200052088E31D6260800511B3B2B063045
:100670005106031D3F2B52088C31562408000730C9
:100680005106031D4A2B0030F400F50052088F314B
:10069000A8270800D11F742B5118532BF4015208BE
:1006A0008B3163238231200052088C31B324823194
:1006B000F401F40A200052088C312A2482312000EF
:1006C00052080319F115520303197116023052062C
:1006D0000319F1160330520603197117043052063C
:1006E000031D0800F1170800D1197A2B04305106B8
:1006F000031D912BD11D832B05305202031C832B2C
:10070000B901B90A08000530520203188C2BF40114
:1007100052088B3163238231200052088C31B3247C
:100720000800511E982B05305202031C0800802B34
:1007300052088C31B324080002302406103003190B
:100740002506031DA62B8A31C3220800240A031D97
:10075000BB2B2503031DBB2B783022065630031913
:100760002306031DB62B2000EA14B82B2000EA1044
:100770008931D021080055302406AA3003192506F6
:10078000031DD22B34302206123003192306031D19
:10079000CE2B6A14113021009700B82B023089311A
:1007A000BA21080001302502003003192402031C7D
:1007B000182C013025020A30031924020318182CC2
:1007C000EA1CB82B2408D9005908DB00B9015B08E2
:1007D000D43E860087010108D9005908DA002208B2
:1007E000D9005B08D43E86008701590881005B0868
:1007F0008231B4228331200039080319102C5A08A1
:10080000D9005B08D43E86008701590881005B0847
:100810008231B422833102308931BA218331152CDF
:100820008931D02183318A3189222000EA140800DD
:10083000003025020A30031924020318622C240810
:10084000D43E860087010108D9005908DA00230840
:10085000F5002208F40024088F31A8278331003ADC
:10086000031DB82B803020005A0603193B2C813021
:100870005A06031D522C22082304031DB82B0630F0
:10088000D9005908F400240889316F218331A03E32
:100890008600013087000030C03F0030C13FC23FBA
:1008A000C33FB82B40305A06031D5F2C2435A03EB1
:1008B000860087012208C03F2308C13FB82B8A3138
:1008C00050220800A03024062504031D722CEA1CC7
:1008D000B82B2208D90059082100DE008A3189226C
:1008E0008331B82B02308931BA21080063302000EF
:1008F0004506031D142D4408031D812C8931012157
:10090000843106302000D5005508F4007C08893178
:100910006F218431A03ED6005608FB00440A031D17
:100920009A2C7B08860001308700FF30C03FFF30E3
:10093000C13FA72C7B088600013087008101440855
:10094000D5007B0A860001308700550881001030F1
:100950003D06031DCA2C4608D5007B08033E8600D1
:1009600001308700550881004808D5007B08053E06
:10097000860001308700550881007B08023E860012
:100980000130870081017B08043E8600013087002A
:100990008101E02C11303D06031DE02C7B08023E56
:1009A0008600013087004608C03F4708C13F7B08EA
:1009B000043E8600013087004808C03F4908C13F17
:1009C000BD1E032D4708D5007B08023E860001307E
:1009D0008700550881004608D5007B08033E860045
:1009E00001308700550881007B08043E86000130F5
:1009F000870081014A08D5007B08053E860001304A
:100A0000870055088100BD1D112D7B08860001302F
:100A100087004608C03F4708C13F4808C23F490811
:100A2000C33F8B31AE2308003D1E192D8931E721CC
:100A30000800BD1E1E2D853123250800BD1D112D6A
:100A40008B3188230800912D8831DE200800093081
:100A5000FA007A08C500893118218531C02D931D0F
:100A60000800C02D8A316C228531003A031DC02D4B
:100A7000FF30FA007A08C4006330FA007A08C50033
:100A80000800CC308D31B9258531C02D44308D31F1
:100A9000B92585315830AA000230AB00FA308831D0
:100AA000F7208531C02D931D08000130AA020030C7
:100AB000AB3B2A082B040319C02DFA308831F720EC
:100AC0000800BE308D31B9258531BE01C02D8D3174
:100AD000F0258531FA003E08463E860087017A08F7
:100AE0008100BE0A093020003E02031C080063306A
:100AF000FA007A08C5000830FA007A08F400463097
:100B00008C31002485314E060319882D0230892D41
:100B10000130D3000030D4005308FA007A08C40032
:100B200008004508003A0319242D013A0319272D1E
:100B30000B3A03192F2D013A0319322D073A0319E5
:100B40002F2D013A0319412D033A0319462D013A7D
:100B50000319532D1F3A03192B2D013A03192F2D79
:100B6000033A0319322D013A03192F2D073A0319BD
:100B7000412D013A0319612D033A0319672DC02D48
:100B80002000C50A08008B13F21DCE2DF2112300A0
:100B90006608A4006708A600E601E7018B178B131F
:100BA0002000721EDB2D721223006808AA0069085B
:100BB000AB00E801E9018B178B132000F21EE82D32
:100BC000F21223006A08B0006B08B100EA01EB01E1
:100BD0008B178B132000721FF52D721323006C08E6
:100BE000B6006D08B700EC01ED018B138B172000E8
:100BF000F21F022EF21323006E08BC006F08BD0026
:100C0000EE01EF018B1723008B136008E0018B17B7
:100C1000A3070030A23DA13DA03D8B136108E10177
:100C20008B17A9070030A83DA73DA63D8B1362088E
:100C3000E2018B17AF070030AE3DAD3DAC3D8B13ED
:100C40006308E3018B17B5070030B43DB33DB23DF7
:100C50008B136408E4018B17BB070030BA3DB93D24
:100C6000B83D20000800E101E201B9010030250291
:100C7000A0300319240203185E2E2508DF00240883
:100C8000DE000430DF36DE0C890B422E5E08E00009
:100C90006008E3006308893125218631003A031991
:100CA000552E630887315327080063088D311725B7
:100CB00086317B082000E2007A08862E1030250657
:100CC0002404031D6B2E89314F2186317B082000BF
:100CD000E2007A08862E2403103003192506031D2E
:100CE000792E8931322186317B082000E2007A0892
:100CF000862E02302406103003192506031D882E87
:100D00008B31212386317808E2007708E1008A2EB2
:100D1000B901B90A39080319912E02308931BA2173
:100D200008006208D6006108D500893191210800C9
:100D3000200018180800BC0A0B3020003C02031CDD
:100D4000A62EBC012030EC004E30ED003C080A3EDF
:100D5000840088300318013E85000008F400740800
:100D6000BB000A303C06031DBB2EED1B08006C09BE
:100D7000F4006D09CE2E3C35A03E86008701403F31
:100D8000F700413FF8007708EC027808ED3B770860
:100D90007804031908007709F4007809F500F40ACB
:100DA0000319F50A740896007508970011102100C0
:100DB000111420003C08FF3E840087300318013ED8
:100DC00085000008F4007408F6008B1305303C021F
:100DD0000318EF2E7608F40074088D04F32E7608BD
:100DE000F40074088C0418148B1708008B12F4019B
:100DF0007C088C312A248631FF30F80078082000E6
:100E0000C4002A3024004F02031C492F2000C001D7
:100E10000230F8007808C100BF01FA01F90103109F
:100E20002000C00D4108C10A203E86000230870024
:100E30006F3001020318C00A0130F8007808F90782
:100E400008307902031C102F04307A020318352F62
:100E500020004008F8007808BF074008F8007A082A
:100E6000463E86008701780881000130F800780846
:100E7000FA0705307A02031C0E2F20003F084006B7
:100E8000031D492FC401C40A6330F8007808C50067
:100E9000080020004308031D442FC30A2000AC01B2
:100EA000AD01C5010800DA00DD015A08D43E860014
:100EB00087010108D7005708DC0008305C02031CDA
:100EC000712F10305C020318672F04306E2F4030F2
:100ED0005C06031D6D2FDD01712F0630D70057080A
:100EE000DD005D08031D782F02308931BA2108002A
:100EF00089310C21873120005D08D7005708210077
:100F0000B6008B132000DB015D085B020318A82FDD
:100F10000630D7005708F4005A0889316F2187310D
:100F2000A03E5B07D8005808860001308700010802
:100F3000D9005908DC005C08D7005B08B73E860082
:100F40008701570881000130D7005708DB07842F3D
:100F50008B175D08033E8C31842408007C08FF3E1B
:100F6000840087300318013E85000008F4007408EF
:100F7000F6007609F4007408F500C40100302D0273
:100F8000153003192C02031C08006230F4007408A9
:100F9000C5008B137508F4007408270096057608C1
:100FA000F400740895048B177608F4007408200088
:100FB000F0002400CF018B15200095010B118B163A
:100FC0008B1395017608F400740821008D048B17AB
:100FD00000000000000000000800003025020A3078
:100FE000031924020318FB2F24088A31A622873113
:100FF00089315F21080002308931BA2108000834A4
:10100000023410344034803401340234043408345F
:1010100010340034F734FD34EF34BF347F34FE3401
:10102000FD34FB34F734EF34FF3409340B34083427
:0E103000053406340034013402340334043431
:1011A6008B13B501B4018B1708006400800101316F
:1011B600890BD92800347C088A3134222000C501E5
:1011C600C50A0800350834060319EB280130080063
:1011D60000300800F400053028009E0074089D00C9
:1011E6009C01200093110800F400073028009E009F
:1011F60074089D009C012000931108008B120B11AE
:10120600FF30CA00FF30CB003D1E08008931402167
:10121600080021005E08F4007408B40020003108BC
:10122600F40074082100B50008007C088A313422D5
:101236008931F4017C088E319B2689313F30883113
:10124600F7200800F4007408D43E860087010108E0
:10125600B83903193029013008000030080022008F
:1012660097161712FC3021009E051D308D314C2536
:101276007508FB007408FA0008008B12F4017C085C
:101286008C312A2489316330F80078082000C500A3
:101296007C088A311822080022001708FC39023817
:1012A6009700FC3021009E051F308D314C257508B6
:1012B600FB007408FA0008002000F30089310C21B5
:1012C600893101302100B600200073082100B700E3
:1012D60004308C3184240800F700F601771C772946
:1012E6007408F5007508F6070310F40D0310F70CE3
:1012F6007708031D712976080800FB007B08D43E99
:101306008600870106300106031D08007908FA00E9
:101316007A08F4007B088E319B2608002000D50051
:1013260089310C21893102302100B600200056088F
:101336002100B700200055082100B80005308C3187
:1013460084240800F700A8292000640023009518CB
:10135600A7297708F400F501740891007508920032
:101366003F30F6007608950515141308080020008E
:10137600D60089310C218931200031088038D5000A
:1013860055082100B50020005608D5005508210053
:10139600B60003308C318424080089310C21893150
:1013A600200025082100B600200024082100B700EF
:1013B600200023082100B800200022082100B900DF
:1013C60006308C3184240800623045060319080073
:1013D60032304506031DF2298631F62608006330B1
:1013E6004506031908004503031DFC298731AE276E
:1013F60008008D31822508008831E5208931003AC0
:101406000319FF293408203E8600013087000108B1
:10141600F4007408F5000130F4007408B4072030B5
:1014260034020318B40175080800F5007508FF3E7C
:10143600840087300318013E85000008F400740814
:10144600F6000530750203182E2A7608F400740893
:1014560021008D0408007608F400740821008C042D
:101466000800F50075080A3E840088300318013E1E
:1014760085000008F4007408F600053075020318AC
:101486004A2A7608F400740821008D0508007608BB
:10149600F400740821008C050800003025020A308B
:1014A600031924020318682A2208230403195D2A53
:1014B60001305E2A0030D7005708F9002408893128
:1014C60080218A318931D021080002308931BA2140
:1014D60008007C088A3118228A31B4308831ED2020
:1014E6008A31931D742A7C088A31E1228A31F800F8
:1014F600780CEB100318EB142000EB1C842A003048
:10150600080033308831F72001300800D430F80065
:101516007808F900FA017908860087010108F800C1
:101526007808F4007A088B3101238A310130F800FB
:101536007808F9070130F8007808FA070B307A02C4
:10154600031808008E2AF600053076020318AD2A25
:101556000D08AE2A0C08F4007408F5007608FF3E64
:10156600840087300318013E85000008F4007408E3
:10157600F50575080319C12A013008000030080076
:101586002308D7002208D600D80156080139D5000D
:101596005508F9005808893180218A310130D7363B
:1015A600D60C890BD22A0130D5005508D8070A3047
:1015B6005802031CC82A8931D0210800F600760893
:1015C600FF3E840087300318013E85000008F400C2
:1015D6007408F700053076020318F42A20000D0877
:1015E600F62A20000C087705F4007408F500750843
:1015F600031DFF2A0030080001300800F700230011
:101606009518022B7708F500F60175089100760803
:101616009200740893003F30F50075089505031095
:101626008B1B03148B13151555309600AA309600A4
:1016360095141511031C08008B170800D001D10161
:10164600D2010130D035D10D890B252B5208093C2A
:101656008A31A6228B31F900FA017908D0047A087A
:10166600D1040130F9007908D2070A305202031C6E
:10167600242B5108F8005008F7000800F5007508FB
:10168600F4007408B3073708013EF4007408F60046
:10169600203076020318F6017608360603194F2B1A
:1016A6007508F4003708403E86000130870074084C
:1016B60081007608F4007408B700210011160800AE
:1016C600F600053076020318852B74080319782B6B
:1016D6007608FF3E840087300318013E8500000827
:1016E600F500750824008D04080076080A3E84007B
:1016F60088300318013E85000008F50075082400AF
:101706008D050800B901B90A08004508031D8E2B8E
:101716008C31E42408004503031D08006A1E0800F6
:10172600C6012908F4007408C7002808F4007408E4
:10173600C8004208F4007408C900A801A901C20142
:101746006330F4007408C500C401C40A9E13210066
:1017560095128B1208002000C3010130F4007408B2
:10176600FC070A307C020318FC017C08D43E860084
:1017760087010108F4007408BD00C501C401AC016D
:10178600AD018B126B10BD196B14F5017508463E41
:101796008600870181010130F4007408F5070630E0
:1017A600750203180800C92BF9017908D43E860092
:1017B6008701103001060319E82B7908D43E86000C
:1017C600870111300106031DED2BF40179088C31D8
:1017D6002A248B312000C50121005408F80078081E
:1017E6002000BD00FC01F0010130F8007808F9077F
:1017F6000A30790203180800D82BF600F80174089D
:101806000319282C76088600870101087806F5005A
:101816007508F8000130F5007508F6070830F50080
:101826007508F700781C1A2C78368C3A1B2C7836FB
:10183600F5007508F8000130F7027708031D152C2E
:101846000130F4027408031D052C78080800F7001F
:101856008B13053077020318542C7408031D442C8F
:1018660077080A3E840088300318013E8500000888
:10187600F5007508F6007608F50075082700950549
:10188600542C7708FF3E840087300318013E8500FC
:101896000008F5007508F6007608F50075082700BB
:1018A60095048B170800F60076080A3E84008830F7
:1018B6000318013E85000008F4007408F70005309F
:1018C60076020318752C7708F40074088D057708DE
:1018D600F400740821008D057708F40074082300CD
:1018E6008D0508007708F40074088C057708F40065
:1018F600740821008C057708F400740823008C0511
:1019060008002000D1003008031908005108D00053
:101916005008F400B4308F3114278C317508D30089
:101926007408D2006A150D14D40151085402031824
:10193600AA2C5408B43E8600870101088B31412346
:101946008C3101302000D0005008D407982C520862
:101956008B3141238C31200053088B314123080001
:10196600F7007708FF3E840087300318013E8500A4
:101976000008F4007408F50077080A3E84008830F1
:101986000318013E85000008F4007408F6000530CF
:1019960077020318D92C7508F400740821008D0409
:1019A6007608F400740823008D0508007508F40015
:1019B600740821008C047608F400740823008C0552
:1019C6000800C401C40AC501C50A7C08153E840086
:1019D60088300318013E850000089F009E138B1275
:1019E600A801A9019501EA11EA126A1208303D061A
:1019F600031DFF2C81300C2D09303D06031D052DDE
:101A060085300C2D0A303D06031D0B2D89300C2D1B
:101A16008D309E0020302100950095168B122000F7
:101A26006B14EA156A120800D300B9015308D43EB4
:101A3600860087010108D0005008D2000430520207
:101A46000318392D53088E31D6268D3120005308C0
:101A5600153E840088300318013E850000088D314C
:101A66004C257508FB007408FA000800073052027E
:101A76000318472D53088A31E122D000D1015008BE
:101A8600FA005108FB000800FF30FA00FF30FB00A7
:101A96000800F700210011132000111321001D1466
:101AA6001D147708F600F60DF60D1D087606833927
:101AB60076069D000B30F6006230890B602DF60B22
:101AC600602D003221009D149D18672D0B30F60005
:101AD6006230890B6C2DF60B6C2D003221009D14A3
:101AE6009D18732D1C08F6007608F9001B08F600F1
:101AF6007608F8007908F5007808F4000800033045
:101B06002D02E93003192C02031C0800AC01AD01BB
:101B16007C080A3E840088300318013E85000008D0
:101B2600F4007408F5008B137508F4007408270098
:101B360095057508F400740896057508F400740890
:101B460021008D057508F400740820008D058B179B
:101B5600C501C50A2830F4007408C100C001BE01E1
:101B6600023021009500200095010800D000D20126
:101B7600D20A0830F9007908D1008B137C088A3123
:101B860034228D31F4017C088E319B268D3150082C
:101B960052050319D22D000000008B17D92D8B1783
:101BA60078308831ED208D31931DD72D7C088A3110
:101BB60018228D312000500852050319E82D78307F
:101BC6008831ED208D31931DE62D0310D20D0130A5
:101BD600D102510803190800C02DD001D00AD10145
:101BE6000830F9007908D2007C088A3134228D3118
:101BF600F4017C088E319B268D318B13000000008A
:101C0600000000007C088A3118228D310000000097
:101C1600000000007C088A31E1228D31003A031968
:101C2600182E5008F9007908D1048B1778308831BE
:101C3600ED208D31931D1D2E0310D00D0130D202E3
:101C46005208031DF72D5108080030080319312EDC
:101C560021005E0820003006031D0800A030003277
:101C6600890B322E20003103031D3C2E8731ED27D0
:101C76000800023031060319392E03303106031DE0
:101C8600472E8F315327080004303106031D4E2E90
:101C960086313326080005303106031D552E8A315C
:101CA6005022080006303106031D5C2E83319C232A
:101CB600080001308931BA21080086008701160024
:101CC600B0001600B1001600A5001600A40016000C
:101CD600A3001600A2001600A0001600A100063000
:101CE6002000D0005008F400DF308F3114278E31E9
:101CF6007508D3007408D20021085306031D852EEB
:101D0600200852060319892ED401992E21005E0857
:101D160020003006031D922ED401D40A992E3008D5
:101D260003198F2E0230D0005008D4005408080042
:101D3600F8007808FF3E840087300318013E8500CE
:101D46000008F5007508F60078080A3E8400883019
:101D56000318013E85000008F5007508F7008B138F
:101D6600053078020318C62E7408031DC02E7708A6
:101D7600F500750820008D05D42E7608F500750847
:101D860020008D04D42E7408031DCF2E7708F5008D
:101D9600750820008C05D42E7608F50075082000FD
:101DA6008C048B170800F6007608D43E860087015F
:101DB6000108F4007408F5007608FF3E84008730B9
:101DC6000318013E85000008F4007408F70005308A
:101DD60076020318F92E7708F400740821008D04A2
:101DE6007708F400740823008D04032F7708F400A5
:101DF600740821008C047708F400740823008C040E
:101E0600220017087506FC39750697007508031D2C
:101E1600102FFC3021009E050800033021009E048F
:101E26000800F800FF30FA00FF30FB0074080319C1
:101E36004E2F7808860087017A080106FA007B088B
:101E4600FB000130F6007608F8070830F600760841
:101E5600F9007A1C3A2F7B08F7007A08F600F73665
:101E6600F60C01307606FA00A0307706432F7B0881
:101E7600F7007A08F600F736F60C7608FA007708C7
:101E8600FB000130F9027908031D2C2F0130F40202
:101E96007408031D1C2F7B08F5007A08F40008005F
:101EA600D90101302502003003192402031C682FD2
:101EB600013025020B30031924020318682F240869
:101EC600D43E860087010108702FA0302406250421
:101ED600031D762F21005E082000D700D801570881
:101EE600DA005808962FFA3024062504031D7F2FA2
:101EF6000630DA000130962FFB3024062504031D38
:101F0600882F3A30DA006530962F003025020A30E5
:101F1600031924020318982F2435A03E8600870152
:101F2600403FDA00413FDB009A2FD901D90A590810
:101F36000319A12F02308931BA2108005B08D600A7
:101F46005A08D500893191210800FB007508F70071
:101F56007408F600F736F60CF736F60C7608F80035
:101F66007808F90074080339F6007608FA00FA0EC4
:101F7600F030FA050C30F6007608FA047B08D43EF9
:101F860086008701073001060319CB2F00300800B1
:101F96007B08031DD32F21008D117A082500E42F1D
:101FA60003307B06031DDC2F21000D137A08250064
:101FB600F02F08307B06031DE82F21008C117A08CC
:101FC6002600930079089100F62F09307B06031D41
:101FD600F42F21000C127A0826009A00790898003E
:101FE600F62FB901C92F7B35A03E860087017408FC
:0A1FF600C03F7508C13F013008002C
:020000040001F9
:04000E00FC2FFF3E86
:10E0000006000600060006000600060006000600E0
:10E01000040004007F00FF00FF00FF00FF00FF007E
:00000001FF
