:100000008131502980343E347E1480312100111C0E
:100010001B282000111C1B28111005303C0203185E
:1000200016283B08F30073088D051A283B08F300D7
:1000300073088C0518108B190B1CBA2820001508A2
:10004000F3007308C200270016082000700503198A
:1000500041284208F30024004F08203E8600023069
:100060008700730881000130F3007308CF072E303A
:100070004F0203183F280130F3007308CF07200018
:100080009501270016081505F30073082000AE003F
:10009000AE1D5E28270096112000F11D5E2823006A
:1000A000E00AF21D5A28F2116608A4006708A500AC
:1000B000E601E701E70A0319E60A20002000AE1C6A
:1000C0007528270096102000711E75282300E10A6C
:1000D000721E712872126808AA006908AB00E80154
:1000E000E901E90A0319E80A200020002E1E8C28E5
:1000F000270016122000F11E8C282300E20AF21EAF
:100100008828F2126A08B0006B08B100EA01EB011E
:10011000EB0A0319EA0A200020002E1FA32827005B
:1001200016132000711FA3282300E30A721F9F28C3
:1001300072136C08B6006D08B700EC01ED01ED0A12
:100140000319EC0A20002000AE1FBA2827009613DE
:100150002000F11FBA282300E40AF21FB628F21388
:100160006E08BC006F08BD00EE01EF01EF0A031935
:10017000EE0A20002100111CCF282000111CCF28DE
:10018000111005303C020318CA283B08F30073081D
:100190008D05CE283B08F30073088C05181020004D
:1001A000911C07299110EA1FDD286A177108F300D6
:1001B0007308F20020002000EA130130AC07003081
:1001C000AD3D0130A6020030A73B26082704031DE1
:1001D00007296430A6000030A700EA1EF72815089A
:1001E000C20020009E138B12EA126A16FE28EA1D36
:1001F000FE28EA1195010B118B16EA16B8032000B0
:100200003808031D07290A30B8002000EA1721002A
:10021000111E28292000111E282937083606031927
:1002200022293608403E860001308700010823005D
:100230009A002000B60A203020003602031C28292C
:10024000B601282936083706031D28292100111276
:100250008B1A0B1D38290B1120006B1C3429200030
:10026000A80A031DA90A38298B1232302000C500C4
:100270002100911E4E292000911E4E292000350894
:10028000B50A203E8600013087002300190881004E
:1002900020002030200035060319B5017E1009002A
:1002A00081315229803102208131EC0080310320DC
:1002B0008131ED00FC01EA01EB01203084000030C7
:1002C000850030308831CF208131A030840000306B
:1002D000850049308831CF208131203084000130C1
:1002E000850040308831CF207E1020008131782970
:1002F000F030210099000230950023008C018D011F
:10030000203020008C003F3024008C008B011D30F9
:100310002100970020006A106400D4302000E4001F
:100320006408E600E801680889319D2181312000D8
:10033000E400660886008701640881000130E4005B
:100340006408E6070130E4006408E8070B3068023F
:10035000031C93293F3021008C00DE308D002000EB
:100360000D10803022009D0001309E00823023005D
:100370009E009D011E159F151E128A309B009C0138
:100380009E169D171D1621001112200091121112A8
:1003900023001F121F102000B701B601B501B401E0
:1003A0008B170B17210091162700940195019601D8
:1003B0008B152000F001F1016A1107309C007D309F
:1003C0009B009A0191106430A6000030A7000A300B
:1003D000E4006408B800210091140B178B17E33078
:1003E0009E0001309D0023008C018D01210011131E
:1003F00020001113C230220097002000E901EA1406
:1004000069088231B622813101302000E40064089D
:10041000E9070A306902031CFF29EA1007302800A7
:100420009700553025009E00FF302800960095016A
:1004300021009310200093108831CA208131AF0130
:10044000CB302000E500EC30E4008430890B262A14
:10045000E40B262AE50B262A00008B31CF238131BD
:10046000E9016935A03E860087010030C03FC13FE9
:100470000130E4006408E9070A306902031C312AEC
:100480000A30E4006408BC00303098009913111061
:10049000210011102000181020006A1C64002000A8
:1004A0006A1D0D106A1D642A2100111AAC2A07303A
:1004B0002000E4003A30890B5B2AE40B5B2A000041
:1004C00020000D106A11AC2A8831DC208131003AFD
:1004D0000319AC2A8931F7218131E4002F08DF3E6E
:1004E00086008701640881000130E4006408AF07DA
:1004F00008302F02031CAC2A0830E4006408AF0067
:10050000DF308E3160268131E4006408E700670344
:10051000031D902A8E31282681312000AF01AC2A9C
:100520000230670603198D2AE901E90A6908DF3EEE
:10053000860087010108E4006908DE3E8600870125
:10054000640881000130E4006408E90708306902AA
:10055000031C962A0130AF02843178248131863120
:100560009A2681318531C52581314C2AD200520825
:10057000D43E860087010108D0005008D1008B319D
:10058000CF2382310630D0005008F4005208893160
:1005900066218231A03E8600013087000030C03FD6
:1005A0000030C13FC23FC33F0630D0005008F400C6
:1005B0005208893166218231A43E860001308700CD
:1005C0000030C03FC13F053052020318F22A5208E2
:1005D0000B3E840088300318013E85000008D000DF
:1005E0005008F1055208031DF72A25009301033036
:1005F00020005206031DFE2A25009A010830200023
:100600005206031D052B26009301093020005206D7
:10061000031D0C2B26009A010530200052020318FE
:100620001D2BF401F40A52088B315B238231F40153
:10063000200052088C312224823120005235A03E05
:10064000860087010030C03FC13F043051020318CB
:10065000372B053052020318322BF40152088B312C
:100660005B238231200052088E31D6260800511BB0
:100670003D2B06305106031D412B52088C314E2470
:10068000080007305106031D4C2B0030F400F50024
:1006900052088F31A8270800D11F762B5118552BEF
:1006A000F40152088B315B238231200052088C31D7
:1006B0007C248231F401F40A200052088C31222477
:1006C0008231200052080319F115520303197116E3
:1006D000023052060319F11603305206031971173E
:1006E00004305206031D0800F1170800D1197C2BB5
:1006F00004305106031D932BD11D852B053052026A
:10070000031C852BB901B90A0800053052020318F1
:100710008E2BF40152088B315B238231200052086A
:100720008C317C240800511E9A2B05305202031C88
:100730000800822B52088C317C24080002302406E9
:10074000103003192506031DA82B8A31BB2208008F
:10075000240A031DBD2B2503031DBD2B7830220663
:10076000563003192306031DB82B2000EA14BA2BB8
:100770002000EA108931C821080055302406AA302B
:1007800003192506031DD42B343022061230031919
:100790002306031DD02B6A14113021009700BA2BB9
:1007A00002308931B22108000130250200300319DE
:1007B0002402031C1A2C013025020A3003192402DA
:1007C00003181A2CEA1CBA2B2408D9005908DB009C
:1007D000B9015B08D43E860087010108D900590899
:1007E000DA002208D9005B08D43E86008701590848
:1007F00081005B088231B622833120003908031959
:10080000122C5A08D9005B08D43E8600870159088B
:1008100081005B088231B622833102308931B221F6
:100820008331172C8931C82183318A3181222000FC
:10083000EA140800003025020A30031924020318C4
:10084000642C2408D43E860087010108D900590889
:10085000DA002308F5002208F40024088F31A827C5
:100860008331003A031DBA2B803020005A06031949
:100870003D2C81305A06031D542C22082304031DED
:10088000BA2B0630D9005908F400240889316621B2
:100890008331A03E8600013087000030C03F003029
:1008A000C13FC23FC33FBA2B40305A06031D612CE3
:1008B0002435A03E860087012208C03F2308C13F9F
:1008C000BA2B8A3148220800A03024062504031DD3
:1008D000742CEA1CBA2B2208D90059082100DE002A
:1008E0008A3181228331BA2B02308931B22108004A
:1008F000633020004506031D162D4408031D832C7C
:100900008831F820843106302000D5005508F400E5
:100910007C08893166218431A03ED6005608FB0050
:10092000440A031D9C2C7B08860001308700FF30A1
:10093000C03FFF30C13FA92C7B08860001308700F3
:1009400081014408D5007B0A8600013087005508E4
:10095000810010303D06031DCC2C4608D5007B08D5
:10096000033E860001308700550881004808D50005
:100970007B08053E860001308700550881007B0812
:10098000023E86000130870081017B08043E86001C
:10099000013087008101E22C11303D06031DE22C5D
:1009A0007B08023E8600013087004608C03F4708AA
:1009B000C13F7B08043E8600013087004808C03FE5
:1009C0004908C13FBD1E052D4708D5007B08023EE2
:1009D000860001308700550881004608D5007B0855
:1009E000033E860001308700550881007B08043EE5
:1009F00086000130870081014A08D5007B08053E4A
:100A000086000130870055088100BD1D132D7B082D
:100A10008600013087004608C03F4708C13F4808AC
:100A2000C23F4908C33F8B31A62308003D1E1B2D42
:100A30008931DF210800BD1E202D853125250800C4
:100A4000BD1D132D8B3180230800932D8831D520B7
:100A500008000930FA007A08C50089310F21853174
:100A6000C22D931D0800C22D8A3164228531003ABF
:100A7000031DC22DFF30FA007A08C4006330FA006B
:100A80007A08C5000800CC308D3182258531C22D11
:100A900044308D31822585315830AA000230AB00B8
:100AA000FA308831EE208531C22D931D08000130C7
:100AB000AA020030AB3B2A082B040319C22DFA30DE
:100AC0008831EE200800BE308D3182258531BE018F
:100AD000C22D8D31F0258531FA003E08463E860054
:100AE00087017A088100BE0A093020003E02031CFB
:100AF00008006330FA007A08C5000830FA007A0866
:100B0000F40046308B31F82385314E0603198A2DC7
:100B100002308B2D0130D3000030D4005308FA008E
:100B20007A08C40008004508003A0319262D013A46
:100B30000319292D0B3A0319312D013A0319342DCC
:100B4000073A0319312D013A0319432D033A0319CA
:100B5000482D013A0319552D1F3A03192D2D013A3D
:100B60000319312D033A0319342D013A0319312D9C
:100B7000073A0319432D013A0319632D033A031968
:100B8000692DC22D2000C50A08008B13F21DD02D3F
:100B9000F21123006608A4006708A600E601E70139
:100BA0008B178B132000721EDD2D72122300680834
:100BB000AA006908AB00E801E9018B178B1320003C
:100BC000F21EEA2DF21223006A08B0006B08B10091
:100BD000EA01EB018B178B132000721FF72D7213A4
:100BE00023006C08B6006D08B700EC01ED018B1313
:100BF0008B172000F21F042EF21323006E08BC0096
:100C00006F08BD00EE01EF018B1723008B13600806
:100C1000E0018B17A3070030A23DA13DA03D8B133F
:100C20006108E1018B17A9070030A83DA73DA63D4B
:100C30008B136208E2018B17AF070030AE3DAD3D6C
:100C4000AC3D8B136308E3018B17B5070030B43D4F
:100C5000B33DB23D8B136408E4018B17BB07003032
:100C6000BA3DB93DB83D20000800E101E201B901FB
:100C700000302502A030031924020318602E250835
:100C8000DF002408DE000430DF36DE0C890B442E42
:100C90005E08E0006008E300630889311C218631AA
:100CA000003A0319572E6308873155270800630857
:100CB0008C31E02486317B082000E2007A08882EFF
:100CC000103025062404031D6D2E893146218631FE
:100CD0007B082000E2007A08882E240310300319D4
:100CE0002506031D7B2E8931292186317B082000B2
:100CF000E2007A08882E02302406103003192506F7
:100D0000031D8A2E8B31192386317808E20077087B
:100D1000E1008C2EB901B90A39080319932E02306B
:100D20008931B22108006208D6006108D5008931F6
:100D300089210800200018180800BC0A0B30200088
:100D40003C02031CA82EBC012030EC004E30ED000C
:100D50003C080B3E840088300318013E85000008E3
:100D6000F4007408BB000A303C06031DBD2EED1BC9
:100D700008006C09F4006D09D02E3C35A03E8600B9
:100D80008701403FF700413FF8007708EC02780800
:100D9000ED3B77087804031908007709F400780917
:100DA000F500F40A0319F50A74089600750897000F
:100DB00011102100111420003C08003E84008830EE
:100DC0000318013E85000008F4007408F6008B1338
:100DD00005303C020318F12E7608F40074088D04E7
:100DE000F52E7608F40074088C0418148B1708008C
:100DF0008B12F4017C088C3122248631FF30F800FC
:100E000078082000C4002A3024004F02031C4B2F16
:100E10002000C0010230F8007808C100BF01FA01CB
:100E2000F90103102000C00D4108C10A203E8600D0
:100E3000023087006F3001020318C00A0130F80049
:100E40007808F90708307902031C122F04307A025F
:100E50000318372F20004008F8007808BF07400823
:100E6000F8007A08463E8600870178088100013044
:100E7000F8007808FA0705307A02031C102F2000CA
:100E80003F084006031D4B2FC401C40A6330F8001D
:100E90007808C500080020004308031D462FC30A38
:100EA0002000AC01AD01C5010800DA00DD015A08DF
:100EB000D43E860087010108D7005708DC000830BF
:100EC0005C02031C732F10305C020318692F04307E
:100ED000702F40305C06031D6F2FDD01732F06302D
:100EE000D7005708DD005D08031D7A2F02308931D5
:100EF000B221080089310321873120005D08D70025
:100F000057082100B6008B132000DB015D085B024F
:100F10000318AA2F0630D7005708F4005A08893161
:100F200066218731A03E5B07D80058088600013053
:100F300087000108D9005908DC005C08D7005B086D
:100F4000B73E86008701570881000130D700570857
:100F5000DB07862F8B175D08033E8D31B92508000E
:100F60007C08003E840088300318013E850000089C
:100F7000F4007408F6007609F4007408F500C40162
:100F800000302D02153003192C02031C08006230BA
:100F9000F4007408C5008B137508F400740827006A
:100FA00096057608F400740895048B177608F4000B
:100FB00074082000F0002400CF018B15200095015B
:100FC0000B118B168B1395017608F4007408210021
:100FD0008D048B1700000000000000000800FB00DB
:100FE0007B08D43E8600870106300106031D0800F9
:100FF0007908FA007A08F4007B088E319B260800F5
:10100000083402341034403480340134023404345F
:10101000083410340034F734FD34EF34BF347F34F7
:10102000FE34FD34FB34F734EF34FF3409340B3431
:1010300008340534063400340134023403340434F3
:101194008B13B501B4018B17080064008001013181
:1011A400890BD02800347C088A312C222000C50108
:1011B400C50A0800350834060319E228013008007E
:1011C40000300800F400053028009E0074089D00DB
:1011D4009C01200093110800F400073028009E00B1
:1011E40074089D009C012000931108008B120B11C0
:1011F400FF30CA00FF30CB003D1E08008931372183
:10120400080021005E08F4007408B40020003108CE
:10121400F40074082100B50008007C088A312C22EF
:101224008931F4017C088E319B2689313F30883125
:10123400EE200800F4007408D43E860087010108FB
:10124400B8390319272901300800003008002200AA
:1012540097161712FC3021009E051D308D3115257F
:101264007508FB007408FA0008008B12F4017C086E
:101274008C31222489316330F80078082000C500BD
:101284007C088A311022080022001708FC39023831
:101294009700FC3021009E051F308D3115257508FF
:1012A400FB007408FA0008002000F30089310321D0
:1012B400893101302100B600200073082100B700F5
:1012C40004308D31B9250800F700F601771C6E292A
:1012D4007408F5007508F6070310F40D0310F70CF5
:1012E4007708031D682976080800003025020A30B3
:1012F400031924020318852924088A319E2289317E
:1013040089315621080002308931B22108002000B9
:10131400D50089310321893102302100B600200033
:1013240056082100B700200055082100B8000530F8
:101334008D31B9250800F700A0292000640023009E
:1013440095189F297708F400F50174089100750831
:1013540092003F30F600760895051514130808002E
:101364002000D600893103218931200031088038DA
:10137400D50055082100B50020005608D5005508B1
:101384002100B60003308D31B925080089310321CD
:101394008931200025082100B600200024082100FE
:1013A400B700200023082100B800200022082100F3
:1013B400B90006308D31B92508006230450603199D
:1013C400080032304506031DEA298631F826080054
:1013D40063304506031908004503031DF4298731CA
:1013E400B02708008D314B2508008831DC20893175
:1013F400003A0319F7293408203E8600013087009B
:101404000108F4007408F5000130F4007408B4070E
:10141400203034020318B40175080800F50075087B
:10142400003E840088300318013E85000008F40063
:101434007408F600053075020318262A7608F400AD
:10144400740821008D0408007608F4007408210053
:101454008C040800F50075080B3E840088300318DE
:10146400013E85000008F4007408F600053075029A
:101474000318422A7608F400740821008D05080038
:101484007608F400740821008C0508000030250259
:101494000A30031924020318602A220823040319BA
:1014A400552A0130562A0030D7005708F90024087D
:1014B4008731EF278A318931C82108000230893108
:1014C400B22108007C088A3110228A31B430883174
:1014D400E4208A31931D6C2A7C088A31D9228A310E
:1014E400F800780CEB100318EB142000EB1C7C2A9A
:1014F4000030080033308831EE2001300800D43049
:10150400F8007808F900FA017908860087010108D3
:10151400F8007808F4007A088A31F9228A31013017
:10152400F8007808F9070130F8007808FA070B305A
:101534007A0203180800862AF6000530760203189A
:10154400A52A0D08A62A0C08F4007408F5007608EC
:10155400003E840088300318013E85000008F40032
:101564007408F50575080319B92A0130080000301C
:1015740008002308D7002208D600D80156080139EC
:10158400D5005508F90058088731EF278A31013012
:10159400D736D60C890BCA2A0130D5005508D8078E
:1015A4000A305802031CC02A8931C8210800F600F9
:1015B4007608003E840088300318013E8500000848
:1015C400F4007408F700053076020318EC2A2000B2
:1015D4000D08EE2A20000C087705F4007408F500C5
:1015E4007508031DF72A0030080001300800F700D1
:1015F40023009518FA2A7708F500F601750891007A
:1016040076089200740893003F30F500750895053C
:1016140003108B1B03148B13151555309600AA3039
:10162400960095141511031C08008B170800D001AF
:10163400D101D2010130D035D10D890B1D2B5208B7
:10164400093C8A319E228B31F900FA017908D004D1
:101654007A08D1040130F9007908D2070A3052021D
:10166400031C1C2B5108F8005008F7000800F50073
:101674007508F4007408B3073708013EF4007408D1
:10168400F600203076020318F601760836060319B0
:10169400472B7508F4003708403E86000130870068
:1016A400740881007608F4007408B700210011164C
:1016B4000800F6000530760203187D2B7408031920
:1016C400702B7608003E840088300318013E8500A4
:1016D4000008F500750824008D04080076080B3E08
:1016E400840088300318013E85000008F500750861
:1016F40024008D050800B901B90A08004508031D36
:10170400862B8C31AD2408004503031D08006A1E96
:101714000800C6012908F4007408C7002808F4006A
:101724007408C8004208F4007408C900A801A9019B
:10173400C2016330F4007408C500C401C40A9E13D6
:10174400210095128B1208002000C3010130F4001F
:101754007408FC070A307C020318FC017C08D43EA0
:10176400860087010108F4007408BD00C501C401A6
:10177400AC01AD018B126B10BD196B14F50175082A
:10178400463E8600870181010130F4007408F507A4
:101794000630750203180800C12BF9017908D43EFC
:1017A40086008701103001060319E02B7908D43E26
:1017B4008600870111300106031DE52BF401790829
:1017C4008C3122248B312000C50121005408F800FB
:1017D40078082000BD00FC01F0010130F800780811
:1017E400F9070A30790203180800D02BF600F80133
:1017F40074080319202C76088600870101087806EE
:10180400F5007508F8000130F5007508F607083092
:10181400F5007508F700781C122C78368C3A132CD6
:101824007836F5007508F8000130F7027708031DD3
:101834000D2C0130F4027408031DFD2B78080800F8
:10184400F7008B130530770203184C2C7408031D22
:101854003C2C77080B3E840088300318013E850039
:101864000008F5007508F6007608F50075082700ED
:1018740095054C2C7708003E840088300318013EFF
:1018840085000008F5007508F6007608F50075086F
:10189400270095048B170800F60076080B3E840099
:1018A40088300318013E85000008F4007408F7002E
:1018B4000530760203186D2C7708F40074088D0542
:1018C4007708F400740821008D057708F400740883
:1018D40023008D0508007708F40074088C05770848
:1018E400F400740821008C057708F40074082300C0
:1018F4008C050800F7007708003E84008830031840
:10190400013E85000008F4007408F50077080B3EDA
:10191400840088300318013E85000008F400740830
:10192400F600053077020318A22C7508F400740839
:1019340021008D047608F400740823008D05080046
:101944007508F400740821008C047608F400740807
:1019540023008C050800C401C40AC501C50A7C081B
:10196400163E840088300318013E850000089F005D
:101974009E138B12A801A9019501EA11EA126A12B9
:1019840008303D06031DC82C8130D52C09303D0696
:10199400031DCE2C8530D52C0A303D06031DD42CD6
:1019A4008930D52C8D309E0020302100950095166D
:1019B4008B1220006B14EA156A120800D300B901D7
:1019C4005308D43E860087010108D0005008D20095
:1019D400043052020318022D53088E31D6268C315E
:1019E40020005308163E840088300318013E850009
:1019F40000088D3115257508FB007408FA000800ED
:101A0400073052020318102D53088A31D922D0000E
:101A1400D1015008FA005108FB000800FF30FA0019
:101A2400FF30FB000800F700210011132000111300
:101A340021001D141D147708F600F60DF60D1D087F
:101A44007606833976069D000B30F6006230890BEA
:101A5400292DF60B292D003221009D149D18302DBF
:101A64000B30F6006230890B352DF60B352D003224
:101A740021009D149D183C2D1C08F6007608F900E1
:101A84001B08F6007608F8007908F5007808F400D9
:101A9400080003302D02E93003192C02031C08004E
:101AA400AC01AD017C080B3E840088300318013E74
:101AB40085000008F4007408F5008B137508F40021
:101AC4007408270095057508F400740896057508D0
:101AD400F400740821008D057508F40074082000D2
:101AE4008D058B17C501C50A2830F4007408C100A0
:101AF400C001BE01023021009500200095010800BC
:101B0400D000D201D20A0830F9007908D1008B1331
:101B14007C088A312C228D31F4017C088E319B267D
:101B24008D315008520503199B2D000000008B17BE
:101B3400A22D8B1778308831E4208D31931DA02D90
:101B44007C088A3110228D31200050085205031977
:101B5400B12D78308831E4208D31931DAF2D0310E1
:101B6400D20D0130D102510803190800892D20003B
:101B7400D1003008031908005108D0005008F400BF
:101B8400B4308F3114278D317508D3007408D20016
:101B94006A150D14E43000320032890BCD2D003269
:101BA40000322000D401510854020318E72D5408D0
:101BB400B43E8600870101088B3139238D31013011
:101BC4002000D0005008D407D52D52088B3139237A
:101BD4008D31200053088B3139230800D001D00AFD
:101BE400D1010830F9007908D2007C088A312C220E
:101BF4008D31F4017C088E319B268D318B130000CE
:101C04000000000000007C088A3110228D310000A1
:101C14000000000000007C088A31D9228D31003A8E
:101C24000319182E5008F9007908D1048B1778305D
:101C34008831E4208D31931D1D2E0310D00D013009
:101C4400D2025208031DF72D510808003008031969
:101C5400312E21005E0820003006031D0800A0304C
:101C64000032890B322E20003103031D3C2E8931B2
:101C740077210800023031060319392E033031066A
:101C8400031D472E8F315327080004303106031DEE
:101C94004E2E86313526080005303106031D552E9B
:101CA4008A314822080006303106031D5C2E833138
:101CB4009E23080001308931B22108008600870183
:101CC4001600B0001600B1001600A5001600A4000E
:101CD4001600A3001600A2001600A0001600A10022
:101CE40006302000D0005008F400DF308F31142774
:101CF4008E317508D3007408D20021085306031DE1
:101D0400852E200852060319892ED401992E21000C
:101D14005E0820003006031D922ED401D40A992EA9
:101D2400300803198F2E0230D0005008D400540814
:101D34000800F8007808003E840088300318013E4B
:101D440085000008F5007508F60078080B3E84004D
:101D540088300318013E85000008F5007508F70077
:101D64008B13053078020318C62E7408031DC02E89
:101D74007708F500750820008D05D42E7608F50047
:101D8400750820008D04D42E7408031DCF2E770807
:101D9400F500750820008C05D42E7608F50075082A
:101DA40020008C048B170800F6007608D43E8600C9
:101DB40087010108F4007408F5007608003E8400E9
:101DC40088300318013E85000008F4007408F70009
:101DD400053076020318F92E7708F4007408210000
:101DE4008D047708F400740823008D04032F77080A
:101DF400F400740821008C047708F40074082300AC
:101E04008C04220017087506FC39750697007508BE
:101E1400031D102FFC3021009E0508000330210013
:101E24009E040800F800FF30FA00FF30FB0074083D
:101E340003194E2F7808860087017A080106FA00F4
:101E44007B08FB000130F6007608F8070830F6003E
:101E54007608F9007A1C3A2F7B08F7007A08F60016
:101E6400F736F60C01307606FA00A0307706432FD9
:101E74007B08F7007A08F600F736F60C7608FA00C5
:101E84007708FB000130F9027908031D2C2F01307B
:101E9400F4027408031D1C2F7B08F5007A08F40073
:101EA4000800D90101302502003003192402031C63
:101EB400682F013025020B30031924020318682F00
:101EC4002408D43E860087010108702FA030240620
:101ED4002504031D762F21005E082000D700D801B9
:101EE4005708DA005808962FFA3024062504031DF3
:101EF4007F2F0630DA000130962FFB3024062504AC
:101F0400031D882F3A30DA006530962F0030250201
:101F14000A30031924020318982F2435A03E8600A2
:101F24008701403FDA00413FDB009A2FD901D90AEB
:101F340059080319A12F02308931B22108005B0826
:101F4400D6005A08D500893189210800FB0075089C
:101F5400F7007408F600F736F60CF736F60C760838
:101F6400F8007808F90074080339F6007608FA00D6
:101F7400FA0EF030FA050C30F6007608FA047B0805
:101F8400D43E86008701073001060319CB2F0030A9
:101F940008007B08031DD32F21008D117A0825002A
:101FA400E42F03307B06031DDC2F21000D137A0878
:101FB4002500F02F08307B06031DE82F21008C112B
:101FC4007A082600930079089100F62F09307B06E1
:101FD400031DF42F21000C127A0826009A007908B8
:101FE4009800F62FB901C92F7B35A03E86008701E2
:0C1FF4007408C03F7508C13F01300800B0
:020000040001F9
:04000E00FC2FFF3E86
:10E0000006000600060006000600060006000600E0
:10E01000040004007F00FF00FF00FF00FF00FF007E
:00000001FF
