:100000008131502980343E347E1480312100111C0E
:100010001B282000111C1B28111005303C0203185E
:1000200016283B08F30073088D051A283B08F300D7
:1000300073088C0518108B190B1CBA2820001508A2
:10004000F3007308C200270016082000700503198A
:1000500041284208F30024004F08203E8600023069
:100060008700730881000130F3007308CF072E303A
:100070004F0203183F280130F3007308CF07200018
:100080009501270016081505F30073082000AE003F
:10009000AE1D5E28270096112000F11D5E2823006A
:1000A000E00AF21D5A28F2116608A4006708A500AC
:1000B000E601E701E70A0319E60A20002000AE1C6A
:1000C0007528270096102000711E75282300E10A6C
:1000D000721E712872126808AA006908AB00E80154
:1000E000E901E90A0319E80A200020002E1E8C28E5
:1000F000270016122000F11E8C282300E20AF21EAF
:100100008828F2126A08B0006B08B100EA01EB011E
:10011000EB0A0319EA0A200020002E1FA32827005B
:1001200016132000711FA3282300E30A721F9F28C3
:1001300072136C08B6006D08B700EC01ED01ED0A12
:100140000319EC0A20002000AE1FBA2827009613DE
:100150002000F11FBA282300E40AF21FB628F21388
:100160006E08BC006F08BD00EE01EF01EF0A031935
:10017000EE0A20002100111CCF282000111CCF28DE
:10018000111005303C020318CA283B08F30073081D
:100190008D05CE283B08F30073088C05181020004D
:1001A000911C07299110EB1FDD286B177108F300D4
:1001B0007308F20020002000EB130130AC07003080
:1001C000AD3D0130A6020030A73B26082704031DE1
:1001D00007296430A6000030A700EB1EF728150899
:1001E000C20020009E138B12EB126B16FE28EB1D33
:1001F000FE28EB1195010B118B16EB16B8032000AE
:100200003808031D07290A30B8002000EB17210029
:10021000111E28292000111E282937083606031927
:1002200022293608403E860001308700010823005D
:100230009A002000B60A203020003602031C28292C
:10024000B601282936083706031D28292100111276
:100250008B1A0B1D38290B1120006C1C342920002F
:10026000A80A031DA90A38298B1232302000C500C4
:100270002100911E4E292000911E4E292000350894
:10028000B50A203E8600013087002300190881004E
:1002900020002030200035060319B5017E1009002A
:1002A00081315229803102208131ED0080310320DB
:1002B0008131EE00FC01EB01EC01203084000030C4
:1002C000850030308831D2208131A0308400003068
:1002D000850049308831D2208131203084000130BE
:1002E000850040308831D2207E102000813178296D
:1002F000F030210099000230950023008C018D011F
:10030000203020008C003F3024008C008B011D30F9
:100310002100970020006B106400D4302000E5001D
:100320006508E700E90169088931A02181312000D1
:10033000E500670886008701650881000130E50057
:100340006508E7070130E5006508E9070B30690239
:10035000031C93293F3021008C00DE308D002000EB
:100360000D10803022009D0001309E00823023005D
:100370009E009D011E119F151E12CF309B009C01F7
:100380009E169D171D1621001112200091121112A8
:1003900023001F121F102000B701B601B501B401E0
:1003A0008B170B17210091162700940195019601D8
:1003B0008B152000F001F1016B1107309C007D309E
:1003C0009B009A0191106430A6000030A7000A300B
:1003D000E5006508B800210091140B178B17E33076
:1003E0009E0001309D0023008C018D01210011131E
:1003F00020001113C230220097002000EA01EB1404
:100400006A088231B622813101302000E50065089A
:10041000EA070A306A02031CFF29EB1007302800A4
:100420009700553025009E00FF302800960095016A
:1004300021009310200093108831CD208131AF012D
:10044000CB302000E600EC30E5008430890B262A12
:10045000E50B262AE60B262A00008B31D2238131B8
:10046000EA016A35A03E860087010030C03FC13FE7
:100470000130E5006508EA070A306A02031C312AE8
:100480000A30E5006508BC0030309800991311105F
:10049000210011102000181020006B1C64002000A7
:1004A0006B1D0D106B1D642A2100111AAC2A093036
:1004B0002000E5004E30890B5B2AE50B5B2A00002B
:1004C00020000D106B11AC2A8831DF208131003AF9
:1004D0000319AC2A8931FA218131E5002F08DF3E6A
:1004E00086008701650881000130E5006508AF07D7
:1004F00008302F02031CAC2A0830E5006508AF0065
:10050000DF308E3123268131E5006508E80068037D
:10051000031D902A8E31992681312000AF01AC2A2B
:100520000230680603198D2AEA01EA0A6A08DF3EEA
:10053000860087010108E5006A08DE3E8600870123
:10054000650881000130E5006508EA0708306A02A5
:10055000031C962A0130AF02843178248131863120
:100560009A2681318531C52581314C2AD200520825
:10057000D43E860087010108D0005008D1008B319D
:10058000D22382310630D0005008F400520889315D
:1005900069218231A03E8600013087000030C03FD3
:1005A0000030C13FC23FC33F0630D0005008F400C6
:1005B0005208893169218231A43E860001308700CA
:1005C0000030C03FC13F053052020318F22A5208E2
:1005D0000B3E840088300318013E85000008D000DF
:1005E0005008F1055208031DF72A25009301033036
:1005F00020005206031DFE2A25009A010830200023
:100600005206031D052B26009301093020005206D7
:10061000031D0C2B26009A010530200052020318FE
:100620001D2BF401F40A52088B315E238231F40150
:10063000200052088C312524823120005235A03E02
:10064000860087010030C03FC13F043051020318CB
:10065000372B053052020318322BF40152088B312C
:100660005E238231200052088E31D6260800511BAD
:100670003D2B06305106031D412B52088C3151246D
:10068000080007305106031D4C2B0030F400F50024
:1006900052088F31A8270800D11F762B5118552BEF
:1006A000F40152088B315E238231200052088C31D4
:1006B000AE248231F401F40A200052088C31252442
:1006C0008231200052080319F115520303197116E3
:1006D000023052060319F11603305206031971173E
:1006E00004305206031D0800F1170800D1197C2BB5
:1006F00004305106031D932BD11D852B053052026A
:10070000031C852BB901B90A0800053052020318F1
:100710008E2BF40152088B315E2382312000520867
:100720008C31AE240800511E9A2B05305202031C56
:100730000800822B52088C31AE24080002302406B7
:10074000103003192506031DA82B8A31BE2208008C
:10075000240A031DBD2B2503031DBD2B7830220663
:10076000563003192306031DB82B2000EB14BA2BB7
:100770002000EB108931CB21080055302406AA3027
:1007800003192506031DD42B343022061230031919
:100790002306031DD02B6B14113021009700BA2BB8
:1007A00002308931B52108000130250200300319DB
:1007B0002402031C1A2C013025020A3003192402DA
:1007C00003181A2CEB1CBA2B2408D9005908DB009B
:1007D000B9015B08D43E860087010108D900590899
:1007E000DA002208D9005B08D43E86008701590848
:1007F00081005B088231B622833120003908031959
:10080000122C5A08D9005B08D43E8600870159088B
:1008100081005B088231B622833102308931B521F3
:100820008331172C8931CB2183318A3184222000F6
:10083000EB140800003025020A30031924020318C3
:10084000642C2408D43E860087010108D900590889
:10085000DA002308F5002208F40024088F31A827C5
:100860008331003A031DBA2B803020005A06031949
:100870003D2C81305A06031D542C22082304031DED
:10088000BA2B0630D9005908F400240889316921AF
:100890008331A03E8600013087000030C03F003029
:1008A000C13FC23FC33FBA2B40305A06031D612CE3
:1008B0002435A03E860087012208C03F2308C13F9F
:1008C000BA2B8A314B220800A03024062504031DD0
:1008D000742CEB1CBA2B2208D90059082100DE0029
:1008E0008A3184228331BA2B02308931B521080044
:1008F000633020004506031D162D4408031D832C7C
:100900008831FB20843106302000D5005508F400E2
:100910007C08893169218431A03ED6005608FB004D
:10092000440A031D9C2C7B08860001308700FF30A1
:10093000C03FFF30C13FA92C7B08860001308700F3
:1009400081014408D5007B0A8600013087005508E4
:10095000810010303D06031DCC2C4608D5007B08D5
:10096000033E860001308700550881004808D50005
:100970007B08053E860001308700550881007B0812
:10098000023E86000130870081017B08043E86001C
:10099000013087008101E22C11303D06031DE22C5D
:1009A0007B08023E8600013087004608C03F4708AA
:1009B000C13F7B08043E8600013087004808C03FE5
:1009C0004908C13FBD1E052D4708D5007B08023EE2
:1009D000860001308700550881004608D5007B0855
:1009E000033E860001308700550881007B08043EE5
:1009F00086000130870081014A08D5007B08053E4A
:100A000086000130870055088100BD1D132D7B082D
:100A10008600013087004608C03F4708C13F4808AC
:100A2000C23F4908C33F8B31A92308003D1E1B2D3F
:100A30008931E2210800BD1E202D853125250800C1
:100A4000BD1D132D8B3183230800932D8831D820B1
:100A500008000930FA007A08C50089311221853171
:100A6000C22D931D0800C22D8A3167228531003ABC
:100A7000031DC22DFF30FA007A08C4006330FA006B
:100A80007A08C5000800CC308D31B4258531C22DDF
:100A900044308D31B42585315830AA000230AB0086
:100AA000FA308831F1208531C22D931D08000130C4
:100AB000AA020030AB3B2A082B040319C22DFA30DE
:100AC0008831F1200800BE308D31B4258531BE015A
:100AD000C22D8D31EB258531FA003E08463E860059
:100AE00087017A088100BE0A093020003E02031CFB
:100AF00008006330FA007A08C5000830FA007A0866
:100B0000F40046308B31FB2385314E0603198A2DC4
:100B100002308B2D0130D3000030D4005308FA008E
:100B20007A08C40008004508003A0319262D013A46
:100B30000319292D0B3A0319312D013A0319342DCC
:100B4000073A0319312D013A0319432D033A0319CA
:100B5000482D013A0319552D1F3A03192D2D013A3D
:100B60000319312D033A0319342D013A0319312D9C
:100B7000073A0319432D013A0319632D033A031968
:100B8000692DC22D2000C50A08008B13F21DD02D3F
:100B9000F21123006608A4006708A600E601E70139
:100BA0008B178B132000721EDD2D72122300680834
:100BB000AA006908AB00E801E9018B178B1320003C
:100BC000F21EEA2DF21223006A08B0006B08B10091
:100BD000EA01EB018B178B132000721FF72D7213A4
:100BE00023006C08B6006D08B700EC01ED018B1313
:100BF0008B172000F21F042EF21323006E08BC0096
:100C00006F08BD00EE01EF018B1723008B13600806
:100C1000E0018B17A3070030A23DA13DA03D8B133F
:100C20006108E1018B17A9070030A83DA73DA63D4B
:100C30008B136208E2018B17AF070030AE3DAD3D6C
:100C4000AC3D8B136308E3018B17B5070030B43D4F
:100C5000B33DB23D8B136408E4018B17BB07003032
:100C6000BA3DB93DB83D20000800E101E201B901FB
:100C700000302502A030031924020318602E250835
:100C8000DF002408DE000430DF36DE0C890B442E42
:100C90005E08E0006008E300630889311F218631A7
:100CA000003A0319572E6308873155270800630857
:100CB0008D31122586317B082000E2007A08882ECB
:100CC000103025062404031D6D2E893149218631FB
:100CD0007B082000E2007A08882E240310300319D4
:100CE0002506031D7B2E89312C2186317B082000AF
:100CF000E2007A08882E02302406103003192506F7
:100D0000031D8A2E8B311C2386317808E200770878
:100D1000E1008C2EB901B90A39080319932E02306B
:100D20008931B52108006208D6006108D5008931F3
:100D30008C210800200018180800BC0A0B30200085
:100D40003C02031CA82EBC012030ED004E30EE000A
:100D50003C080B3E840088300318013E85000008E3
:100D6000F4007408BB000A303C06031DBD2EEE1BC8
:100D700008006D09F4006E09D02E3C35A03E8600B7
:100D80008701403FF700413FF8007708ED027808FF
:100D9000EE3B77087804031908007709F400780916
:100DA000F500F40A0319F50A74089600750897000F
:100DB00011102100111420003C08003E84008830EE
:100DC0000318013E85000008F4007408F6008B1338
:100DD00005303C020318F12E7608F40074088D04E7
:100DE000F52E7608F40074088C0418148B1708008C
:100DF0008B12F4017C088C3125248631FF30F800F9
:100E000078082000C4002A3024004F02031C4B2F16
:100E10002000C0010230F8007808C100BF01FA01CB
:100E2000F90103102000C00D4108C10A203E8600D0
:100E3000023087006F3001020318C00A0130F80049
:100E40007808F90708307902031C122F04307A025F
:100E50000318372F20004008F8007808BF07400823
:100E6000F8007A08463E8600870178088100013044
:100E7000F8007808FA0705307A02031C102F2000CA
:100E80003F084006031D4B2FC401C40A6330F8001D
:100E90007808C500080020004308031D462FC30A38
:100EA0002000AC01AD01C5010800DA00DD015A08DF
:100EB000D43E860087010108D7005708DC000830BF
:100EC0005C02031C732F10305C020318692F04307E
:100ED000702F40305C06031D6F2FDD01732F06302D
:100EE000D7005708DD005D08031D7A2F02308931D5
:100EF000B521080089310621873120005D08D7001F
:100F000057082100B6008B132000DB015D085B024F
:100F10000318AA2F0630D7005708F4005A08893161
:100F200069218731A03E5B07D80058088600013050
:100F300087000108D9005908DC005C08D7005B086D
:100F4000B73E86008701570881000130D700570857
:100F5000DB07862F8B175D08033E8C317F2408004A
:100F60007C08003E840088300318013E850000089C
:100F7000F4007408F6007609F4007408F500C40162
:100F800000302D02153003192C02031C08006230BA
:100F9000F4007408C5008B137508F400740827006A
:100FA00096057608F400740895048B177608F4000B
:100FB00074082000F0002400CF018B15200095015B
:100FC0000B118B168B1395017608F4007408210021
:100FD0008D048B1700000000000000000800FB00DB
:100FE0007B08D43E8600870106300106031D0800F9
:100FF0007908FA007A08F4007B088E315E26080032
:10100000083402341034403480340134023404345F
:10101000083410340034F734FD34EF34BF347F34F7
:10102000FE34FD34FB34F734EF34FF3409340B3431
:1010300008340534063400340134023403340434F3
:10119A008B13B501B4018B1708006400800101317B
:1011AA00890BD32800347C088A312F222000C501FC
:1011BA00C50A0800350834060319E5280130080075
:1011CA0000300800F400053028009E0074089D00D5
:1011DA009C01200093110800F400073028009E00AB
:1011EA0074089D009C012000931108008B120B11BA
:1011FA00FF30CA00FF30CB003D1E080089313A217A
:10120A00080021005E08F4007408B40020003108C8
:10121A00F40074082100B50008007C088A312F22E6
:10122A008931F4017C088E315E2689313F3088315C
:10123A00F1200800F4007408D43E860087010108F2
:10124A00B83903192A2901300800003008002200A1
:10125A0097161712FC3021009E051D308D31472547
:10126A007508FB007408FA0008008B12F4017C0868
:10127A008C31252489316330F80078082000C500B4
:10128A007C088A311322080022001708FC39023828
:10129A009700FC3021009E051F308D3147257508C7
:1012AA00FB007408FA0008002000F30089310621C7
:1012BA00893101302100B600200073082100B700EF
:1012CA0004308C317F240800F700F601771C71295D
:1012DA007408F5007508F6070310F40D0310F70CEF
:1012EA007708031D6B2976080800003025020A30AA
:1012FA00031924020318882924088A31A122893172
:10130A0089315921080002308931B52108002000AD
:10131A00D50089310621893102302100B60020002A
:10132A0056082100B700200055082100B8000530F2
:10133A008C317F240800F700A329200064002300D1
:10134A009518A2297708F400F50174089100750828
:10135A0092003F30F6007608950515141308080028
:10136A002000D600893106218931200031088038D1
:10137A00D50055082100B50020005608D5005508AB
:10138A002100B60003308C317F2408008931062100
:10139A008931200025082100B600200024082100F8
:1013AA00B700200023082100B800200022082100ED
:1013BA00B90006308C317F240800623045060319D3
:1013CA00080032304506031DED298631F82608004B
:1013DA0063304506031908004503031DF7298731C1
:1013EA00B02708008D317D2508008831DF2089313A
:1013FA00003A0319FA293408203E86000130870092
:10140A000108F4007408F5000130F4007408B40708
:10141A00203034020318B40175080800F500750875
:10142A00003E840088300318013E85000008F4005D
:10143A007408F600053075020318292A7608F400A4
:10144A00740821008D0408007608F400740821004D
:10145A008C040800F50075080B3E840088300318D8
:10146A00013E85000008F4007408F6000530750294
:10147A000318452A7608F400740821008D0508002F
:10148A007608F400740821008C0508000030250253
:10149A000A30031924020318632A220823040319B1
:1014AA00582A0130592A0030D7005708F900240871
:1014BA008731EF278A318931CB21080002308931FF
:1014CA00B52108007C088A3113228A31B430883168
:1014DA00E7208A31931D6F2A7C088A31DC228A31FF
:1014EA00F800780CEC100318EC142000EC1C7F2A8E
:1014FA000030080033308831F12001300800D43040
:10150A00F8007808F900FA017908860087010108CD
:10151A00F8007808F4007A088A31FC228A3101300E
:10152A00F8007808F9070130F8007808FA070B3054
:10153A007A0203180800892AF60005307602031891
:10154A00A82A0D08A92A0C08F4007408F5007608E0
:10155A00003E840088300318013E85000008F4002C
:10156A007408F50575080319BC2A01300800003013
:10157A0008002308D7002208D600D80156080139E6
:10158A00D5005508F90058088731EF278A3101300C
:10159A00D736D60C890BCD2A0130D5005508D80785
:1015AA000A305802031CC32A8931CB210800F600ED
:1015BA007608003E840088300318013E8500000842
:1015CA00F4007408F700053076020318EF2A2000A9
:1015DA000D08F12A20000C087705F4007408F500BC
:1015EA007508031DFA2A0030080001300800F700C8
:1015FA0023009518FD2A7708F500F6017508910071
:10160A0076089200740893003F30F5007508950536
:10161A0003108B1B03148B13151555309600AA3033
:10162A00960095141511031C08008B170800D001A9
:10163A00D101D2010130D035D10D890B202B5208AE
:10164A00093C8A31A1228B31F900FA017908D004C8
:10165A007A08D1040130F9007908D2070A30520217
:10166A00031C1F2B5108F8005008F7000800F5006A
:10167A007508F4007408B3073708013EF4007408CB
:10168A00F600203076020318F601760836060319AA
:10169A004A2B7508F4003708403E8600013087005F
:1016AA00740881007608F4007408B7002100111646
:1016BA000800F600053076020318802B7408031917
:1016CA00732B7608003E840088300318013E85009B
:1016DA000008F500750824008D04080076080B3E02
:1016EA00840088300318013E85000008F50075085B
:1016FA0024008D050800B901B90A08004508031D30
:10170A00892B8C31DF2408004503031D08006B1E5A
:10171A000800C6012908F4007408C7002808F40064
:10172A007408C8004208F4007408C900A801A90195
:10173A00C2016330F4007408C500C401C40A9E13D0
:10174A00210095128B1208002000C3010130F40019
:10175A007408FC070A307C020318FC017C08D43E9A
:10176A00860087010108F4007408BD00C501C401A0
:10177A00AC01AD018B126C10BD196C14F501750822
:10178A00463E8600870181010130F4007408F5079E
:10179A000630750203180800C42BF9017908D43EF3
:1017AA0086008701103001060319E32B7908D43E1D
:1017BA008600870111300106031DE82BF401790820
:1017CA008C3125248B312000C50121005408F800F2
:1017DA0078082000BD00FC01F0010130F80078080B
:1017EA00F9070A30790203180800D32BF600F8012A
:1017FA0074080319232C76088600870101087806E5
:10180A00F5007508F8000130F5007508F60708308C
:10181A00F5007508F700781C152C78368C3A162CCA
:10182A007836F5007508F8000130F7027708031DCD
:10183A00102C0130F4027408031D002C78080800EB
:10184A00F7008B130530770203184F2C7408031D19
:10185A003F2C77080B3E840088300318013E850030
:10186A000008F5007508F6007608F50075082700E7
:10187A0095054F2C7708003E840088300318013EF6
:10188A0085000008F5007508F6007608F500750869
:10189A00270095048B170800F60076080B3E840093
:1018AA0088300318013E85000008F4007408F70028
:1018BA00053076020318702C7708F40074088D0539
:1018CA007708F400740821008D057708F40074087D
:1018DA0023008D0508007708F40074088C05770842
:1018EA00F400740821008C057708F40074082300BA
:1018FA008C0508002000D10030080319080051089F
:10190A00D0005008F400B4308F3114278C31750898
:10191A00D3007408D2006B150D14D4015108540277
:10192A000318A52C5408B43E8600870101088B31A0
:10193A003C238C3101302000D0005008D407932C6E
:10194A0052088B313C238C31200053088B313C23C5
:10195A000800F7007708003E840088300318013E2B
:10196A0085000008F4007408F50077080B3E84002F
:10197A0088300318013E85000008F4007408F60058
:10198A00053077020318D42C7508F4007408210076
:10199A008D047608F400740823008D050800750884
:1019AA00F400740821008C047608F40074082300FB
:1019BA008C050800C401C40AC501C50A7C08163E84
:1019CA00840088300318013E850000089F009E139A
:1019DA008B12A801A9019501EB11EB126B120830C9
:1019EA003D06031DFA2C8130072D09303D06031DE3
:1019FA00002D8530072D0A303D06031D062D89303E
:101A0A00072D8D309E0020302100950095168B12EF
:101A1A0020006C14EB156B120800D300B9015308AF
:101A2A00D43E860087010108D0005008D200043055
:101A3A0052020318342D53088E31D6268D312000D8
:101A4A005308163E840088300318013E85000008BA
:101A5A008D3147257508FB007408FA000800073025
:101A6A0052020318422D53088A31DC22D000D101D8
:101A7A005008FA005108FB000800FF30FA00FF3056
:101A8A00FB000800F70021001113200011132100A8
:101A9A001D141D147708F600F60DF60D1D087606BE
:101AAA00833976069D000B30F6006230890B5B2D78
:101ABA00F60B5B2D003221009D149D18622D0B3010
:101ACA00F6006230890B672DF60B672D0032210074
:101ADA009D149D186E2D1C08F6007608F9001B0847
:101AEA00F6007608F8007908F5007808F40008008E
:101AFA0003302D02E93003192C02031C0800AC0143
:101B0A00AD017C080B3E840088300318013E850035
:101B1A000008F4007408F5008B137508F4007408C3
:101B2A00270095057508F400740896057508F400F1
:101B3A00740821008D057508F400740820008D05CD
:101B4A008B17C501C50A2830F4007408C100C0010A
:101B5A00BE01023021009500200095010800D00046
:101B6A00D201D20A0830F9007908D1008B137C0817
:101B7A008A312F228D31F4017C088E315E268D3117
:101B8A00500852050319CD2D000000008B17D42DE3
:101B9A008B1778308831E7208D31931DD22D7C0840
:101BAA008A3113228D312000500852050319E32D82
:101BBA0078308831E7208D31931DE12D0310D20D45
:101BCA000130D102510803190800BB2DD001D00AF7
:101BDA00D1010830F9007908D2007C088A312F2215
:101BEA008D31F4017C088E315E268D318B13000015
:101BFA000000000000007C088A3113228D310000A9
:101C0A000000000000007C088A31DC228D31003A95
:101C1A000319132E5008F9007908D1048B1778306C
:101C2A008831E7208D31931D182E0310D00D013015
:101C3A00D2025208031DF22D5108080086008701BE
:101C4A001600B0001600B1001600A5001600A40088
:101C5A001600A3001600A2001600A0001600A1009C
:101C6A0006302000D0005008F400DF308F311427EE
:101C7A008E317508D3007408D20021085306031D5B
:101C8A00482E2008520603194C2ED4015C2E21003E
:101C9A005E0820003006031D552ED401D40A5C2E9E
:101CAA0030080319522E0230D0005008D4005408CC
:101CBA000800F8007808003E840088300318013EC6
:101CCA0085000008F5007508F60078080B3E8400C8
:101CDA0088300318013E85000008F5007508F700F2
:101CEA008B13053078020318892E7408031D832E7E
:101CFA007708F500750820008D05972E7608F500FF
:101D0A00750820008D04972E7408031D922E7708FB
:101D1A00F500750820008C05972E7608F5007508E1
:101D2A0020008C048B17080030080319A22E21000A
:101D3A005E0820003006031D080005302000E4007C
:101D4A002630890BA62EE40BA62E000020003103B4
:101D5A00031DB22E89317A21080002303106031997
:101D6A00AF2E03303106031DBD2E8F3153270800D5
:101D7A0004303106031DC42E86313526080005308D
:101D8A003106031DCB2E8A314B220800063031065C
:101D9A00031DD22E83319E23080001308931B521DB
:101DAA000800F6007608D43E860087010108F40090
:101DBA007408F5007608003E840088300318013E56
:101DCA0085000008F4007408F7000530760203184D
:101DDA00F92E7708F400740821008D047708F400BE
:101DEA00740823008D04032F7708F4007408210077
:101DFA008C047708F400740823008C042200170866
:101E0A007506FC39750697007508031D102FFC30FE
:101E1A0021009E050800033021009E040800F800F6
:101E2A00FF30FA00FF30FB00740803194E2F7808C0
:101E3A00860087017A080106FA007B08FB00013058
:101E4A00F6007608F8070830F6007608F9007A1CDA
:101E5A003A2F7B08F7007A08F600F736F60C0130BD
:101E6A007606FA00A0307706432F7B08F7007A0837
:101E7A00F600F736F60C7608FA007708FB00013010
:101E8A00F9027908031D2C2F0130F4027408031D8E
:101E9A001C2F7B08F5007A08F4000800D9010130EC
:101EAA002502003003192402031C682F0130250281
:101EBA000B30031924020318682F2408D43E860025
:101ECA0087010108702FA03024062504031D762FF0
:101EDA0021005E082000D700D8015708DA00580808
:101EEA00962FFA3024062504031D7F2F0630DA00C8
:101EFA000130962FFB3024062504031D882F3A3023
:101F0A00DA006530962F003025020A3003192402C0
:101F1A000318982F2435A03E86008701403FDA0037
:101F2A00413FDB009A2FD901D90A59080319A12F79
:101F3A0002308931B52108005B08D6005A08D5005D
:101F4A0089318C210800FB007508F7007408F60037
:101F5A00F736F60CF736F60C7608F8007808F9002A
:101F6A0074080339F6007608FA00FA0EF030FA051A
:101F7A000C30F6007608FA047B08D43E8600870106
:101F8A00073001060319CB2F003008007B08031D18
:101F9A00D32F21008D117A082500E42F03307B0608
:101FAA00031DDC2F21000D137A082500F02F0830BD
:101FBA007B06031DE82F21008C117A082600930066
:101FCA0079089100F62F09307B06031DF42F2100B2
:101FDA000C127A0826009A0079089800F62FB9019F
:101FEA00C92F7B35A03E860087017408C03F75085B
:061FFA00C13F01300800A8
:020000040001F9
:04000E00FC2FFF3E86
:10E0000006000600060006000600060006000600E0
:10E01000040004007F00FF00FF00FF00FF00FF007E
:00000001FF
