:100000008131422980343E34803120007F08F6005F
:100010002100111C1A282000111C1A28111005306B
:1000200040020318162841088D05182841088C0540
:10003000200018108B190B1CB0281508C5002700CC
:1000400016082000700503193628950124004F0872
:10005000203E8600023087004F082D3C0318CF0A4F
:100060002000450881007009270096052700160822
:1000700015050319B0282000C6002000C61D54280D
:10008000270096112000F11D54282300E00AF21DDC
:100090005028F2116608A4006708A500E601E701F0
:1000A000E70A0319E60A20002000461E6B282700F5
:1000B00016122000711E6B282300E10A721E6728A9
:1000C00072126808AA006908AB00E801E901E90AB0
:1000D0000319E80A20002000C61E82282700961275
:1000E0002000F11E82282300E20AF21E7E28F2126E
:1000F0006A08B0006B08B100EA01EB01EB0A0319D2
:10010000EA0A20002000461F992827001613200025
:10011000711F99282300E30A721F952872136C0837
:10012000B6006D08B700EC01ED01ED0A0319EC0A09
:1001300020002000C61FB028270096132000F11FC2
:10014000B0282300E40AF21FAC28F2136E08BC00AA
:100150006F08BD00EE01EF01EF0A0319EE0A20005F
:100160002100111CC2282000111CC22811100530CA
:1001700040020318BE2841088D05C02841088C059F
:10018000200018102000911CF9289110F31FCF288F
:10019000F3167108F5007508F2002000F313013022
:1001A0002000AA070030AB3D0130A8020030A93B77
:1001B00029082804031DF9286430A8000030A9008C
:1001C000741CEA281508C50020009E138B127410B9
:1001D0007315F128F41CF128F41095010B118B16FE
:1001E00074140130C202C208031DF9280A30C2008B
:1001F000F3172100111E19292000111E1929360894
:100200003A06031913293A08A03E8600870101081F
:1002100023009A002000BA0A203020003A02031C72
:100220001929BA0119293A083606031D192921008E
:1002300011128B1A0B1D28290B11731F2429200062
:10024000AC0A031DAD0A28298B1232302000B200FF
:100250002100911E3E292000911E3E2920003B08CE
:10026000BB0A203E86000130870023001908810068
:10027000200020003B08203A0319BB01760820002B
:10028000FF00090081314429F301F401203084008A
:10029000003085002D30883130208131A03084003D
:1002A0000030850049308831302081312030840091
:1002B00001308500203088313020813180310220AA
:1002C0008131EA0080310320EB0020008131682970
:1002D00002302100950023008C018D012030200088
:1002E0008C003F3024008C008B011D3021009700D2
:1002F000F31064008931E82181312B3021008C001A
:1003000020000D1022009D019E01823023009E00DE
:100310009D011E159F151E128A309B009C019E1682
:100320009D171D1621001112200091121112230099
:100330001F121F102000B601BA01BB01BC018B17B0
:100340000B172100911627009401950196018B153A
:100350002000F001F101F3118831E320813188316F
:100360009E2081312000E9010A3069020318C62964
:100370007314690882317E22813101302000E5004A
:100380006508E9070A306902031CB82973100730B1
:1003900028009700553025009E00FF302800960069
:1003A0009501210093102000931088312A2081317B
:1003B0002000B701CB30E700ED30E6004C30E5001F
:1003C000E50BE029E60BE029E70BE02900328B3151
:1003D0001F2381312000E9010A3069020318FF2937
:1003E0006935C03E860087010030C03FC13F013003
:1003F000E5006508E9070A306902031CF0290A30A4
:10040000E5006508C00030309800991311102100F4
:10041000111020001810F31C6400F319112A200099
:100420000D10F31D232A2100111A742AE430200034
:10043000E50000320032E50B192A003200002000EE
:100440000D10F311742A883136208131003A0319D6
:10045000742A89315B2181312000E5003708DF3EB5
:1004600086008701650881000130E5006508B7074F
:1004700008303702031C742A0830E5006508B7000D
:10048000DF308531A12581312000E5006508E800D5
:100490006808013A031D512A8E311E268131200041
:1004A000552A6808023A031D572AB701742AE90140
:1004B000E90A083069020318722A6908DF3E8600DB
:1004C00087010108E5006908FF3EDF3E86008701DD
:1004D000650881000130E5006508E9070830690218
:1004E000031C5D2A0130B70284313D2481318E31F5
:1004F000F52681318631352681310B2A2000D20044
:100500005208D43E860087010108D0005008D1006F
:100510008B311F23823106302000D0005008F700B5
:1005200052088831AE208231A03E8600013087001B
:100530000030C03F0030C13FC23FC33F0630200003
:10054000D0005008F70052088831AE208231043EB6
:10055000A03E8600013087000030C03FC13F05301B
:10056000200052020318BC2A52080C3E88310A00AF
:100570008231D0005008F105D208031DC12A2500A0
:10058000930120005208033A031DC82A25009A014E
:1005900020005208083A031DCF2A260093012000AC
:1005A0005208093A031DD62A26009A010530200078
:1005B00052020318E72AF701F70A52088A31252266
:1005C0008231F701200052088A31AD2282312000A9
:1005D0005235C03E860087010030C03FC13F053024
:1005E00051020318012B053052020318FC2AF701AF
:1005F00052088A3125228231200052088C31E424AD
:100600000800511B072B5108063A031D0B2B5208FB
:100610008C310424080020005108073A031D182BD0
:100620000030F7000030F80052088631A626080096
:10063000D11F412BF70152088A3125228231200037
:1006400052088B3174238231F701F70A20005208D7
:100650008A31AD2282312000D2080319F1155208E7
:10066000013A031971165208023A0319F116520899
:10067000033A031971175208043A031D0800F117D1
:100680000800D119472B5108043A031D5E2BD11DD8
:10069000502B05305202031C502BAE01AE0A08004D
:1006A000053052020318592BF70152088A312522CE
:1006B0008231200052088B3174230800511E672BB1
:1006C00005305202031C0800AE01AE0A08005208B1
:1006D0008B3174230800013020002306031D722B88
:1006E000FF302206031D802B56302706031D7A2B70
:1006F00078302606031D7E2B731408007310080043
:10070000AA3020002306031D872B55302206031D27
:100710009C2B12302706031D8F2B34302606031D19
:10072000982BF3141130210097008A3167220800BA
:1007300002308931412108000130200023020030BD
:1007400003192202031CE52B013023020A3003198E
:1007500022020318E52B731CE22B2208D80058084C
:10076000DA00AE015A08D43E860087010108D8009D
:100770005808D9002608D8005A08D43E86008701B8
:10078000580881005A0882317E22833120002E08C9
:100790000319DB2B5908D8005A08D43E860087017C
:1007A000580881005A0882317E2283310230893113
:1007B00041218331E02B8A31672283318A3106223D
:1007C000731408008A3167220800003020002302D9
:1007D0000A30031922020318262C2708F801F8070B
:1007E0002608F701F70722088631A626833100384C
:1007F000031D232C20002208D43E86008701010817
:10080000803A031D1A2C27082604031D232C0630CA
:10081000D8005808F70022088831AE208331A03E66
:100820008600013087000030C03F0030C13FC23F2A
:10083000C33F232C20002235C03E860087012608B6
:10084000C03F2708C13F8A3167220800A03020003E
:1008500022062304031D392C731C362C2608D800CD
:1008600058082100DE008A31062283318A3167224E
:100870000800023089314121080020003208633A23
:10088000031DF62CB508031D482C883159208431EE
:1008900006302000D2005208F70033088831AE201D
:1008A0008431A03E2000D5000130D6003508FF3A43
:1008B000031D632C5508860056088700FF30C03F93
:1008C000FF30C13F742C550886005608870081010F
:1008D0005508013ED2000030563DD3005208860034
:1008E00053088700350881003408103A031D9F2CF7
:1008F0005508033ED2000030563DD3005208860012
:1009000053088700470881004908D2005508053E72
:10091000D3000030563DD4005308860054088700A9
:10092000520881005508860056088700423181012F
:10093000550886005608870044318101B52C3408DB
:10094000113A031DB52C5508860056088700423120
:100950004708C03F4808C13F550886005608870031
:1009600044314908C03F4A08C13FB41EE52C48083D
:10097000D2005508023ED3000030563DD400530843
:10098000860054088700520881005508033ED200B3
:100990000030563DD30052088600530887004708B0
:1009A00081005508860056088700443181014B08B4
:1009B000D2005508053ED3000030563DD400530800
:1009C00086005408870052088100B41DF32C550896
:1009D0008600560887004708C03F4808C13F4908BD
:1009E000C23F4A08C33F8A31F6220800341EFB2C5E
:1009F000893175210800B41E002D853108250800B5
:100A0000B41D052D8B31492308008A31F6220800D8
:100A10006B2D88313D20080009302000D10051089D
:100A2000B20088317F2085319B2D2000931D080066
:100A30009B2D8931CA2185310038031D9B2DFF3044
:100A40002000D1005108B5006330D1005108B20038
:100A50000800CC308D311F2585319B2D44308D31E0
:100A60001F25853158302000A0000230A100FA3047
:100A700088314F2085319B2D931D08000130A00245
:100A80000030A13B2108200403199B2DFA30883146
:100A90004F200800BE308D311F2585312000B00168
:100AA0009B2D8E31A42685312000D1003008473E91
:100AB00086008701510881000130D1005108B0073C
:100AC00006303002031C08006330D1005108B20028
:100AD000B501B50A080020003208003A0319092DB3
:100AE000013A03190C2D0B3A0319152D013A03197C
:100AF000192D073A0319152D013A0319292D033A27
:100B000003192E2D013A03193C2D1F3A0319112DFB
:100B1000013A0319152D033A0319192D013A031946
:100B2000152D073A0319292D013A03194A2D033AC5
:100B30000319512D9B2D01302000D1005108B2071F
:100B400008002000D6005608D0005008D8005808E9
:100B5000860087010108D0005008B9000130D0009C
:100B60005008D8075808860087010108D0005008AF
:100B7000B8000130D0005008D807580A8600870115
:100B80000108D000D1015808860087010108D20071
:100B9000D3015208D300D20150085204A2005108D8
:100BA0005304A3000230D0005008D807580A86002A
:100BB00087010108D000D10158088600870101088B
:100BC000D200D3015208D300D20150085204A6002B
:100BD00051085304A7000230D0005008D807580825
:100BE000860087010108D000D1015008A4005108F7
:100BF000A5000130D0005008D807580886008701AA
:100C00000108D000D1015008D100D0015008A4043F
:100C10005108A504DF30F7000030F8000630D0009E
:100C20005008F9008E315F26853178082000D50103
:100C3000D5077708D401D40725085506031D222EB1
:100C4000240854060319262ED701332E21005E08EE
:100C500020003906031D2F2ED701D70A332E02306C
:100C6000D0005008D700570808008B132000F21D51
:100C7000412EF21123006608A4006708A600E601D1
:100C8000E7018B178B132000721E4E2E7212230069
:100C90006808AA006908AB00E801E9018B178B130B
:100CA0002000F21E5B2EF21223006A08B0006B08CF
:100CB000B100EA01EB018B178B132000721F682E25
:100CC000721323006C08B6006D08B700EC01ED014B
:100CD0008B138B172000F21F752EF21323006E0862
:100CE000BC006F08BD00EE01EF018B1723008B13D2
:100CF0006008E0018B17A3070030A23DA13DA03D95
:100D00008B136108E1018B17A9070030A83DA73DAF
:100D1000A63D8B136208E2018B17AF070030AE3D92
:100D2000AD3DAC3D8B136308E3018B17B507003075
:100D3000B43DB33DB23D8B136408E4018B17BB0790
:100D40000030BA3DB93DB83D200008002000CF007A
:100D50007808FA007708F900FA36F90CFA36F90C37
:100D60007908FB007B08CD0077080339F900790882
:100D7000CE00CE0EF030CE050C30F9007908CE044E
:100D80004F08D43E860087010108073A0319CA2E8E
:100D900000300800CF08031DD72E21008D11200040
:100DA0004E082500930020004D082500F42E200059
:100DB0004F08033A031DE62E21000D1320004E08B4
:100DC00025009A0020004D082500042F20004F0820
:100DD000083A031DF62E21008C1120004E08260033
:100DE000930020004D08260091000A2F20004F0894
:100DF000093A031D062F21000C1220004E08260080
:100E00009A0020004D08260098000A2F2000AE010D
:100E10000030080020004F35C03E8600870177086B
:100E2000C03F7808C13F013008008B12F701200055
:100E300033088A31AD228731FF30FB007B08200068
:100E4000B5002A3024004F02031C722F2000C40179
:100E50000230FB007B08AF00B101CE0105304E022D
:100E60000318672FCD0108304D0203184F2F0310D0
:100E7000C40D2F08AF0A203E8600023087006F3075
:100E80000102031C472F0130FB007B08C40701301F
:100E9000FB007B08CD0708304D02031C382F0430BF
:100EA0004E0203185F2F4408FB007B08B10744087B
:100EB000FB004E08473E860087017B088100013019
:100EC000FB007B08CE0705304E02031C322F310891
:100ED0004406031D722FB501B50A6330FB007B0881
:100EE000B20008002000BE08031D7E2F0130FB0069
:100EF0007B08BE07AA01AB01B20108006330FB000A
:100F00007B08B20008002000E101E201AE010030E0
:100F10002302A030031922020318B22F2308DF0096
:100F20002208DE000430DF36DE0C890B932F5E08CA
:100F3000E0006008E3006308883172208731003ADE
:100F40000319A72F200063088F31A627080020006F
:100F500063088C313924873120005108E201E2070F
:100F60005008D32F10302306031DB82F003022065F
:100F7000031DC32F8831D020873120005108E201A2
:100F8000E2075008D32F10302306031DC92F01306C
:100F90002206031DD62F8831BF208731200051083B
:100FA000E201E2075008E101E107D82FAE01AE0AE5
:100FB00020002E080319E02F02308931412108005A
:100FC00020006208D701D7076108D601D60789310A
:100FD000AD2108002000D70088316520873124002A
:100FE000A201A20A20005708D60056082400A30038
:100FF00004302000D0000030D1008C317024080073
:101000000034083410342034403480340134023445
:101010000434083410340034F734EF34DF34BF3490
:101020007F34FE34FD34FB34F734EF34FF340934BD
:1010300008340734053406340034013402340334F0
:02104000043476
:101054008B132000BB01BC018B17080064008001C6
:101064000131890B3128003420003B083C06003054
:10107400031D013008002000330889312821200095
:10108400B201B20A0800F700053028009E00770874
:101094009D009C01200093110800F70007302800F0
:1010A4009E0077089D009C012000931108008B127C
:1010B4000B11FF302000CB00FF30CC00341E0800A1
:1010C40088318E20080021005E08F700770824008C
:1010D400A00020003808F70077082400A1000800C9
:1010E400F7007708D43E860087010108B839031950
:1010F4007D280130080000300800200033088931C1
:1011040028218831F701200033088C31A924883143
:101114003F3088314F2008008B12F701200033083C
:101124008A31AD2288316330FB007B082000B20095
:10113400330889310F210800E33021009E0001307B
:101144009D0023008C018D01210011132000111337
:10115400C230220097000800FA00F9017A1CB62870
:101164007708F8007808F9070310F70D0310FA0C54
:10117400FA08031DB02879080800220097161712F0
:10118400FC3021009E051D308D315C25780820003F
:10119400D101D1077708D001D00708002200170831
:1011A400FC3902389700FC3021009E051F308D3138
:1011B4005C2578082000D101D1077708D001D00739
:1011C4000800073020009C007D309B009A0191109C
:1011D4006430A8000030A9000A30F7007708C20084
:1011E400210091140B178B170800FA0064002300E8
:1011F4009518F8287A08F700F8017708910078081C
:1012040092003F30F900790895051514031015185C
:1012140003140030093D13080800F8007808013E63
:1012240088310A008931F7007708F900053078021F
:10123400031822297908F700770821008D04080093
:101244007908F700770821008C040800F800780872
:101254000C3E88310A008931F7007708F90005301F
:10126400780203183B297908F700770821008D05D7
:1012740008007908F700770821008C050800200091
:10128400D700883165208931200038088038D6009D
:1012940056082400A10020005708D6005608240050
:1012A400A20003302000D0000030D1008C31702423
:1012B4000800883136208931003A03195B2920005F
:1012C4003C08203E8600013087000108F7007708BB
:1012D400F8000130F7007708BC0720303C020318FF
:1012E400BC017808080020003208623A031908009B
:1012F4003208323A031D812987311527080020005E
:101304003208633A031908003208013A031D8D2993
:101314008D319C2508008B31CF230800F900790812
:10132400013E88310A008931F7007708FA00053058
:1013340079020318A02920000D08A22920000C0816
:101344007A05F7007708F800F808031DAB29003088
:1013540008000130080088316520893102302000FE
:10136400D80058082400A20020005708D8005808C4
:101374002400A30020005608D80058082400A40024
:1013840005302000D0000030D1008C3170240800DA
:101394002000330889310F218931B4308831452048
:1013A40089312000931DD329330889319021893153
:1013B400FB007B0C731203187316731EE3290030B1
:1013C4000800333088314F2001300800D430FB004E
:1013D4007B082000CD00CE010B304E02031808001C
:1013E4004E088831F7208931FB0020004D08860023
:1013F40087017B0881000130FB007B08CD070130A9
:10140400FB007B08CE07EE29D430FB007B082000CC
:10141400CD00CE010B304E02031808004D088600A3
:1014240087010108FB007B08F7004E088A318A22F5
:101434008A310130FB007B082000CD070130FB001E
:101444007B08CE070C2AF900053079020318412ADB
:1014540077080319372A7908013E88310A008A314E
:10146400F800780824008D04080079080C3E8831BF
:101474000A008A31F800780824008D05080020004D
:10148400AE01AE0A0800F8007808F70077082000DB
:10149400BF073608013EF7007708F90020307902CB
:1014A4000318F90179083A060319542A7808F70051
:1014B4003608A03E86008701770881007908F70086
:1014C4007708B600210011160800883165208A319A
:1014D40020002308D60056082400A2002000220879
:1014E400D60056082400A30020002708D60056087A
:1014F4002400A40020002608D60056082400A500D5
:1015040006302000D0000030D1008C317024080057
:10151400FA00230095188B2A7A08F800F901780854
:10152400910079089200770893003F30F80078081A
:101534009505200003108B1B03148B132300151532
:1015440055309600AA309600951415112000031CFE
:1015540008008B170800FA0005307A020318080007
:10156400F708031DC32A7A080C3E88310A008A3121
:10157400F8007808F9008B137908270095058B1774
:1015840008007A08013E88310A008A31F800780898
:10159400F9008B137908270095048B170800003095
:1015A400200023020A30031922020318F22A003011
:1015B40023020530031922020318E22A0D08E32A44
:1015C4000C08D8005808D9002208013E88310A00C6
:1015D4008A31D8005808D90559088731EA27080004
:1015E40002308931412108002000BE010130F7009A
:1015F4007708B3070A3033020318B3013308D43E23
:10160400860087010108F7007708B400B201B5012C
:10161400AA01AB018B127313B4197317F8010630C6
:101624007802031808007808473E86008701810184
:101634000130F7007708F807112B2000CD010A309C
:101644004D02031808004D08D43E860087010108A6
:10165400103A0319352B4D08D43E86008701010842
:10166400113A031D3A2BF7014D088A31AD228B3113
:101674002000B20121005408FB007B082000B400C4
:10168400B301F0010130FB007B08CD07212B6A2B4D
:101694008B319F230800731D0800C7012D08F70034
:1016A4007708C8002C08F7007708C9004508F70038
:1016B4007708CA00AC01AD01C5016330F7007708B3
:1016C400B200B501B50A9E13210095128B120800D1
:1016D40020003208003A03194A2B013A03194D2B12
:1016E400732B0800FA007A08013E88310A008B3116
:1016F400F7007708F8007A080C3E88310A008B312D
:10170400F7007708F90005307A020318942B78085B
:10171400F700770821008D047908F7007708230083
:101724008D0508007808F700770821008C047908F3
:10173400F700770823008C0508002000B501B50ADE
:10174400B201B20A3308173E88310A008B319F0078
:101754009E138B12AC01AD019501F410741073113A
:101764003408083A031DB82B8130C52B3408093AD4
:10177400031DBE2B8530C52B34080A3A031DC42B28
:101784008930C52B8D309E002030210095009516A0
:101794008B127317F41473110800033020002B020A
:1017A400E93003192A02031C080033080C3E88316F
:1017B4000A008B31F7007708F8008B137808F700DC
:1017C4007708270095057808F700770896058B17A2
:1017D4008B137808F700770821008D057808F70047
:1017E400770820008D058B17B201B20A2830F70064
:1017F4007708AF00C401B001023021009500200039
:1018040095010800F9007908D43E86008701010893
:10181400F7007708F80079080C3E88310A008C310B
:10182400F7007708FA00053079020318292C7A08A2
:10183400F700770820008D057A08F7007708210063
:101844008D057A08F700770823008D0508007A08CB
:10185400F700770820008C057A08F7007708210044
:101864008C057A08F700770823008C05080020000F
:10187400D500AE015508D43E860087010108D20088
:101884005208D4000430540203185C2C55088C31DF
:10189400E4248C3120005508173E88310A008C312D
:1018A4008D315C2578082000D101D1077708D0015B
:1018B400D00708000730540203186B2C55088931EF
:1018C40090212000D200D3015208D0005308D10047
:1018D4000800FF30D000FF30D10008002030F700AE
:1018E4000230F80020005008D2005208F9008E316E
:1018F4005F268C3178082000D401D4077708D301FF
:10190400D307F3150D14D5015108803A803C031D0B
:101914008D2C5008550203189F2C20005508203E9A
:1019240086000230870001088A3145228C3101305B
:101934002000D2005208D507862C200053088A3193
:1019440045228C31200054088A3145220800FB00CE
:101954007B08013E88310A008C31F8007808F900D0
:101964007B080C3E88310A008C31F8007808FA00B4
:1019740005307B020318D12CF708031DC92C8B13E7
:101984007A08F800780820008D058B1708008B135F
:101994007908F800780820008D048B170800F708F0
:1019A400031DDC2C8B137A08F800780820008C05C2
:1019B4008B1708008B137908F800780820008C0432
:1019C4008B170800F9007908D43E860087010108C6
:1019D400F7007708F8007908013E88310A008C3155
:1019E400F7007708FA00053079020318042D7A0805
:1019F400F700770821008D047A08F70077082300A0
:101A04008D040E2D7A08F700770821008C047A08DB
:101A1400F700770823008C04220017087806FC39A5
:101A240078069700F808031D1B2DFC3021009E0545
:101A34000800033021009E0408002000CE00D001DD
:101A4400D00A0830CD004D08CF00CF080319080094
:101A54008B133308893128218D31F7012000330895
:101A64008C31A9248D3120004E08500503193E2DD8
:101A7400000000008B17462D8B17783088314520E5
:101A84008D312000931D432D2000330889310F210F
:101A94008D3120004E0850050319572D78308831B8
:101AA40045208D312000931D542D0310D00D01309D
:101AB400CF02272D2000CD00210011132000111387
:101AC40021001D141D1420004D08F900F90DF90D15
:101AD40021001D087906833979069D000B30FA0030
:101AE4006230F900F90B742DFA0B742D00002100FB
:101AF4009D149D187B2D0B30FA006230F900F90B10
:101B0400812DFA0B812D000021009D149D18882D34
:101B14001C08F90079082000CF0021001B08F900F7
:101B240079082000CE004F08F801F8074E08F701A5
:101B3400F707080020003308013E88310A008D3180
:101B4400F7007708F9007909F7007708F800B5017C
:101B54006230F7007708B20000302B02043003191A
:101B64002A02031C08008B137808F7007708270063
:101B740096057908F700770895048B177908F7001C
:101B840077082000F0002400CF018B152000950178
:101B94000B118B168B1395017908F7007708210038
:101BA4008D048B17000000000000000000000000FE
:101BB4000000000008000030200023020A3003194E
:101BC400220203181A2E2208D43E86008701010837
:101BD400063A031D1A2E2208013E88310A008D316F
:101BE400D8005808D9000030230205300319220216
:101BF40003180A2E27082604031D052E5909D800A8
:101C040058088D05172E5908D80058088D04172E2A
:101C140027082604031D132E5909D80058088C05DB
:101C2400172E5908D80058088C048A3167220800F6
:101C3400023089314121080021005E082000390664
:101C4400031D0800C730E4000000E40B262E003218
:101C5400000020003808013A031D332E8A31D122B6
:101C6400080020003808023A031D3B2E8A31D12295
:101C7400080020003808033A031D432E8F314D27F6
:101C8400080020003808043A031D4B2E87318327AF
:101C9400080020003808053A031D532E8D31DD2538
:101CA400080020003808063A031D5B2E83316B239D
:101CB40008000130893141210800FF302000CE00A6
:101CC400FF30CF00F90803199D2E770886007808A5
:101CD40087004E080106CE004F08CF000130F707F9
:101CE4000030F83D0830FA007A08CD00CD08031919
:101CF400982E4E1C892E4F08FB004E08FA00FB3626
:101D0400FA0C01307A06CE00A0307B06922E4F08E2
:101D1400FB004E08FA00FB36FA0C7A08CE007B086A
:101D2400CF000130CD02CD08031D7B2E0130F90216
:101D3400F908031D672E4F08F801F8074E08F7014C
:101D4400F70708002000CE01CE0ACF010830CD00ED
:101D54004D08D000D0080319F32E33088931282107
:101D64008E31F701200033088C31A9248E318B1376
:101D7400000000000000000000000000000000005F
:101D84002000330889310F218E310000000000004B
:101D940000000000000000000000013088314520F0
:101DA4008E312000931DD32E3308893190218E313A
:101DB400003A0319E42E8B1720004E08CD004D087D
:101DC400CF04E52E8B177830883145208E312000E2
:101DD400931DE92E0310CE0D0130D002D008031D4F
:101DE400AF2E4F0808002000181808000130F70033
:101DF4007708C0070B304002031C052FC0012030B8
:101E0400EA004E30EB0040080C3E88310A008F3166
:101E1400F7007708C10040080A3A031D172FEB1B8F
:101E240008006A09F7006B092A2F4035C03E860076
:101E34008701403FFA00413FFB007A08EA027B0831
:101E4400EB3B7B087A04031908007A09F7007B0945
:101E5400F800F70A0319F80A77089600780897003B
:101E640011102100111420004008013E88310A009D
:101E74008F31F7007708F900053040020318462F28
:101E84008B1379088D04492F8B1379088C04200057
:101E940018148B1708002000DB01013023020030E6
:101EA40003192202031C632F013023020B30031990
:101EB40022020318632F2208D43E860087010108FA
:101EC4006B2FA03022062304031D712F21005E080E
:101ED4002000D900DA015908DC005A08912FFA30A1
:101EE40022062304031D7A2F0030DC000130912FD9
:101EF400FB3022062304031D832F3A30DC006530B7
:101F0400912F003023020A30031922020318932F61
:101F14002235C03E86008701403FDC00413FDD00A2
:101F2400952FDB01DB0A5B0803199C2F02308931F2
:101F34004121080020005D08D701D7075C08D601BD
:101F4400D6078931AD2108002000DB00DA01DD016C
:101F54005B08D43E860087010108D8005808DC00DD
:101F640008305C02031CC62F10305C020318BC2F1F
:101F74000430C32F5C08403A031DC22FDD01C62F75
:101F84000630D8005808DD00DD08031DCD2F0230CF
:101F9400893141210800883165208F3120005D0896
:101FA400D80058082400A20006302000D8005808A1
:101FB400F7005B088831AE208F312000D900590822
:101FC400DC0001308500A0305C078400023087000B
:101FD400233086005D08DA008B1300081E00840A93
:101FE400DA0BEF2F8B1720005D08033ED000003082
:0C1FF40003180130D1008C31702408006B
:020000040001F9
:04000E00FAEFFFFF07
:10E0000004000400040004000400040004000400F0
:10E01000040004007F00FF00FF00FF00FF00FF007E
:00000001FF
